{
  "_format": "hh-sol-artifact-1",
  "contractName": "WNFT",
  "sourceName": "contracts/1155-WNFT.sol",
  "abi": [
    {
      "inputs": [],
      "name": "InvalidPurchaseOperation",
      "type": "error"
    },
    {
      "anonymous": false,
      "inputs": [
        {
          "indexed": true,
          "internalType": "address",
          "name": "account",
          "type": "address"
        },
        {
          "indexed": true,
          "internalType": "address",
          "name": "operator",
          "type": "address"
        },
        {
          "indexed": false,
          "internalType": "bool",
          "name": "approved",
          "type": "bool"
        }
      ],
      "name": "ApprovalForAll",
      "type": "event"
    },
    {
      "anonymous": false,
      "inputs": [
        {
          "indexed": true,
          "internalType": "address",
          "name": "operator",
          "type": "address"
        },
        {
          "indexed": false,
          "internalType": "uint256",
          "name": "cid",
          "type": "uint256"
        },
        {
          "indexed": false,
          "internalType": "uint256",
          "name": "approved",
          "type": "uint256"
        }
      ],
      "name": "ApprovalForCID",
      "type": "event"
    },
    {
      "anonymous": false,
      "inputs": [
        {
          "indexed": true,
          "internalType": "address",
          "name": "creator",
          "type": "address"
        },
        {
          "indexed": false,
          "internalType": "uint256",
          "name": "cid",
          "type": "uint256"
        }
      ],
      "name": "CreatorForCID",
      "type": "event"
    },
    {
      "anonymous": false,
      "inputs": [
        {
          "indexed": true,
          "internalType": "bytes32",
          "name": "role",
          "type": "bytes32"
        },
        {
          "indexed": true,
          "internalType": "bytes32",
          "name": "previousAdminRole",
          "type": "bytes32"
        },
        {
          "indexed": true,
          "internalType": "bytes32",
          "name": "newAdminRole",
          "type": "bytes32"
        }
      ],
      "name": "RoleAdminChanged",
      "type": "event"
    },
    {
      "anonymous": false,
      "inputs": [
        {
          "indexed": true,
          "internalType": "bytes32",
          "name": "role",
          "type": "bytes32"
        },
        {
          "indexed": true,
          "internalType": "address",
          "name": "account",
          "type": "address"
        },
        {
          "indexed": true,
          "internalType": "address",
          "name": "sender",
          "type": "address"
        }
      ],
      "name": "RoleGranted",
      "type": "event"
    },
    {
      "anonymous": false,
      "inputs": [
        {
          "indexed": true,
          "internalType": "bytes32",
          "name": "role",
          "type": "bytes32"
        },
        {
          "indexed": true,
          "internalType": "address",
          "name": "account",
          "type": "address"
        },
        {
          "indexed": true,
          "internalType": "address",
          "name": "sender",
          "type": "address"
        }
      ],
      "name": "RoleRevoked",
      "type": "event"
    },
    {
      "anonymous": false,
      "inputs": [
        {
          "indexed": true,
          "internalType": "address",
          "name": "operator",
          "type": "address"
        },
        {
          "indexed": true,
          "internalType": "address",
          "name": "from",
          "type": "address"
        },
        {
          "indexed": true,
          "internalType": "address",
          "name": "to",
          "type": "address"
        },
        {
          "indexed": false,
          "internalType": "uint256[]",
          "name": "ids",
          "type": "uint256[]"
        },
        {
          "indexed": false,
          "internalType": "uint256[]",
          "name": "values",
          "type": "uint256[]"
        }
      ],
      "name": "TransferBatch",
      "type": "event"
    },
    {
      "anonymous": false,
      "inputs": [
        {
          "indexed": true,
          "internalType": "address",
          "name": "operator",
          "type": "address"
        },
        {
          "indexed": true,
          "internalType": "address",
          "name": "from",
          "type": "address"
        },
        {
          "indexed": true,
          "internalType": "address",
          "name": "to",
          "type": "address"
        },
        {
          "indexed": false,
          "internalType": "uint256",
          "name": "id",
          "type": "uint256"
        },
        {
          "indexed": false,
          "internalType": "uint256",
          "name": "value",
          "type": "uint256"
        }
      ],
      "name": "TransferSingle",
      "type": "event"
    },
    {
      "anonymous": false,
      "inputs": [
        {
          "indexed": false,
          "internalType": "string",
          "name": "value",
          "type": "string"
        },
        {
          "indexed": true,
          "internalType": "uint256",
          "name": "id",
          "type": "uint256"
        }
      ],
      "name": "URI",
      "type": "event"
    },
    {
      "inputs": [],
      "name": "DEFAULT_ADMIN_ROLE",
      "outputs": [
        {
          "internalType": "bytes32",
          "name": "",
          "type": "bytes32"
        }
      ],
      "stateMutability": "view",
      "type": "function"
    },
    {
      "inputs": [
        {
          "internalType": "address",
          "name": "account",
          "type": "address"
        },
        {
          "internalType": "uint256",
          "name": "id",
          "type": "uint256"
        }
      ],
      "name": "balanceOf",
      "outputs": [
        {
          "internalType": "uint256",
          "name": "",
          "type": "uint256"
        }
      ],
      "stateMutability": "view",
      "type": "function"
    },
    {
      "inputs": [
        {
          "internalType": "address[]",
          "name": "accounts",
          "type": "address[]"
        },
        {
          "internalType": "uint256[]",
          "name": "ids",
          "type": "uint256[]"
        }
      ],
      "name": "balanceOfBatch",
      "outputs": [
        {
          "internalType": "uint256[]",
          "name": "",
          "type": "uint256[]"
        }
      ],
      "stateMutability": "view",
      "type": "function"
    },
    {
      "inputs": [
        {
          "internalType": "address",
          "name": "account",
          "type": "address"
        },
        {
          "internalType": "uint256",
          "name": "cid",
          "type": "uint256"
        }
      ],
      "name": "burn",
      "outputs": [],
      "stateMutability": "nonpayable",
      "type": "function"
    },
    {
      "inputs": [
        {
          "internalType": "address",
          "name": "account",
          "type": "address"
        },
        {
          "internalType": "uint256[]",
          "name": "ids",
          "type": "uint256[]"
        },
        {
          "internalType": "uint256[]",
          "name": "amounts",
          "type": "uint256[]"
        }
      ],
      "name": "burnBatch",
      "outputs": [],
      "stateMutability": "nonpayable",
      "type": "function"
    },
    {
      "inputs": [
        {
          "internalType": "bytes32",
          "name": "role",
          "type": "bytes32"
        }
      ],
      "name": "getRoleAdmin",
      "outputs": [
        {
          "internalType": "bytes32",
          "name": "",
          "type": "bytes32"
        }
      ],
      "stateMutability": "view",
      "type": "function"
    },
    {
      "inputs": [
        {
          "internalType": "bytes32",
          "name": "role",
          "type": "bytes32"
        },
        {
          "internalType": "address",
          "name": "account",
          "type": "address"
        }
      ],
      "name": "grantRole",
      "outputs": [],
      "stateMutability": "nonpayable",
      "type": "function"
    },
    {
      "inputs": [
        {
          "internalType": "bytes32",
          "name": "role",
          "type": "bytes32"
        },
        {
          "internalType": "address",
          "name": "account",
          "type": "address"
        }
      ],
      "name": "hasRole",
      "outputs": [
        {
          "internalType": "bool",
          "name": "",
          "type": "bool"
        }
      ],
      "stateMutability": "view",
      "type": "function"
    },
    {
      "inputs": [
        {
          "internalType": "uint256",
          "name": "cid",
          "type": "uint256"
        }
      ],
      "name": "holderOf",
      "outputs": [
        {
          "internalType": "address",
          "name": "",
          "type": "address"
        }
      ],
      "stateMutability": "view",
      "type": "function"
    },
    {
      "inputs": [],
      "name": "initialize",
      "outputs": [],
      "stateMutability": "nonpayable",
      "type": "function"
    },
    {
      "inputs": [
        {
          "internalType": "address",
          "name": "operator",
          "type": "address"
        },
        {
          "internalType": "uint256",
          "name": "cid",
          "type": "uint256"
        }
      ],
      "name": "isApprovedFor",
      "outputs": [
        {
          "internalType": "bool",
          "name": "",
          "type": "bool"
        }
      ],
      "stateMutability": "view",
      "type": "function"
    },
    {
      "inputs": [
        {
          "internalType": "address",
          "name": "account",
          "type": "address"
        },
        {
          "internalType": "address",
          "name": "operator",
          "type": "address"
        }
      ],
      "name": "isApprovedForAll",
      "outputs": [
        {
          "internalType": "bool",
          "name": "",
          "type": "bool"
        }
      ],
      "stateMutability": "view",
      "type": "function"
    },
    {
      "inputs": [
        {
          "internalType": "address",
          "name": "account",
          "type": "address"
        },
        {
          "internalType": "uint256",
          "name": "cid",
          "type": "uint256"
        }
      ],
      "name": "mint",
      "outputs": [],
      "stateMutability": "nonpayable",
      "type": "function"
    },
    {
      "inputs": [
        {
          "internalType": "address",
          "name": "to",
          "type": "address"
        },
        {
          "internalType": "uint256[]",
          "name": "cids",
          "type": "uint256[]"
        }
      ],
      "name": "mintBatch",
      "outputs": [],
      "stateMutability": "nonpayable",
      "type": "function"
    },
    {
      "inputs": [
        {
          "internalType": "bytes32",
          "name": "role",
          "type": "bytes32"
        },
        {
          "internalType": "address",
          "name": "account",
          "type": "address"
        }
      ],
      "name": "renounceRole",
      "outputs": [],
      "stateMutability": "nonpayable",
      "type": "function"
    },
    {
      "inputs": [
        {
          "internalType": "bytes32",
          "name": "role",
          "type": "bytes32"
        },
        {
          "internalType": "address",
          "name": "account",
          "type": "address"
        }
      ],
      "name": "revokeRole",
      "outputs": [],
      "stateMutability": "nonpayable",
      "type": "function"
    },
    {
      "inputs": [
        {
          "internalType": "address",
          "name": "from",
          "type": "address"
        },
        {
          "internalType": "address",
          "name": "to",
          "type": "address"
        },
        {
          "internalType": "uint256[]",
          "name": "ids",
          "type": "uint256[]"
        },
        {
          "internalType": "uint256[]",
          "name": "amounts",
          "type": "uint256[]"
        },
        {
          "internalType": "bytes",
          "name": "data",
          "type": "bytes"
        }
      ],
      "name": "safeBatchTransferFrom",
      "outputs": [],
      "stateMutability": "nonpayable",
      "type": "function"
    },
    {
      "inputs": [
        {
          "internalType": "uint256",
          "name": "cid",
          "type": "uint256"
        }
      ],
      "name": "safePurchase",
      "outputs": [],
      "stateMutability": "payable",
      "type": "function"
    },
    {
      "inputs": [
        {
          "internalType": "address",
          "name": "from",
          "type": "address"
        },
        {
          "internalType": "address",
          "name": "to",
          "type": "address"
        },
        {
          "internalType": "uint256",
          "name": "id",
          "type": "uint256"
        },
        {
          "internalType": "uint256",
          "name": "amount",
          "type": "uint256"
        },
        {
          "internalType": "bytes",
          "name": "data",
          "type": "bytes"
        }
      ],
      "name": "safeTransferFrom",
      "outputs": [],
      "stateMutability": "nonpayable",
      "type": "function"
    },
    {
      "inputs": [
        {
          "internalType": "address",
          "name": "operator",
          "type": "address"
        },
        {
          "internalType": "uint256",
          "name": "cid",
          "type": "uint256"
        },
        {
          "internalType": "uint256",
          "name": "approved",
          "type": "uint256"
        }
      ],
      "name": "setApprovalFor",
      "outputs": [],
      "stateMutability": "nonpayable",
      "type": "function"
    },
    {
      "inputs": [
        {
          "internalType": "address",
          "name": "operator",
          "type": "address"
        },
        {
          "internalType": "bool",
          "name": "approved",
          "type": "bool"
        }
      ],
      "name": "setApprovalForAll",
      "outputs": [],
      "stateMutability": "nonpayable",
      "type": "function"
    },
    {
      "inputs": [
        {
          "internalType": "uint256",
          "name": "cid",
          "type": "uint256"
        },
        {
          "internalType": "address",
          "name": "holder",
          "type": "address"
        }
      ],
      "name": "setHolder",
      "outputs": [],
      "stateMutability": "nonpayable",
      "type": "function"
    },
    {
      "inputs": [
        {
          "internalType": "string",
          "name": "newuri",
          "type": "string"
        }
      ],
      "name": "setURI",
      "outputs": [],
      "stateMutability": "nonpayable",
      "type": "function"
    },
    {
      "inputs": [
        {
          "internalType": "bytes4",
          "name": "interfaceId",
          "type": "bytes4"
        }
      ],
      "name": "supportsInterface",
      "outputs": [
        {
          "internalType": "bool",
          "name": "",
          "type": "bool"
        }
      ],
      "stateMutability": "view",
      "type": "function"
    },
    {
      "inputs": [
        {
          "internalType": "address",
          "name": "from",
          "type": "address"
        },
        {
          "internalType": "address",
          "name": "to",
          "type": "address"
        },
        {
          "internalType": "uint256",
          "name": "cid",
          "type": "uint256"
        }
      ],
      "name": "transfer",
      "outputs": [],
      "stateMutability": "nonpayable",
      "type": "function"
    },
    {
      "inputs": [],
      "name": "upgrade",
      "outputs": [],
      "stateMutability": "nonpayable",
      "type": "function"
    },
    {
      "inputs": [
        {
          "internalType": "uint256",
          "name": "_tokenId",
          "type": "uint256"
        }
      ],
      "name": "uri",
      "outputs": [
        {
          "internalType": "string",
          "name": "",
          "type": "string"
        }
      ],
      "stateMutability": "view",
      "type": "function"
    },
    {
      "inputs": [],
      "name": "version",
      "outputs": [
        {
          "internalType": "uint32",
          "name": "",
          "type": "uint32"
        }
      ],
      "stateMutability": "view",
      "type": "function"
    }
  ],
  "bytecode": "0x608060405234801561001057600080fd5b5061322c806100206000396000f3fe6080604052600436106101b65760003560e01c8063738f5469116100ec578063ba3dad841161008a578063d55ec69711610064578063d55ec6971461051d578063dbacc23714610532578063e985e9c514610580578063f242432a146105c957600080fd5b8063ba3dad84146104bd578063beabacc8146104dd578063d547741f146104fd57600080fd5b806391d14854116100c657806391d14854146104485780639dc29fac14610468578063a217fddf14610488578063a22cb4651461049d57600080fd5b8063738f54691461040057806375ceb341146104135780638129fc1c1461043357600080fd5b80632f2ff15d1161015957806340c10f191161013357806340c10f19146103615780634e1273f41461038157806354fd4d50146103ae5780636b20c454146103e057600080fd5b80632f2ff15d146102dd57806336568abe146102fd578063390ff1341461031d57600080fd5b80630e89341c116101955780630e89341c14610240578063248a9ca31461026d5780632ce62e501461029d5780632eb2c2d6146102bd57600080fd5b8062fdd58e146101bb57806301ffc9a7146101ee57806302fe53051461021e575b600080fd5b3480156101c757600080fd5b506101db6101d63660046128d4565b6105e9565b6040519081526020015b60405180910390f35b3480156101fa57600080fd5b5061020e610209366004612a33565b610682565b60405190151581526020016101e5565b34801561022a57600080fd5b5061023e610239366004612a6d565b610693565b005b34801561024c57600080fd5b5061026061025b3660046129f7565b6106ef565b6040516101e59190612cc3565b34801561027957600080fd5b506101db6102883660046129f7565b60009081526097602052604090206001015490565b3480156102a957600080fd5b5061023e6102b8366004612a10565b610725565b3480156102c957600080fd5b5061023e6102d836600461268f565b6107de565b3480156102e957600080fd5b5061023e6102f8366004612a10565b610875565b34801561030957600080fd5b5061023e610318366004612a10565b6108a0565b34801561032957600080fd5b5061020e6103383660046128d4565b600090815260c9602090815260408083206001600160a01b039490941683529290522054151590565b34801561036d57600080fd5b5061023e61037c3660046128d4565b61091e565b34801561038d57600080fd5b506103a161039c366004612931565b610a05565b6040516101e59190612c82565b3480156103ba57600080fd5b5060cb546103cb9063ffffffff1681565b60405163ffffffff90911681526020016101e5565b3480156103ec57600080fd5b5061023e6103fb366004612825565b610b2e565b61023e61040e3660046129f7565b610b87565b34801561041f57600080fd5b5061023e61042e3660046127d8565b610ebb565b34801561043f57600080fd5b5061023e611104565b34801561045457600080fd5b5061020e610463366004612a10565b61122f565b34801561047457600080fd5b5061023e6104833660046128d4565b61125a565b34801561049457600080fd5b506101db600081565b3480156104a957600080fd5b5061023e6104b8366004612898565b6112d3565b3480156104c957600080fd5b5061023e6104d83660046128fe565b6112de565b3480156104e957600080fd5b5061023e6104f8366004612738565b6113e5565b34801561050957600080fd5b5061023e610518366004612a10565b611440565b34801561052957600080fd5b5061023e611466565b34801561053e57600080fd5b5061056861054d3660046129f7565b600090815260ca60205260409020546001600160a01b031690565b6040516001600160a01b0390911681526020016101e5565b34801561058c57600080fd5b5061020e61059b36600461265c565b6001600160a01b03918216600090815260666020908152604080832093909416825291909152205460ff1690565b3480156105d557600080fd5b5061023e6105e4366004612774565b6114f4565b60006001600160a01b03831661065a5760405162461bcd60e51b815260206004820152602b60248201527f455243313135353a2062616c616e636520717565727920666f7220746865207a60448201526a65726f206164647265737360a81b60648201526084015b60405180910390fd5b5060009081526065602090815260408083206001600160a01b03949094168352929052205490565b600061068d8261157b565b92915050565b61069e60003361122f565b6106e35760405162461bcd60e51b81526020600482015260166024820152752aa9249031b0b73737ba103132903ab83230ba32b21760511b6044820152606401610651565b6106ec816115a0565b50565b6060806106fb836115b3565b90508060405160200161070e9190612b24565b604051602081830303815290604052915050919050565b61073060003361122f565b61077c5760405162461bcd60e51b815260206004820152601960248201527f486f6c6465722063616e6e6f7420626520757064617465642e000000000000006044820152606401610651565b600082815260ca602090815260409182902080546001600160a01b0319166001600160a01b03851690811790915591518481527f497a8b06bdd19be11ad7dbb925855a5758d606d5125110e299244ece51726bca910160405180910390a25050565b6001600160a01b0385163314806107fa57506107fa853361059b565b6108615760405162461bcd60e51b815260206004820152603260248201527f455243313135353a207472616e736665722063616c6c6572206973206e6f74206044820152711bdddb995c881b9bdc88185c1c1c9bdd995960721b6064820152608401610651565b61086e85858585856116c3565b5050505050565b6000828152609760205260409020600101546108918133611862565b61089b83836118c6565b505050565b6001600160a01b03811633146109105760405162461bcd60e51b815260206004820152602f60248201527f416363657373436f6e74726f6c3a2063616e206f6e6c792072656e6f756e636560448201526e103937b632b9903337b91039b2b63360891b6064820152608401610651565b61091a828261194c565b5050565b600081815260ca60205260409020546001600160a01b0316156109535760405162461bcd60e51b815260040161065190612d1e565b61097d7f3a5b873628a2c49bf313473942acc8932f6f84c76b74bf3db0e4d8b51277a6233361122f565b6109c15760405162461bcd60e51b81526020600482015260156024820152741391950818d85b9b9bdd0818994818dc99585d1959605a1b6044820152606401610651565b600081815260ca6020908152604080832080546001600160a01b0319166001600160a01b0387161790558051918201905290815261091a90839083906001906119b3565b60608151835114610a6a5760405162461bcd60e51b815260206004820152602960248201527f455243313135353a206163636f756e747320616e6420696473206c656e677468604482015268040dad2e6dac2e8c6d60bb1b6064820152608401610651565b600083516001600160401b03811115610a8557610a85613105565b604051908082528060200260200182016040528015610aae578160200160208202803683370190505b50905060005b8451811015610b2657610af9858281518110610ad257610ad26130ef565b6020026020010151858381518110610aec57610aec6130ef565b60200260200101516105e9565b828281518110610b0b57610b0b6130ef565b6020908102919091010152610b1f8161309a565b9050610ab4565b509392505050565b610b3960003361122f565b610b7c5760405162461bcd60e51b81526020600482015260146024820152731391950818d85b9b9bdd08189948189d5c9b995960621b6044820152606401610651565b61089b838383611a73565b600081815260ca60205260409020546001600160a01b0316610bd95760405162461bcd60e51b815260206004820152600b60248201526a125b9d985b1a590818da5960aa1b6044820152606401610651565b600081815260ca60205260409020546001600160a01b0316331415610c305760405162461bcd60e51b815260206004820152600d60248201526c24b73b30b634b210313abcb2b960991b6044820152606401610651565b600081815260c960209081526040808320338452909152902054610c965760405162461bcd60e51b815260206004820181905260248201527f43616c6c6572206973206e6f74206f776e6572206e6f7220617070726f7665646044820152606401610651565b600081815260c9602090815260408083203384529091529020543414610cfe5760405162461bcd60e51b815260206004820152601f60248201527f496e76616c696420616d6f756e7420666f7220617070726f76656420626964006044820152606401610651565b600081815260ca60205260408082205490516001600160a01b039091169190829034908381818185875af1925050503d8060008114610d59576040519150601f19603f3d011682016040523d82523d6000602084013e610d5e565b606091505b5050905080610dbb5760405162461bcd60e51b8152602060048201526024808201527f4661696c656420746f207472616e73666572207061796d656e7420746f207365604482015263363632b960e11b6064820152608401610651565b6000610dc783856105e9565b1115610e2457610e1f60ca600085815260200190815260200160002060009054906101000a90046001600160a01b03163385600160ff166040518060400160405280600381526020016203078360ec1b815250611bf2565b610e7e565b610e4f3384600160ff166040518060400160405280600381526020016203078360ec1b8152506119b3565b6040805184815260016020820152339160009183916000805160206131d7833981519152910160405180910390a45b5050600081815260c9602090815260408083203380855290835281842084905593835260ca909152902080546001600160a01b0319169091179055565b610ee57f3a5b873628a2c49bf313473942acc8932f6f84c76b74bf3db0e4d8b51277a6233361122f565b610f295760405162461bcd60e51b81526020600482015260156024820152741391950818d85b9b9bdd0818994818dc99585d1959605a1b6044820152606401610651565b600081516001600160401b03811115610f4457610f44613105565b604051908082528060200260200182016040528015610f6d578160200160208202803683370190505b509050600082516001600160401b03811115610f8b57610f8b613105565b604051908082528060200260200182016040528015610fb4578160200160208202803683370190505b50905060005b83518110156110e25760006001600160a01b031660ca6000868481518110610fe457610fe46130ef565b6020908102919091018101518252810191909152604001600020546001600160a01b0316146110255760405162461bcd60e51b815260040161065190612d1e565b838181518110611037576110376130ef565b6020026020010151838281518110611051576110516130ef565b6020026020010181815250508460ca6000858481518110611074576110746130ef565b6020026020010151815260200190815260200160002060006101000a8154816001600160a01b0302191690836001600160a01b03160217905550600160ff168282815181106110c5576110c56130ef565b6020908102919091010152806110da8161309a565b915050610fba565b506110fe84838360405180602001604052806000815250611d01565b50505050565b600054610100900460ff1661111f5760005460ff1615611123565b303b155b6111865760405162461bcd60e51b815260206004820152602e60248201527f496e697469616c697a61626c653a20636f6e747261637420697320616c72656160448201526d191e481a5b9a5d1a585b1a5e995960921b6064820152608401610651565b600054610100900460ff161580156111a8576000805461ffff19166101011790555b6111e66040518060400160405280601881526020017f697066733a2f2f66307b69647d2f696e6465782e6a736f6e0000000000000000815250611e4d565b6111f1600033611e7d565b61121b7f3a5b873628a2c49bf313473942acc8932f6f84c76b74bf3db0e4d8b51277a62333611e7d565b80156106ec576000805461ff001916905550565b60009182526097602090815260408084206001600160a01b0393909316845291905290205460ff1690565b61126560003361122f565b6112a85760405162461bcd60e51b81526020600482015260146024820152731391950818d85b9b9bdd08189948189d5c9b995960621b6044820152606401610651565b6112b482826001611e87565b600090815260ca6020526040902080546001600160a01b031916905550565b61091a338383611f7b565b336001600160a01b03841614156113075760405162461bcd60e51b815260040161065190612ec4565b600082815260ca60205260409020546001600160a01b0316336001600160a01b0316146113825760405162461bcd60e51b815260206004820152602360248201527f4f6e6c79206f776e65722063616e2073657420617070726f76616c20666f722060448201526210d25160ea1b6064820152608401610651565b600082815260c9602090815260408083206001600160a01b0387168085529083529281902084905580518581529182018490527f0a5d49223cdca66ecee577e644907f9d77e9f5c6743247ebddd0c002ba8083b2910160405180910390a2505050565b611411838383600160ff166040518060400160405280600381526020016203078360ec1b8152506114f4565b600090815260ca6020526040902080546001600160a01b0319166001600160a01b039290921691909117905550565b60008281526097602052604090206001015461145c8133611862565b61089b838361194c565b61147160003361122f565b6114bd5760405162461bcd60e51b815260206004820152601a60248201527f56657273696f6e2063616e6e6f7420626520757064617465642e0000000000006044820152606401610651565b60cb805463ffffffff169060006114d3836130b5565b91906101000a81548163ffffffff021916908363ffffffff16021790555050565b6001600160a01b0385163314806115105750611510853361059b565b61156e5760405162461bcd60e51b815260206004820152602960248201527f455243313135353a2063616c6c6572206973206e6f74206f776e6572206e6f7260448201526808185c1c1c9bdd995960ba1b6064820152608401610651565b61086e8585858585611bf2565b60006001600160e01b03198216637965db0b60e01b148061068d575061068d8261201a565b805161091a9060679060208401906124b3565b6060816115d75750506040805180820190915260018152600360fc1b602082015290565b8160005b81156115fa57806115eb8161309a565b915050600482901c91506115db565b600f6000826001600160401b0381111561161657611616613105565b6040519080825280601f01601f191660200182016040528015611640576020820181803683370190505b509050825b86156116b9578683166009811161166957611661816030612fb9565b60f81b611678565b611674816037612fb9565b60f81b5b836116828461301c565b93508381518110611695576116956130ef565b60200101906001600160f81b031916908160001a905350600488901c975050611645565b5095945050505050565b81518351146116e45760405162461bcd60e51b815260040161065190612f0d565b6001600160a01b03841661170a5760405162461bcd60e51b815260040161065190612da7565b3360005b84518110156117f457600085828151811061172b5761172b6130ef565b602002602001015190506000858381518110611749576117496130ef565b60209081029190910181015160008481526065835260408082206001600160a01b038e16835290935291909120549091508181101561179a5760405162461bcd60e51b815260040161065190612e2f565b60008381526065602090815260408083206001600160a01b038e8116855292528083208585039055908b168252812080548492906117d9908490612fb9565b92505081905550505050806117ed9061309a565b905061170e565b50846001600160a01b0316866001600160a01b0316826001600160a01b03167f4a39dc06d4c0dbc64b70af90fd698a233a518aa5d07e595d983b8c0526c8f7fb8787604051611844929190612c95565b60405180910390a461185a81878787878761206a565b505050505050565b61186c828261122f565b61091a57611884816001600160a01b031660146121d5565b61188f8360206121d5565b6040516020016118a0929190612b6a565b60408051601f198184030181529082905262461bcd60e51b825261065191600401612cc3565b6118d0828261122f565b61091a5760008281526097602090815260408083206001600160a01b03851684529091529020805460ff191660011790556119083390565b6001600160a01b0316816001600160a01b0316837f2f8788117e7eff1d82e926ec794901d17c78024a50270940304540a733656f0d60405160405180910390a45050565b611956828261122f565b1561091a5760008281526097602090815260408083206001600160a01b0385168085529252808320805460ff1916905551339285917ff6391f5c32d9c69d2a47ea670b442974b53935d1edc7fd64eb21e047a839171b9190a45050565b6001600160a01b0384166119d95760405162461bcd60e51b815260040161065190612f55565b336119f3816000876119ea88612377565b61086e88612377565b60008481526065602090815260408083206001600160a01b038916845290915281208054859290611a25908490612fb9565b909155505060408051858152602081018590526001600160a01b0380881692600092918516916000805160206131d7833981519152910160405180910390a461086e816000878787876123c2565b6001600160a01b038316611a995760405162461bcd60e51b815260040161065190612dec565b8051825114611aba5760405162461bcd60e51b815260040161065190612f0d565b604080516020810190915260009081905233905b8351811015611b93576000848281518110611aeb57611aeb6130ef565b602002602001015190506000848381518110611b0957611b096130ef565b60209081029190910181015160008481526065835260408082206001600160a01b038c168352909352919091205490915081811015611b5a5760405162461bcd60e51b815260040161065190612d63565b60009283526065602090815260408085206001600160a01b038b1686529091529092209103905580611b8b8161309a565b915050611ace565b5060006001600160a01b0316846001600160a01b0316826001600160a01b03167f4a39dc06d4c0dbc64b70af90fd698a233a518aa5d07e595d983b8c0526c8f7fb8686604051611be4929190612c95565b60405180910390a450505050565b6001600160a01b038416611c185760405162461bcd60e51b815260040161065190612da7565b33611c288187876119ea88612377565b60008481526065602090815260408083206001600160a01b038a16845290915290205483811015611c6b5760405162461bcd60e51b815260040161065190612e2f565b60008581526065602090815260408083206001600160a01b038b8116855292528083208785039055908816825281208054869290611caa908490612fb9565b909155505060408051868152602081018690526001600160a01b03808916928a821692918616916000805160206131d7833981519152910160405180910390a4611cf88288888888886123c2565b50505050505050565b6001600160a01b038416611d275760405162461bcd60e51b815260040161065190612f55565b8151835114611d485760405162461bcd60e51b815260040161065190612f0d565b3360005b8451811015611de557838181518110611d6757611d676130ef565b602002602001015160656000878481518110611d8557611d856130ef565b602002602001015181526020019081526020016000206000886001600160a01b03166001600160a01b031681526020019081526020016000206000828254611dcd9190612fb9565b90915550819050611ddd8161309a565b915050611d4c565b50846001600160a01b031660006001600160a01b0316826001600160a01b03167f4a39dc06d4c0dbc64b70af90fd698a233a518aa5d07e595d983b8c0526c8f7fb8787604051611e36929190612c95565b60405180910390a461086e8160008787878761206a565b600054610100900460ff16611e745760405162461bcd60e51b815260040161065190612e79565b6106ec8161248c565b61091a82826118c6565b6001600160a01b038316611ead5760405162461bcd60e51b815260040161065190612dec565b33611edd81856000611ebe87612377565b611ec787612377565b5050604080516020810190915260009052505050565b60008381526065602090815260408083206001600160a01b038816845290915290205482811015611f205760405162461bcd60e51b815260040161065190612d63565b60008481526065602090815260408083206001600160a01b03898116808652918452828520888703905582518981529384018890529092908616916000805160206131d7833981519152910160405180910390a45050505050565b816001600160a01b0316836001600160a01b03161415611fad5760405162461bcd60e51b815260040161065190612ec4565b6001600160a01b03838116600081815260666020908152604080832094871680845294825291829020805460ff191686151590811790915591519182527f17307eab39ab6107e8899845ad3d59bd9653f200f220920489ca2b5937696c31910160405180910390a3505050565b60006001600160e01b03198216636cdb3d1360e11b148061204b57506001600160e01b031982166303a24d0760e21b145b8061068d57506301ffc9a760e01b6001600160e01b031983161461068d565b6001600160a01b0384163b1561185a5760405163bc197c8160e01b81526001600160a01b0385169063bc197c81906120ae9089908990889088908890600401612bdf565b602060405180830381600087803b1580156120c857600080fd5b505af19250505080156120f8575060408051601f3d908101601f191682019092526120f591810190612a50565b60015b6121a55761210461311b565b806308c379a0141561213e5750612119613137565b806121245750612140565b8060405162461bcd60e51b81526004016106519190612cc3565b505b60405162461bcd60e51b815260206004820152603460248201527f455243313135353a207472616e7366657220746f206e6f6e20455243313135356044820152732932b1b2b4bb32b91034b6b83632b6b2b73a32b960611b6064820152608401610651565b6001600160e01b0319811663bc197c8160e01b14611cf85760405162461bcd60e51b815260040161065190612cd6565b606060006121e4836002612fd1565b6121ef906002612fb9565b6001600160401b0381111561220657612206613105565b6040519080825280601f01601f191660200182016040528015612230576020820181803683370190505b509050600360fc1b8160008151811061224b5761224b6130ef565b60200101906001600160f81b031916908160001a905350600f60fb1b8160018151811061227a5761227a6130ef565b60200101906001600160f81b031916908160001a905350600061229e846002612fd1565b6122a9906001612fb9565b90505b6001811115612321576f181899199a1a9b1b9c1cb0b131b232b360811b85600f16601081106122dd576122dd6130ef565b1a60f81b8282815181106122f3576122f36130ef565b60200101906001600160f81b031916908160001a90535060049490941c9361231a8161301c565b90506122ac565b5083156123705760405162461bcd60e51b815260206004820181905260248201527f537472696e67733a20686578206c656e67746820696e73756666696369656e746044820152606401610651565b9392505050565b604080516001808252818301909252606091600091906020808301908036833701905050905082816000815181106123b1576123b16130ef565b602090810291909101015292915050565b6001600160a01b0384163b1561185a5760405163f23a6e6160e01b81526001600160a01b0385169063f23a6e61906124069089908990889088908890600401612c3d565b602060405180830381600087803b15801561242057600080fd5b505af1925050508015612450575060408051601f3d908101601f1916820190925261244d91810190612a50565b60015b61245c5761210461311b565b6001600160e01b0319811663f23a6e6160e01b14611cf85760405162461bcd60e51b815260040161065190612cd6565b600054610100900460ff166106e35760405162461bcd60e51b815260040161065190612e79565b8280546124bf90613033565b90600052602060002090601f0160209004810192826124e15760008555612527565b82601f106124fa57805160ff1916838001178555612527565b82800160010185558215612527579182015b8281111561252757825182559160200191906001019061250c565b50612533929150612537565b5090565b5b808211156125335760008155600101612538565b60006001600160401b0383111561256557612565613105565b60405161257c601f8501601f19166020018261306e565b80915083815284848401111561259157600080fd5b83836020830137600060208583010152509392505050565b80356001600160a01b03811681146125c057600080fd5b919050565b600082601f8301126125d657600080fd5b813560206125e382612f96565b6040516125f0828261306e565b8381528281019150858301600585901b8701840188101561261057600080fd5b60005b8581101561262f57813584529284019290840190600101612613565b5090979650505050505050565b600082601f83011261264d57600080fd5b6123708383356020850161254c565b6000806040838503121561266f57600080fd5b612678836125a9565b9150612686602084016125a9565b90509250929050565b600080600080600060a086880312156126a757600080fd5b6126b0866125a9565b94506126be602087016125a9565b935060408601356001600160401b03808211156126da57600080fd5b6126e689838a016125c5565b945060608801359150808211156126fc57600080fd5b61270889838a016125c5565b9350608088013591508082111561271e57600080fd5b5061272b8882890161263c565b9150509295509295909350565b60008060006060848603121561274d57600080fd5b612756846125a9565b9250612764602085016125a9565b9150604084013590509250925092565b600080600080600060a0868803121561278c57600080fd5b612795866125a9565b94506127a3602087016125a9565b9350604086013592506060860135915060808601356001600160401b038111156127cc57600080fd5b61272b8882890161263c565b600080604083850312156127eb57600080fd5b6127f4836125a9565b915060208301356001600160401b0381111561280f57600080fd5b61281b858286016125c5565b9150509250929050565b60008060006060848603121561283a57600080fd5b612843846125a9565b925060208401356001600160401b038082111561285f57600080fd5b61286b878388016125c5565b9350604086013591508082111561288157600080fd5b5061288e868287016125c5565b9150509250925092565b600080604083850312156128ab57600080fd5b6128b4836125a9565b9150602083013580151581146128c957600080fd5b809150509250929050565b600080604083850312156128e757600080fd5b6128f0836125a9565b946020939093013593505050565b60008060006060848603121561291357600080fd5b61291c846125a9565b95602085013595506040909401359392505050565b6000806040838503121561294457600080fd5b82356001600160401b038082111561295b57600080fd5b818501915085601f83011261296f57600080fd5b8135602061297c82612f96565b604051612989828261306e565b8381528281019150858301600585901b870184018b10156129a957600080fd5b600096505b848710156129d3576129bf816125a9565b8352600196909601959183019183016129ae565b50965050860135925050808211156129ea57600080fd5b5061281b858286016125c5565b600060208284031215612a0957600080fd5b5035919050565b60008060408385031215612a2357600080fd5b82359150612686602084016125a9565b600060208284031215612a4557600080fd5b8135612370816131c0565b600060208284031215612a6257600080fd5b8151612370816131c0565b600060208284031215612a7f57600080fd5b81356001600160401b03811115612a9557600080fd5b8201601f81018413612aa657600080fd5b612ab58482356020840161254c565b949350505050565b600081518084526020808501945080840160005b83811015612aed57815187529582019590820190600101612ad1565b509495945050505050565b60008151808452612b10816020860160208601612ff0565b601f01601f19169290920160200192915050565b680697066733a2f2f66360bc1b815260008251612b48816009850160208701612ff0565b6a17b4b73232bc173539b7b760a91b6009939091019283015250601401919050565b7f416363657373436f6e74726f6c3a206163636f756e7420000000000000000000815260008351612ba2816017850160208801612ff0565b7001034b99036b4b9b9b4b733903937b6329607d1b6017918401918201528351612bd3816028840160208801612ff0565b01602801949350505050565b6001600160a01b0386811682528516602082015260a060408201819052600090612c0b90830186612abd565b8281036060840152612c1d8186612abd565b90508281036080840152612c318185612af8565b98975050505050505050565b6001600160a01b03868116825285166020820152604081018490526060810183905260a060808201819052600090612c7790830184612af8565b979650505050505050565b6020815260006123706020830184612abd565b604081526000612ca86040830185612abd565b8281036020840152612cba8185612abd565b95945050505050565b6020815260006123706020830184612af8565b60208082526028908201527f455243313135353a204552433131353552656365697665722072656a656374656040820152676420746f6b656e7360c01b606082015260800190565b60208082526025908201527f5468697320746f6b656e2049442068617320616c7265616479206265656e206d6040820152641a5b9d195960da1b606082015260800190565b60208082526024908201527f455243313135353a206275726e20616d6f756e7420657863656564732062616c604082015263616e636560e01b606082015260800190565b60208082526025908201527f455243313135353a207472616e7366657220746f20746865207a65726f206164604082015264647265737360d81b606082015260800190565b60208082526023908201527f455243313135353a206275726e2066726f6d20746865207a65726f206164647260408201526265737360e81b606082015260800190565b6020808252602a908201527f455243313135353a20696e73756666696369656e742062616c616e636520666f60408201526939103a3930b739b332b960b11b606082015260800190565b6020808252602b908201527f496e697469616c697a61626c653a20636f6e7472616374206973206e6f74206960408201526a6e697469616c697a696e6760a81b606082015260800190565b60208082526029908201527f455243313135353a2073657474696e6720617070726f76616c20737461747573604082015268103337b91039b2b63360b91b606082015260800190565b60208082526028908201527f455243313135353a2069647320616e6420616d6f756e7473206c656e677468206040820152670dad2e6dac2e8c6d60c31b606082015260800190565b60208082526021908201527f455243313135353a206d696e7420746f20746865207a65726f206164647265736040820152607360f81b606082015260800190565b60006001600160401b03821115612faf57612faf613105565b5060051b60200190565b60008219821115612fcc57612fcc6130d9565b500190565b6000816000190483118215151615612feb57612feb6130d9565b500290565b60005b8381101561300b578181015183820152602001612ff3565b838111156110fe5750506000910152565b60008161302b5761302b6130d9565b506000190190565b600181811c9082168061304757607f821691505b6020821081141561306857634e487b7160e01b600052602260045260246000fd5b50919050565b601f8201601f191681016001600160401b038111828210171561309357613093613105565b6040525050565b60006000198214156130ae576130ae6130d9565b5060010190565b600063ffffffff808316818114156130cf576130cf6130d9565b6001019392505050565b634e487b7160e01b600052601160045260246000fd5b634e487b7160e01b600052603260045260246000fd5b634e487b7160e01b600052604160045260246000fd5b600060033d11156131345760046000803e5060005160e01c5b90565b600060443d10156131455790565b6040516003193d81016004833e81513d6001600160401b03816024840111818411171561317457505050505090565b828501915081518181111561318c5750505050505090565b843d87010160208285010111156131a65750505050505090565b6131b56020828601018761306e565b509095945050505050565b6001600160e01b0319811681146106ec57600080fdfec3d58168c5ae7397731d063d5bbf3d657854427343f4c083240f7aacaa2d0f62a264697066735822122043e5c3523749276a73f442c0cf125eb5844b55e77031029e4a2cc619767dd30664736f6c63430008060033",
  "linkReferences": {},
  "deployedLinkReferences": {}
}