{
  "_format": "hh-sol-artifact-1",
  "contractName": "WNFT",
  "sourceName": "contracts/1155-WNFT.sol",
  "abi": [
    {
      "inputs": [],
      "name": "InvalidPurchaseOperation",
      "type": "error"
    },
    {
      "anonymous": false,
      "inputs": [
        {
          "indexed": true,
          "internalType": "address",
          "name": "account",
          "type": "address"
        },
        {
          "indexed": true,
          "internalType": "address",
          "name": "operator",
          "type": "address"
        },
        {
          "indexed": false,
          "internalType": "bool",
          "name": "approved",
          "type": "bool"
        }
      ],
      "name": "ApprovalForAll",
      "type": "event"
    },
    {
      "anonymous": false,
      "inputs": [
        {
          "indexed": true,
          "internalType": "bytes32",
          "name": "role",
          "type": "bytes32"
        },
        {
          "indexed": true,
          "internalType": "bytes32",
          "name": "previousAdminRole",
          "type": "bytes32"
        },
        {
          "indexed": true,
          "internalType": "bytes32",
          "name": "newAdminRole",
          "type": "bytes32"
        }
      ],
      "name": "RoleAdminChanged",
      "type": "event"
    },
    {
      "anonymous": false,
      "inputs": [
        {
          "indexed": true,
          "internalType": "bytes32",
          "name": "role",
          "type": "bytes32"
        },
        {
          "indexed": true,
          "internalType": "address",
          "name": "account",
          "type": "address"
        },
        {
          "indexed": true,
          "internalType": "address",
          "name": "sender",
          "type": "address"
        }
      ],
      "name": "RoleGranted",
      "type": "event"
    },
    {
      "anonymous": false,
      "inputs": [
        {
          "indexed": true,
          "internalType": "bytes32",
          "name": "role",
          "type": "bytes32"
        },
        {
          "indexed": true,
          "internalType": "address",
          "name": "account",
          "type": "address"
        },
        {
          "indexed": true,
          "internalType": "address",
          "name": "sender",
          "type": "address"
        }
      ],
      "name": "RoleRevoked",
      "type": "event"
    },
    {
      "anonymous": false,
      "inputs": [
        {
          "indexed": true,
          "internalType": "address",
          "name": "operator",
          "type": "address"
        },
        {
          "indexed": true,
          "internalType": "address",
          "name": "from",
          "type": "address"
        },
        {
          "indexed": true,
          "internalType": "address",
          "name": "to",
          "type": "address"
        },
        {
          "indexed": false,
          "internalType": "uint256[]",
          "name": "ids",
          "type": "uint256[]"
        },
        {
          "indexed": false,
          "internalType": "uint256[]",
          "name": "values",
          "type": "uint256[]"
        }
      ],
      "name": "TransferBatch",
      "type": "event"
    },
    {
      "anonymous": false,
      "inputs": [
        {
          "indexed": true,
          "internalType": "address",
          "name": "operator",
          "type": "address"
        },
        {
          "indexed": true,
          "internalType": "address",
          "name": "from",
          "type": "address"
        },
        {
          "indexed": true,
          "internalType": "address",
          "name": "to",
          "type": "address"
        },
        {
          "indexed": false,
          "internalType": "uint256",
          "name": "id",
          "type": "uint256"
        },
        {
          "indexed": false,
          "internalType": "uint256",
          "name": "value",
          "type": "uint256"
        }
      ],
      "name": "TransferSingle",
      "type": "event"
    },
    {
      "anonymous": false,
      "inputs": [
        {
          "indexed": false,
          "internalType": "string",
          "name": "value",
          "type": "string"
        },
        {
          "indexed": true,
          "internalType": "uint256",
          "name": "id",
          "type": "uint256"
        }
      ],
      "name": "URI",
      "type": "event"
    },
    {
      "inputs": [],
      "name": "DEFAULT_ADMIN_ROLE",
      "outputs": [
        {
          "internalType": "bytes32",
          "name": "",
          "type": "bytes32"
        }
      ],
      "stateMutability": "view",
      "type": "function"
    },
    {
      "inputs": [],
      "name": "NFT_MINTER_ROLE",
      "outputs": [
        {
          "internalType": "bytes32",
          "name": "",
          "type": "bytes32"
        }
      ],
      "stateMutability": "view",
      "type": "function"
    },
    {
      "inputs": [
        {
          "internalType": "address",
          "name": "account",
          "type": "address"
        },
        {
          "internalType": "uint256",
          "name": "id",
          "type": "uint256"
        }
      ],
      "name": "balanceOf",
      "outputs": [
        {
          "internalType": "uint256",
          "name": "",
          "type": "uint256"
        }
      ],
      "stateMutability": "view",
      "type": "function"
    },
    {
      "inputs": [
        {
          "internalType": "address[]",
          "name": "accounts",
          "type": "address[]"
        },
        {
          "internalType": "uint256[]",
          "name": "ids",
          "type": "uint256[]"
        }
      ],
      "name": "balanceOfBatch",
      "outputs": [
        {
          "internalType": "uint256[]",
          "name": "",
          "type": "uint256[]"
        }
      ],
      "stateMutability": "view",
      "type": "function"
    },
    {
      "inputs": [
        {
          "internalType": "address",
          "name": "account",
          "type": "address"
        },
        {
          "internalType": "uint256",
          "name": "cid",
          "type": "uint256"
        }
      ],
      "name": "burn",
      "outputs": [],
      "stateMutability": "nonpayable",
      "type": "function"
    },
    {
      "inputs": [
        {
          "internalType": "address",
          "name": "account",
          "type": "address"
        },
        {
          "internalType": "uint256[]",
          "name": "ids",
          "type": "uint256[]"
        },
        {
          "internalType": "uint256[]",
          "name": "amounts",
          "type": "uint256[]"
        }
      ],
      "name": "burnBatch",
      "outputs": [],
      "stateMutability": "nonpayable",
      "type": "function"
    },
    {
      "inputs": [
        {
          "internalType": "bytes32",
          "name": "role",
          "type": "bytes32"
        }
      ],
      "name": "getRoleAdmin",
      "outputs": [
        {
          "internalType": "bytes32",
          "name": "",
          "type": "bytes32"
        }
      ],
      "stateMutability": "view",
      "type": "function"
    },
    {
      "inputs": [
        {
          "internalType": "bytes32",
          "name": "role",
          "type": "bytes32"
        },
        {
          "internalType": "address",
          "name": "account",
          "type": "address"
        }
      ],
      "name": "grantRole",
      "outputs": [],
      "stateMutability": "nonpayable",
      "type": "function"
    },
    {
      "inputs": [
        {
          "internalType": "bytes32",
          "name": "role",
          "type": "bytes32"
        },
        {
          "internalType": "address",
          "name": "account",
          "type": "address"
        }
      ],
      "name": "hasRole",
      "outputs": [
        {
          "internalType": "bool",
          "name": "",
          "type": "bool"
        }
      ],
      "stateMutability": "view",
      "type": "function"
    },
    {
      "inputs": [
        {
          "internalType": "uint256",
          "name": "cid",
          "type": "uint256"
        }
      ],
      "name": "holderOf",
      "outputs": [
        {
          "internalType": "address",
          "name": "",
          "type": "address"
        }
      ],
      "stateMutability": "view",
      "type": "function"
    },
    {
      "inputs": [],
      "name": "initialize",
      "outputs": [],
      "stateMutability": "nonpayable",
      "type": "function"
    },
    {
      "inputs": [
        {
          "internalType": "address",
          "name": "account",
          "type": "address"
        },
        {
          "internalType": "address",
          "name": "operator",
          "type": "address"
        }
      ],
      "name": "isApprovedForAll",
      "outputs": [
        {
          "internalType": "bool",
          "name": "",
          "type": "bool"
        }
      ],
      "stateMutability": "view",
      "type": "function"
    },
    {
      "inputs": [
        {
          "internalType": "address",
          "name": "account",
          "type": "address"
        },
        {
          "internalType": "uint256",
          "name": "cid",
          "type": "uint256"
        }
      ],
      "name": "mint",
      "outputs": [],
      "stateMutability": "nonpayable",
      "type": "function"
    },
    {
      "inputs": [
        {
          "internalType": "address",
          "name": "to",
          "type": "address"
        },
        {
          "internalType": "uint256[]",
          "name": "cids",
          "type": "uint256[]"
        }
      ],
      "name": "mintBatch",
      "outputs": [],
      "stateMutability": "nonpayable",
      "type": "function"
    },
    {
      "inputs": [
        {
          "internalType": "bytes32",
          "name": "role",
          "type": "bytes32"
        },
        {
          "internalType": "address",
          "name": "account",
          "type": "address"
        }
      ],
      "name": "renounceRole",
      "outputs": [],
      "stateMutability": "nonpayable",
      "type": "function"
    },
    {
      "inputs": [
        {
          "internalType": "bytes32",
          "name": "role",
          "type": "bytes32"
        },
        {
          "internalType": "address",
          "name": "account",
          "type": "address"
        }
      ],
      "name": "revokeRole",
      "outputs": [],
      "stateMutability": "nonpayable",
      "type": "function"
    },
    {
      "inputs": [
        {
          "internalType": "address",
          "name": "from",
          "type": "address"
        },
        {
          "internalType": "address",
          "name": "to",
          "type": "address"
        },
        {
          "internalType": "uint256[]",
          "name": "ids",
          "type": "uint256[]"
        },
        {
          "internalType": "uint256[]",
          "name": "amounts",
          "type": "uint256[]"
        },
        {
          "internalType": "bytes",
          "name": "data",
          "type": "bytes"
        }
      ],
      "name": "safeBatchTransferFrom",
      "outputs": [],
      "stateMutability": "nonpayable",
      "type": "function"
    },
    {
      "inputs": [
        {
          "internalType": "address",
          "name": "from",
          "type": "address"
        },
        {
          "internalType": "address",
          "name": "to",
          "type": "address"
        },
        {
          "internalType": "uint256",
          "name": "id",
          "type": "uint256"
        },
        {
          "internalType": "uint256",
          "name": "amount",
          "type": "uint256"
        },
        {
          "internalType": "bytes",
          "name": "data",
          "type": "bytes"
        }
      ],
      "name": "safeTransferFrom",
      "outputs": [],
      "stateMutability": "nonpayable",
      "type": "function"
    },
    {
      "inputs": [
        {
          "internalType": "contract IPurchaseGateway",
          "name": "oracle",
          "type": "address"
        },
        {
          "internalType": "address",
          "name": "_buyer",
          "type": "address"
        },
        {
          "internalType": "uint256",
          "name": "cid",
          "type": "uint256"
        }
      ],
      "name": "safeTransferTo",
      "outputs": [],
      "stateMutability": "payable",
      "type": "function"
    },
    {
      "inputs": [
        {
          "internalType": "address",
          "name": "operator",
          "type": "address"
        },
        {
          "internalType": "bool",
          "name": "approved",
          "type": "bool"
        }
      ],
      "name": "setApprovalForAll",
      "outputs": [],
      "stateMutability": "nonpayable",
      "type": "function"
    },
    {
      "inputs": [
        {
          "internalType": "string",
          "name": "newuri",
          "type": "string"
        }
      ],
      "name": "setURI",
      "outputs": [],
      "stateMutability": "nonpayable",
      "type": "function"
    },
    {
      "inputs": [
        {
          "internalType": "bytes4",
          "name": "interfaceId",
          "type": "bytes4"
        }
      ],
      "name": "supportsInterface",
      "outputs": [
        {
          "internalType": "bool",
          "name": "",
          "type": "bool"
        }
      ],
      "stateMutability": "view",
      "type": "function"
    },
    {
      "inputs": [
        {
          "internalType": "address",
          "name": "from",
          "type": "address"
        },
        {
          "internalType": "address",
          "name": "to",
          "type": "address"
        },
        {
          "internalType": "uint256",
          "name": "cid",
          "type": "uint256"
        }
      ],
      "name": "transfer",
      "outputs": [],
      "stateMutability": "nonpayable",
      "type": "function"
    },
    {
      "inputs": [],
      "name": "upgrade",
      "outputs": [],
      "stateMutability": "nonpayable",
      "type": "function"
    },
    {
      "inputs": [
        {
          "internalType": "uint256",
          "name": "_tokenId",
          "type": "uint256"
        }
      ],
      "name": "uri",
      "outputs": [
        {
          "internalType": "string",
          "name": "",
          "type": "string"
        }
      ],
      "stateMutability": "view",
      "type": "function"
    },
    {
      "inputs": [],
      "name": "version",
      "outputs": [
        {
          "internalType": "uint32",
          "name": "",
          "type": "uint32"
        }
      ],
      "stateMutability": "view",
      "type": "function"
    }
  ],
  "bytecode": "0x608060405234801561001057600080fd5b50615a7480620000216000396000f3fe6080604052600436106101805760003560e01c806375ceb341116100d1578063beabacc81161008a578063d55ec69711610064578063d55ec6971461056a578063dbacc23714610581578063e985e9c5146105be578063f242432a146105fb57610180565b8063beabacc8146104ed578063c0833ee414610516578063d547741f1461054157610180565b806375ceb341146103f35780638129fc1c1461041c57806391d14854146104335780639dc29fac14610470578063a217fddf14610499578063a22cb465146104c457610180565b80632eb2c2d61161013e57806340c10f191161011857806340c10f19146103395780634e1273f41461036257806354fd4d501461039f5780636b20c454146103ca57610180565b80632eb2c2d6146102be5780632f2ff15d146102e757806336568abe1461031057610180565b8062fdd58e1461018557806301ffc9a7146101c257806302fe5305146101ff5780630e89341c146102285780631b7684dc14610265578063248a9ca314610281575b600080fd5b34801561019157600080fd5b506101ac60048036038101906101a79190613ec7565b610624565b6040516101b99190614c7e565b60405180910390f35b3480156101ce57600080fd5b506101e960048036038101906101e49190613fec565b6106ee565b6040516101f691906148e6565b60405180910390f35b34801561020b57600080fd5b5061022660048036038101906102219190614099565b610768565b005b34801561023457600080fd5b5061024f600480360381019061024a91906140e2565b6107c0565b60405161025c919061491c565b60405180910390f35b61027f600480360381019061027a9190614046565b6107f6565b005b34801561028d57600080fd5b506102a860048036038101906102a39190613f7f565b610c08565b6040516102b59190614901565b60405180910390f35b3480156102ca57600080fd5b506102e560048036038101906102e09190613be7565b610c28565b005b3480156102f357600080fd5b5061030e60048036038101906103099190613fac565b610cc9565b005b34801561031c57600080fd5b5061033760048036038101906103329190613fac565b610cf2565b005b34801561034557600080fd5b50610360600480360381019061035b9190613ec7565b610d75565b005b34801561036e57600080fd5b5061038960048036038101906103849190613f07565b610ef5565b604051610396919061488d565b60405180910390f35b3480156103ab57600080fd5b506103b461100e565b6040516103c19190614cc2565b60405180910390f35b3480156103d657600080fd5b506103f160048036038101906103ec9190613dfc565b611024565b005b3480156103ff57600080fd5b5061041a60048036038101906104159190613da0565b611080565b005b34801561042857600080fd5b5061043161134c565b005b34801561043f57600080fd5b5061045a60048036038101906104559190613fac565b61149a565b60405161046791906148e6565b60405180910390f35b34801561047c57600080fd5b5061049760048036038101906104929190613ec7565b611505565b005b3480156104a557600080fd5b506104ae6115b7565b6040516104bb9190614901565b60405180910390f35b3480156104d057600080fd5b506104eb60048036038101906104e69190613e87565b6115be565b005b3480156104f957600080fd5b50610514600480360381019061050f9190613cb6565b61173f565b005b34801561052257600080fd5b5061052b6117dc565b6040516105389190614901565b60405180910390f35b34801561054d57600080fd5b5061056860048036038101906105639190613fac565b611800565b005b34801561057657600080fd5b5061057f611829565b005b34801561058d57600080fd5b506105a860048036038101906105a391906140e2565b6118b8565b6040516105b591906147b0565b60405180910390f35b3480156105ca57600080fd5b506105e560048036038101906105e09190613ba7565b6118f5565b6040516105f291906148e6565b60405180910390f35b34801561060757600080fd5b50610622600480360381019061061d9190613d09565b611989565b005b60008073ffffffffffffffffffffffffffffffffffffffff168373ffffffffffffffffffffffffffffffffffffffff161415610695576040517f08c379a000000000000000000000000000000000000000000000000000000000815260040161068c906149be565b60405180910390fd5b6065600083815260200190815260200160002060008473ffffffffffffffffffffffffffffffffffffffff1673ffffffffffffffffffffffffffffffffffffffff16815260200190815260200160002054905092915050565b60007f1b7684dc000000000000000000000000000000000000000000000000000000007bffffffffffffffffffffffffffffffffffffffffffffffffffffffff1916827bffffffffffffffffffffffffffffffffffffffffffffffffffffffff19161480610761575061076082611a2a565b5b9050919050565b6107756000801b3361149a565b6107b4576040517f08c379a00000000000000000000000000000000000000000000000000000000081526004016107ab90614a5e565b60405180910390fd5b6107bd81611aa4565b50565b6060806107cc83611abe565b9050806040516020016107df9190614734565b604051602081830303815290604052915050919050565b6000808473ffffffffffffffffffffffffffffffffffffffff16836040516024016108219190614c7e565b6040516020818303038152906040527f386b78df000000000000000000000000000000000000000000000000000000007bffffffffffffffffffffffffffffffffffffffffffffffffffffffff19166020820180517bffffffffffffffffffffffffffffffffffffffffffffffffffffffff83818316178352505050506040516108ab919061471d565b6000604051808303816000865af19150503d80600081146108e8576040519150601f19603f3d011682016040523d82523d6000602084013e6108ed565b606091505b509150915081610932576040517f08c379a000000000000000000000000000000000000000000000000000000000815260040161092990614a3e565b60405180910390fd5b600060c9600085815260200190815260200160002060009054906101000a900473ffffffffffffffffffffffffffffffffffffffff169050600082806020019051810190610980919061410f565b9050600081116109c5576040517f08c379a00000000000000000000000000000000000000000000000000000000081526004016109bc90614b3e565b60405180910390fd5b6000610a0460c9600088815260200190815260200160002060009054906101000a900473ffffffffffffffffffffffffffffffffffffffff1687610624565b11610a44576040517f08c379a0000000000000000000000000000000000000000000000000000000008152600401610a3b90614b1e565b60405180910390fd5b80341015610a87576040517f08c379a0000000000000000000000000000000000000000000000000000000008152600401610a7e90614b5e565b60405180910390fd5b60008273ffffffffffffffffffffffffffffffffffffffff1682604051610aad90614761565b60006040518083038185875af1925050503d8060008114610aea576040519150601f19603f3d011682016040523d82523d6000602084013e610aef565b606091505b5050905080610b33576040517f08c379a0000000000000000000000000000000000000000000000000000000008152600401610b2a90614a1e565b60405180910390fd5b610bac60c9600088815260200190815260200160002060009054906101000a900473ffffffffffffffffffffffffffffffffffffffff168888600160ff166040518060400160405280600381526020017f3078300000000000000000000000000000000000000000000000000000000000815250611c33565b8660c9600088815260200190815260200160002060006101000a81548173ffffffffffffffffffffffffffffffffffffffff021916908373ffffffffffffffffffffffffffffffffffffffff1602179055505050505050505050565b600060976000838152602001908152602001600020600101549050919050565b610c30611eb8565b73ffffffffffffffffffffffffffffffffffffffff168573ffffffffffffffffffffffffffffffffffffffff161480610c765750610c7585610c70611eb8565b6118f5565b5b610cb5576040517f08c379a0000000000000000000000000000000000000000000000000000000008152600401610cac90614a9e565b60405180910390fd5b610cc28585858585611ec0565b5050505050565b610cd282610c08565b610ce381610cde611eb8565b6121d7565b610ced8383612274565b505050565b610cfa611eb8565b73ffffffffffffffffffffffffffffffffffffffff168173ffffffffffffffffffffffffffffffffffffffff1614610d67576040517f08c379a0000000000000000000000000000000000000000000000000000000008152600401610d5e90614c5e565b60405180910390fd5b610d718282612355565b5050565b600073ffffffffffffffffffffffffffffffffffffffff1660c9600083815260200190815260200160002060009054906101000a900473ffffffffffffffffffffffffffffffffffffffff1673ffffffffffffffffffffffffffffffffffffffff1614610e17576040517f08c379a0000000000000000000000000000000000000000000000000000000008152600401610e0e9061499e565b60405180910390fd5b610e417f3a5b873628a2c49bf313473942acc8932f6f84c76b74bf3db0e4d8b51277a6233361149a565b610e80576040517f08c379a0000000000000000000000000000000000000000000000000000000008152600401610e7790614b9e565b60405180910390fd5b8160c9600083815260200190815260200160002060006101000a81548173ffffffffffffffffffffffffffffffffffffffff021916908373ffffffffffffffffffffffffffffffffffffffff160217905550610ef18282600160ff1660405180602001604052806000815250612437565b5050565b60608151835114610f3b576040517f08c379a0000000000000000000000000000000000000000000000000000000008152600401610f3290614bfe565b60405180910390fd5b6000835167ffffffffffffffff811115610f5857610f57615165565b5b604051908082528060200260200182016040528015610f865781602001602082028036833780820191505090505b50905060005b845181101561100357610fd3858281518110610fab57610faa615136565b5b6020026020010151858381518110610fc657610fc5615136565b5b6020026020010151610624565b828281518110610fe657610fe5615136565b5b60200260200101818152505080610ffc90615062565b9050610f8c565b508091505092915050565b60ca60009054906101000a900463ffffffff1681565b6110316000801b3361149a565b611070576040517f08c379a000000000000000000000000000000000000000000000000000000000815260040161106790614b7e565b60405180910390fd5b61107b8383836125ce565b505050565b6110aa7f3a5b873628a2c49bf313473942acc8932f6f84c76b74bf3db0e4d8b51277a6233361149a565b6110e9576040517f08c379a00000000000000000000000000000000000000000000000000000000081526004016110e090614b9e565b60405180910390fd5b6000815167ffffffffffffffff81111561110657611105615165565b5b6040519080825280602002602001820160405280156111345781602001602082028036833780820191505090505b5090506000825167ffffffffffffffff81111561115457611153615165565b5b6040519080825280602002602001820160405280156111825781602001602082028036833780820191505090505b50905060005b835181101561132a578381815181106111a4576111a3615136565b5b60200260200101518382815181106111bf576111be615136565b5b602002602001018181525050600073ffffffffffffffffffffffffffffffffffffffff1660c960008584815181106111fa576111f9615136565b5b6020026020010151815260200190815260200160002060009054906101000a900473ffffffffffffffffffffffffffffffffffffffff1673ffffffffffffffffffffffffffffffffffffffff1614611287576040517f08c379a000000000000000000000000000000000000000000000000000000000815260040161127e9061499e565b60405180910390fd5b8460c9600085848151811061129f5761129e615136565b5b6020026020010151815260200190815260200160002060006101000a81548173ffffffffffffffffffffffffffffffffffffffff021916908373ffffffffffffffffffffffffffffffffffffffff160217905550600160ff1682828151811061130b5761130a615136565b5b602002602001018181525050808061132290615062565b915050611188565b5061134684838360405180602001604052806000815250612881565b50505050565b600060019054906101000a900460ff1680611372575060008054906101000a900460ff16155b6113b1576040517f08c379a00000000000000000000000000000000000000000000000000000000081526004016113a890614abe565b60405180910390fd5b60008060019054906101000a900460ff161590508015611401576001600060016101000a81548160ff02191690831515021790555060016000806101000a81548160ff0219169083151502179055505b61143f6040518060400160405280601881526020017f697066733a2f2f66307b69647d2f696e6465782e6a736f6e0000000000000000815250612aa0565b61144c6000801b33612b93565b6114767f3a5b873628a2c49bf313473942acc8932f6f84c76b74bf3db0e4d8b51277a62333612b93565b80156114975760008060016101000a81548160ff0219169083151502179055505b50565b60006097600084815260200190815260200160002060000160008373ffffffffffffffffffffffffffffffffffffffff1673ffffffffffffffffffffffffffffffffffffffff16815260200190815260200160002060009054906101000a900460ff16905092915050565b6115126000801b3361149a565b611551576040517f08c379a000000000000000000000000000000000000000000000000000000000815260040161154890614b7e565b60405180910390fd5b6115608282600160ff16612ba1565b600060c9600083815260200190815260200160002060006101000a81548173ffffffffffffffffffffffffffffffffffffffff021916908373ffffffffffffffffffffffffffffffffffffffff1602179055505050565b6000801b81565b8173ffffffffffffffffffffffffffffffffffffffff166115dd611eb8565b73ffffffffffffffffffffffffffffffffffffffff161415611634576040517f08c379a000000000000000000000000000000000000000000000000000000000815260040161162b90614bbe565b60405180910390fd5b8060666000611641611eb8565b73ffffffffffffffffffffffffffffffffffffffff1673ffffffffffffffffffffffffffffffffffffffff16815260200190815260200160002060008473ffffffffffffffffffffffffffffffffffffffff1673ffffffffffffffffffffffffffffffffffffffff16815260200190815260200160002060006101000a81548160ff0219169083151502179055508173ffffffffffffffffffffffffffffffffffffffff166116ee611eb8565b73ffffffffffffffffffffffffffffffffffffffff167f17307eab39ab6107e8899845ad3d59bd9653f200f220920489ca2b5937696c318360405161173391906148e6565b60405180910390a35050565b611785838383600160ff166040518060400160405280600381526020017f3078300000000000000000000000000000000000000000000000000000000000815250611989565b8160c9600083815260200190815260200160002060006101000a81548173ffffffffffffffffffffffffffffffffffffffff021916908373ffffffffffffffffffffffffffffffffffffffff160217905550505050565b7f3a5b873628a2c49bf313473942acc8932f6f84c76b74bf3db0e4d8b51277a62381565b61180982610c08565b61181a81611815611eb8565b6121d7565b6118248383612355565b505050565b6118366000801b3361149a565b611875576040517f08c379a000000000000000000000000000000000000000000000000000000000815260040161186c90614bde565b60405180910390fd5b60ca600081819054906101000a900463ffffffff1680929190611897906150ab565b91906101000a81548163ffffffff021916908363ffffffff16021790555050565b600060c9600083815260200190815260200160002060009054906101000a900473ffffffffffffffffffffffffffffffffffffffff169050919050565b6000606660008473ffffffffffffffffffffffffffffffffffffffff1673ffffffffffffffffffffffffffffffffffffffff16815260200190815260200160002060008373ffffffffffffffffffffffffffffffffffffffff1673ffffffffffffffffffffffffffffffffffffffff16815260200190815260200160002060009054906101000a900460ff16905092915050565b611991611eb8565b73ffffffffffffffffffffffffffffffffffffffff168573ffffffffffffffffffffffffffffffffffffffff1614806119d757506119d6856119d1611eb8565b6118f5565b5b611a16576040517f08c379a0000000000000000000000000000000000000000000000000000000008152600401611a0d906149fe565b60405180910390fd5b611a238585858585611c33565b5050505050565b60007f7965db0b000000000000000000000000000000000000000000000000000000007bffffffffffffffffffffffffffffffffffffffffffffffffffffffff1916827bffffffffffffffffffffffffffffffffffffffffffffffffffffffff19161480611a9d5750611a9c82612dc0565b5b9050919050565b8060679080519060200190611aba929190613840565b5050565b60606000821415611b06576040518060400160405280600181526020017f30000000000000000000000000000000000000000000000000000000000000008152509050611c2e565b600082905060005b60008214611b30578080611b2190615062565b915050600482901c9150611b0e565b6000600f905060008267ffffffffffffffff811115611b5257611b51615165565b5b6040519080825280601f01601f191660200182016040528015611b845781602001600182028036833780820191505090505b50905060008390505b60008714611c25576000838816905060098111611bb957806030611bb19190614e43565b60f81b611bca565b806037611bc69190614e43565b60f81b5b8383611bd590614fd5565b93508381518110611be957611be8615136565b5b60200101907effffffffffffffffffffffffffffffffffffffffffffffffffffffffffffff1916908160001a905350600488901c975050611b8d565b81955050505050505b919050565b600073ffffffffffffffffffffffffffffffffffffffff168473ffffffffffffffffffffffffffffffffffffffff161415611ca3576040517f08c379a0000000000000000000000000000000000000000000000000000000008152600401611c9a90614a7e565b60405180910390fd5b6000611cad611eb8565b9050611ccd818787611cbe88612ea2565b611cc788612ea2565b87612f1c565b60006065600086815260200190815260200160002060008873ffffffffffffffffffffffffffffffffffffffff1673ffffffffffffffffffffffffffffffffffffffff16815260200190815260200160002054905083811015611d65576040517f08c379a0000000000000000000000000000000000000000000000000000000008152600401611d5c90614afe565b60405180910390fd5b8381036065600087815260200190815260200160002060008973ffffffffffffffffffffffffffffffffffffffff1673ffffffffffffffffffffffffffffffffffffffff16815260200190815260200160002081905550836065600087815260200190815260200160002060008873ffffffffffffffffffffffffffffffffffffffff1673ffffffffffffffffffffffffffffffffffffffff1681526020019081526020016000206000828254611e1c9190614e43565b925050819055508573ffffffffffffffffffffffffffffffffffffffff168773ffffffffffffffffffffffffffffffffffffffff168373ffffffffffffffffffffffffffffffffffffffff167fc3d58168c5ae7397731d063d5bbf3d657854427343f4c083240f7aacaa2d0f628888604051611e99929190614c99565b60405180910390a4611eaf828888888888612f24565b50505050505050565b600033905090565b8151835114611f04576040517f08c379a0000000000000000000000000000000000000000000000000000000008152600401611efb90614c1e565b60405180910390fd5b600073ffffffffffffffffffffffffffffffffffffffff168473ffffffffffffffffffffffffffffffffffffffff161415611f74576040517f08c379a0000000000000000000000000000000000000000000000000000000008152600401611f6b90614a7e565b60405180910390fd5b6000611f7e611eb8565b9050611f8e818787878787612f1c565b60005b8451811015612142576000858281518110611faf57611fae615136565b5b602002602001015190506000858381518110611fce57611fcd615136565b5b6020026020010151905060006065600084815260200190815260200160002060008b73ffffffffffffffffffffffffffffffffffffffff1673ffffffffffffffffffffffffffffffffffffffff16815260200190815260200160002054905081811015612070576040517f08c379a000000000000000000000000000000000000000000000000000000000815260040161206790614afe565b60405180910390fd5b8181036065600085815260200190815260200160002060008c73ffffffffffffffffffffffffffffffffffffffff1673ffffffffffffffffffffffffffffffffffffffff16815260200190815260200160002081905550816065600085815260200190815260200160002060008b73ffffffffffffffffffffffffffffffffffffffff1673ffffffffffffffffffffffffffffffffffffffff16815260200190815260200160002060008282546121279190614e43565b925050819055505050508061213b90615062565b9050611f91565b508473ffffffffffffffffffffffffffffffffffffffff168673ffffffffffffffffffffffffffffffffffffffff168273ffffffffffffffffffffffffffffffffffffffff167f4a39dc06d4c0dbc64b70af90fd698a233a518aa5d07e595d983b8c0526c8f7fb87876040516121b99291906148af565b60405180910390a46121cf81878787878761310b565b505050505050565b6121e1828261149a565b612270576122068173ffffffffffffffffffffffffffffffffffffffff1660146132f2565b6122148360001c60206132f2565b604051602001612225929190614776565b6040516020818303038152906040526040517f08c379a0000000000000000000000000000000000000000000000000000000008152600401612267919061491c565b60405180910390fd5b5050565b61227e828261149a565b6123515760016097600084815260200190815260200160002060000160008373ffffffffffffffffffffffffffffffffffffffff1673ffffffffffffffffffffffffffffffffffffffff16815260200190815260200160002060006101000a81548160ff0219169083151502179055506122f6611eb8565b73ffffffffffffffffffffffffffffffffffffffff168173ffffffffffffffffffffffffffffffffffffffff16837f2f8788117e7eff1d82e926ec794901d17c78024a50270940304540a733656f0d60405160405180910390a45b5050565b61235f828261149a565b156124335760006097600084815260200190815260200160002060000160008373ffffffffffffffffffffffffffffffffffffffff1673ffffffffffffffffffffffffffffffffffffffff16815260200190815260200160002060006101000a81548160ff0219169083151502179055506123d8611eb8565b73ffffffffffffffffffffffffffffffffffffffff168173ffffffffffffffffffffffffffffffffffffffff16837ff6391f5c32d9c69d2a47ea670b442974b53935d1edc7fd64eb21e047a839171b60405160405180910390a45b5050565b600073ffffffffffffffffffffffffffffffffffffffff168473ffffffffffffffffffffffffffffffffffffffff1614156124a7576040517f08c379a000000000000000000000000000000000000000000000000000000000815260040161249e90614c3e565b60405180910390fd5b60006124b1611eb8565b90506124d2816000876124c388612ea2565b6124cc88612ea2565b87612f1c565b826065600086815260200190815260200160002060008773ffffffffffffffffffffffffffffffffffffffff1673ffffffffffffffffffffffffffffffffffffffff16815260200190815260200160002060008282546125329190614e43565b925050819055508473ffffffffffffffffffffffffffffffffffffffff16600073ffffffffffffffffffffffffffffffffffffffff168273ffffffffffffffffffffffffffffffffffffffff167fc3d58168c5ae7397731d063d5bbf3d657854427343f4c083240f7aacaa2d0f6287876040516125b0929190614c99565b60405180910390a46125c781600087878787612f24565b5050505050565b600073ffffffffffffffffffffffffffffffffffffffff168373ffffffffffffffffffffffffffffffffffffffff16141561263e576040517f08c379a000000000000000000000000000000000000000000000000000000000815260040161263590614ade565b60405180910390fd5b8051825114612682576040517f08c379a000000000000000000000000000000000000000000000000000000000815260040161267990614c1e565b60405180910390fd5b600061268c611eb8565b90506126ac81856000868660405180602001604052806000815250612f1c565b60005b83518110156127fb5760008482815181106126cd576126cc615136565b5b6020026020010151905060008483815181106126ec576126eb615136565b5b6020026020010151905060006065600084815260200190815260200160002060008973ffffffffffffffffffffffffffffffffffffffff1673ffffffffffffffffffffffffffffffffffffffff1681526020019081526020016000205490508181101561278e576040517f08c379a0000000000000000000000000000000000000000000000000000000008152600401612785906149de565b60405180910390fd5b8181036065600085815260200190815260200160002060008a73ffffffffffffffffffffffffffffffffffffffff1673ffffffffffffffffffffffffffffffffffffffff1681526020019081526020016000208190555050505080806127f390615062565b9150506126af565b50600073ffffffffffffffffffffffffffffffffffffffff168473ffffffffffffffffffffffffffffffffffffffff168273ffffffffffffffffffffffffffffffffffffffff167f4a39dc06d4c0dbc64b70af90fd698a233a518aa5d07e595d983b8c0526c8f7fb86866040516128739291906148af565b60405180910390a450505050565b600073ffffffffffffffffffffffffffffffffffffffff168473ffffffffffffffffffffffffffffffffffffffff1614156128f1576040517f08c379a00000000000000000000000000000000000000000000000000000000081526004016128e890614c3e565b60405180910390fd5b8151835114612935576040517f08c379a000000000000000000000000000000000000000000000000000000000815260040161292c90614c1e565b60405180910390fd5b600061293f611eb8565b905061295081600087878787612f1c565b60005b8451811015612a0a5783818151811061296f5761296e615136565b5b60200260200101516065600087848151811061298e5761298d615136565b5b6020026020010151815260200190815260200160002060008873ffffffffffffffffffffffffffffffffffffffff1673ffffffffffffffffffffffffffffffffffffffff16815260200190815260200160002060008282546129f09190614e43565b925050819055508080612a0290615062565b915050612953565b508473ffffffffffffffffffffffffffffffffffffffff16600073ffffffffffffffffffffffffffffffffffffffff168273ffffffffffffffffffffffffffffffffffffffff167f4a39dc06d4c0dbc64b70af90fd698a233a518aa5d07e595d983b8c0526c8f7fb8787604051612a829291906148af565b60405180910390a4612a998160008787878761310b565b5050505050565b600060019054906101000a900460ff1680612ac6575060008054906101000a900460ff16155b612b05576040517f08c379a0000000000000000000000000000000000000000000000000000000008152600401612afc90614abe565b60405180910390fd5b60008060019054906101000a900460ff161590508015612b55576001600060016101000a81548160ff02191690831515021790555060016000806101000a81548160ff0219169083151502179055505b612b5d61352e565b612b65613607565b612b6e826136e0565b8015612b8f5760008060016101000a81548160ff0219169083151502179055505b5050565b612b9d8282612274565b5050565b600073ffffffffffffffffffffffffffffffffffffffff168373ffffffffffffffffffffffffffffffffffffffff161415612c11576040517f08c379a0000000000000000000000000000000000000000000000000000000008152600401612c0890614ade565b60405180910390fd5b6000612c1b611eb8565b9050612c4b81856000612c2d87612ea2565b612c3687612ea2565b60405180602001604052806000815250612f1c565b60006065600085815260200190815260200160002060008673ffffffffffffffffffffffffffffffffffffffff1673ffffffffffffffffffffffffffffffffffffffff16815260200190815260200160002054905082811015612ce3576040517f08c379a0000000000000000000000000000000000000000000000000000000008152600401612cda906149de565b60405180910390fd5b8281036065600086815260200190815260200160002060008773ffffffffffffffffffffffffffffffffffffffff1673ffffffffffffffffffffffffffffffffffffffff16815260200190815260200160002081905550600073ffffffffffffffffffffffffffffffffffffffff168573ffffffffffffffffffffffffffffffffffffffff168373ffffffffffffffffffffffffffffffffffffffff167fc3d58168c5ae7397731d063d5bbf3d657854427343f4c083240f7aacaa2d0f628787604051612db1929190614c99565b60405180910390a45050505050565b60007fd9b67a26000000000000000000000000000000000000000000000000000000007bffffffffffffffffffffffffffffffffffffffffffffffffffffffff1916827bffffffffffffffffffffffffffffffffffffffffffffffffffffffff19161480612e8b57507f0e89341c000000000000000000000000000000000000000000000000000000007bffffffffffffffffffffffffffffffffffffffffffffffffffffffff1916827bffffffffffffffffffffffffffffffffffffffffffffffffffffffff1916145b80612e9b5750612e9a826137c3565b5b9050919050565b60606000600167ffffffffffffffff811115612ec157612ec0615165565b5b604051908082528060200260200182016040528015612eef5781602001602082028036833780820191505090505b5090508281600081518110612f0757612f06615136565b5b60200260200101818152505080915050919050565b505050505050565b612f438473ffffffffffffffffffffffffffffffffffffffff1661382d565b15613103578373ffffffffffffffffffffffffffffffffffffffff1663f23a6e6187878686866040518663ffffffff1660e01b8152600401612f89959493929190614833565b602060405180830381600087803b158015612fa357600080fd5b505af1925050508015612fd457506040513d601f19601f82011682018060405250810190612fd19190614019565b60015b61307a57612fe0615194565b806308c379a0141561303d5750612ff561591e565b80613000575061303f565b806040517f08c379a0000000000000000000000000000000000000000000000000000000008152600401613034919061491c565b60405180910390fd5b505b6040517f08c379a00000000000000000000000000000000000000000000000000000000081526004016130719061493e565b60405180910390fd5b63f23a6e6160e01b7bffffffffffffffffffffffffffffffffffffffffffffffffffffffff1916817bffffffffffffffffffffffffffffffffffffffffffffffffffffffff191614613101576040517f08c379a00000000000000000000000000000000000000000000000000000000081526004016130f89061497e565b60405180910390fd5b505b505050505050565b61312a8473ffffffffffffffffffffffffffffffffffffffff1661382d565b156132ea578373ffffffffffffffffffffffffffffffffffffffff1663bc197c8187878686866040518663ffffffff1660e01b81526004016131709594939291906147cb565b602060405180830381600087803b15801561318a57600080fd5b505af19250505080156131bb57506040513d601f19601f820116820180604052508101906131b89190614019565b60015b613261576131c7615194565b806308c379a0141561322457506131dc61591e565b806131e75750613226565b806040517f08c379a000000000000000000000000000000000000000000000000000000000815260040161321b919061491c565b60405180910390fd5b505b6040517f08c379a00000000000000000000000000000000000000000000000000000000081526004016132589061493e565b60405180910390fd5b63bc197c8160e01b7bffffffffffffffffffffffffffffffffffffffffffffffffffffffff1916817bffffffffffffffffffffffffffffffffffffffffffffffffffffffff1916146132e8576040517f08c379a00000000000000000000000000000000000000000000000000000000081526004016132df9061497e565b60405180910390fd5b505b505050505050565b6060600060028360026133059190614e99565b61330f9190614e43565b67ffffffffffffffff81111561332857613327615165565b5b6040519080825280601f01601f19166020018201604052801561335a5781602001600182028036833780820191505090505b5090507f30000000000000000000000000000000000000000000000000000000000000008160008151811061339257613391615136565b5b60200101907effffffffffffffffffffffffffffffffffffffffffffffffffffffffffffff1916908160001a9053507f7800000000000000000000000000000000000000000000000000000000000000816001815181106133f6576133f5615136565b5b60200101907effffffffffffffffffffffffffffffffffffffffffffffffffffffffffffff1916908160001a905350600060018460026134369190614e99565b6134409190614e43565b90505b60018111156134e0577f3031323334353637383961626364656600000000000000000000000000000000600f86166010811061348257613481615136565b5b1a60f81b82828151811061349957613498615136565b5b60200101907effffffffffffffffffffffffffffffffffffffffffffffffffffffffffffff1916908160001a905350600485901c9450806134d990614fd5565b9050613443565b5060008414613524576040517f08c379a000000000000000000000000000000000000000000000000000000000815260040161351b9061495e565b60405180910390fd5b8091505092915050565b600060019054906101000a900460ff1680613554575060008054906101000a900460ff16155b613593576040517f08c379a000000000000000000000000000000000000000000000000000000000815260040161358a90614abe565b60405180910390fd5b60008060019054906101000a900460ff1615905080156135e3576001600060016101000a81548160ff02191690831515021790555060016000806101000a81548160ff0219169083151502179055505b80156136045760008060016101000a81548160ff0219169083151502179055505b50565b600060019054906101000a900460ff168061362d575060008054906101000a900460ff16155b61366c576040517f08c379a000000000000000000000000000000000000000000000000000000000815260040161366390614abe565b60405180910390fd5b60008060019054906101000a900460ff1615905080156136bc576001600060016101000a81548160ff02191690831515021790555060016000806101000a81548160ff0219169083151502179055505b80156136dd5760008060016101000a81548160ff0219169083151502179055505b50565b600060019054906101000a900460ff1680613706575060008054906101000a900460ff16155b613745576040517f08c379a000000000000000000000000000000000000000000000000000000000815260040161373c90614abe565b60405180910390fd5b60008060019054906101000a900460ff161590508015613795576001600060016101000a81548160ff02191690831515021790555060016000806101000a81548160ff0219169083151502179055505b61379e82611aa4565b80156137bf5760008060016101000a81548160ff0219169083151502179055505b5050565b60007f01ffc9a7000000000000000000000000000000000000000000000000000000007bffffffffffffffffffffffffffffffffffffffffffffffffffffffff1916827bffffffffffffffffffffffffffffffffffffffffffffffffffffffff1916149050919050565b600080823b905060008111915050919050565b82805461384c90614fff565b90600052602060002090601f01602090048101928261386e57600085556138b5565b82601f1061388757805160ff19168380011785556138b5565b828001600101855582156138b5579182015b828111156138b4578251825591602001919060010190613899565b5b5090506138c291906138c6565b5090565b5b808211156138df5760008160009055506001016138c7565b5090565b60006138f66138f184614d02565b614cdd565b90508083825260208201905082856020860282011115613919576139186151bb565b5b60005b85811015613949578161392f8882613a47565b84526020840193506020830192505060018101905061391c565b5050509392505050565b600061396661396184614d2e565b614cdd565b90508083825260208201905082856020860282011115613989576139886151bb565b5b60005b858110156139b9578161399f8882613b7d565b84526020840193506020830192505060018101905061398c565b5050509392505050565b60006139d66139d184614d5a565b614cdd565b9050828152602081018484840111156139f2576139f16151c0565b5b6139fd848285614f93565b509392505050565b6000613a18613a1384614d8b565b614cdd565b905082815260208101848484011115613a3457613a336151c0565b5b613a3f848285614f93565b509392505050565b600081359050613a56816159b4565b92915050565b600082601f830112613a7157613a706151b6565b5b8135613a818482602086016138e3565b91505092915050565b600082601f830112613a9f57613a9e6151b6565b5b8135613aaf848260208601613953565b91505092915050565b600081359050613ac7816159cb565b92915050565b600081359050613adc816159e2565b92915050565b600081359050613af1816159f9565b92915050565b600081519050613b06816159f9565b92915050565b600082601f830112613b2157613b206151b6565b5b8135613b318482602086016139c3565b91505092915050565b600081359050613b4981615a10565b92915050565b600082601f830112613b6457613b636151b6565b5b8135613b74848260208601613a05565b91505092915050565b600081359050613b8c81615a27565b92915050565b600081519050613ba181615a27565b92915050565b60008060408385031215613bbe57613bbd6151ca565b5b6000613bcc85828601613a47565b9250506020613bdd85828601613a47565b9150509250929050565b600080600080600060a08688031215613c0357613c026151ca565b5b6000613c1188828901613a47565b9550506020613c2288828901613a47565b945050604086013567ffffffffffffffff811115613c4357613c426151c5565b5b613c4f88828901613a8a565b935050606086013567ffffffffffffffff811115613c7057613c6f6151c5565b5b613c7c88828901613a8a565b925050608086013567ffffffffffffffff811115613c9d57613c9c6151c5565b5b613ca988828901613b0c565b9150509295509295909350565b600080600060608486031215613ccf57613cce6151ca565b5b6000613cdd86828701613a47565b9350506020613cee86828701613a47565b9250506040613cff86828701613b7d565b9150509250925092565b600080600080600060a08688031215613d2557613d246151ca565b5b6000613d3388828901613a47565b9550506020613d4488828901613a47565b9450506040613d5588828901613b7d565b9350506060613d6688828901613b7d565b925050608086013567ffffffffffffffff811115613d8757613d866151c5565b5b613d9388828901613b0c565b9150509295509295909350565b60008060408385031215613db757613db66151ca565b5b6000613dc585828601613a47565b925050602083013567ffffffffffffffff811115613de657613de56151c5565b5b613df285828601613a8a565b9150509250929050565b600080600060608486031215613e1557613e146151ca565b5b6000613e2386828701613a47565b935050602084013567ffffffffffffffff811115613e4457613e436151c5565b5b613e5086828701613a8a565b925050604084013567ffffffffffffffff811115613e7157613e706151c5565b5b613e7d86828701613a8a565b9150509250925092565b60008060408385031215613e9e57613e9d6151ca565b5b6000613eac85828601613a47565b9250506020613ebd85828601613ab8565b9150509250929050565b60008060408385031215613ede57613edd6151ca565b5b6000613eec85828601613a47565b9250506020613efd85828601613b7d565b9150509250929050565b60008060408385031215613f1e57613f1d6151ca565b5b600083013567ffffffffffffffff811115613f3c57613f3b6151c5565b5b613f4885828601613a5c565b925050602083013567ffffffffffffffff811115613f6957613f686151c5565b5b613f7585828601613a8a565b9150509250929050565b600060208284031215613f9557613f946151ca565b5b6000613fa384828501613acd565b91505092915050565b60008060408385031215613fc357613fc26151ca565b5b6000613fd185828601613acd565b9250506020613fe285828601613a47565b9150509250929050565b600060208284031215614002576140016151ca565b5b600061401084828501613ae2565b91505092915050565b60006020828403121561402f5761402e6151ca565b5b600061403d84828501613af7565b91505092915050565b60008060006060848603121561405f5761405e6151ca565b5b600061406d86828701613b3a565b935050602061407e86828701613a47565b925050604061408f86828701613b7d565b9150509250925092565b6000602082840312156140af576140ae6151ca565b5b600082013567ffffffffffffffff8111156140cd576140cc6151c5565b5b6140d984828501613b4f565b91505092915050565b6000602082840312156140f8576140f76151ca565b5b600061410684828501613b7d565b91505092915050565b600060208284031215614125576141246151ca565b5b600061413384828501613b92565b91505092915050565b600061414883836146f0565b60208301905092915050565b61415d81614ef3565b82525050565b600061416e82614dcc565b6141788185614dfa565b935061418383614dbc565b8060005b838110156141b457815161419b888261413c565b97506141a683614ded565b925050600181019050614187565b5085935050505092915050565b6141ca81614f05565b82525050565b6141d981614f11565b82525050565b60006141ea82614dd7565b6141f48185614e0b565b9350614204818560208601614fa2565b61420d816151cf565b840191505092915050565b600061422382614dd7565b61422d8185614e1c565b935061423d818560208601614fa2565b80840191505092915050565b600061425482614de2565b61425e8185614e27565b935061426e818560208601614fa2565b614277816151cf565b840191505092915050565b600061428d82614de2565b6142978185614e38565b93506142a7818560208601614fa2565b80840191505092915050565b60006142c0603483614e27565b91506142cb826151ed565b604082019050919050565b60006142e3600983614e38565b91506142ee8261523c565b600982019050919050565b6000614306602083614e27565b915061431182615265565b602082019050919050565b6000614329602883614e27565b91506143348261528e565b604082019050919050565b600061434c602583614e27565b9150614357826152dd565b604082019050919050565b600061436f602b83614e27565b915061437a8261532c565b604082019050919050565b6000614392602483614e27565b915061439d8261537b565b604082019050919050565b60006143b5602983614e27565b91506143c0826153ca565b604082019050919050565b60006143d8601483614e27565b91506143e382615419565b602082019050919050565b60006143fb600b83614e38565b915061440682615442565b600b82019050919050565b600061441e601683614e27565b91506144298261546b565b602082019050919050565b6000614441601683614e27565b915061444c82615494565b602082019050919050565b6000614464602583614e27565b915061446f826154bd565b604082019050919050565b6000614487603283614e27565b91506144928261550c565b604082019050919050565b60006144aa602e83614e27565b91506144b58261555b565b604082019050919050565b60006144cd602383614e27565b91506144d8826155aa565b604082019050919050565b60006144f0602a83614e27565b91506144fb826155f9565b604082019050919050565b6000614513600e83614e27565b915061451e82615648565b602082019050919050565b6000614536601183614e27565b915061454182615671565b602082019050919050565b6000614559600e83614e27565b91506145648261569a565b602082019050919050565b600061457c601483614e27565b9150614587826156c3565b602082019050919050565b600061459f600083614e1c565b91506145aa826156ec565b600082019050919050565b60006145c2601783614e38565b91506145cd826156ef565b601782019050919050565b60006145e5601583614e27565b91506145f082615718565b602082019050919050565b6000614608602983614e27565b915061461382615741565b604082019050919050565b600061462b601a83614e27565b915061463682615790565b602082019050919050565b600061464e602983614e27565b9150614659826157b9565b604082019050919050565b6000614671602883614e27565b915061467c82615808565b604082019050919050565b6000614694602183614e27565b915061469f82615857565b604082019050919050565b60006146b7601183614e38565b91506146c2826158a6565b601182019050919050565b60006146da602f83614e27565b91506146e5826158cf565b604082019050919050565b6146f981614f79565b82525050565b61470881614f79565b82525050565b61471781614f83565b82525050565b60006147298284614218565b915081905092915050565b600061473f826142d6565b915061474b8284614282565b9150614756826143ee565b915081905092915050565b600061476c82614592565b9150819050919050565b6000614781826145b5565b915061478d8285614282565b9150614798826146aa565b91506147a48284614282565b91508190509392505050565b60006020820190506147c56000830184614154565b92915050565b600060a0820190506147e06000830188614154565b6147ed6020830187614154565b81810360408301526147ff8186614163565b905081810360608301526148138185614163565b9050818103608083015261482781846141df565b90509695505050505050565b600060a0820190506148486000830188614154565b6148556020830187614154565b61486260408301866146ff565b61486f60608301856146ff565b818103608083015261488181846141df565b90509695505050505050565b600060208201905081810360008301526148a78184614163565b905092915050565b600060408201905081810360008301526148c98185614163565b905081810360208301526148dd8184614163565b90509392505050565b60006020820190506148fb60008301846141c1565b92915050565b600060208201905061491660008301846141d0565b92915050565b600060208201905081810360008301526149368184614249565b905092915050565b60006020820190508181036000830152614957816142b3565b9050919050565b60006020820190508181036000830152614977816142f9565b9050919050565b600060208201905081810360008301526149978161431c565b9050919050565b600060208201905081810360008301526149b78161433f565b9050919050565b600060208201905081810360008301526149d781614362565b9050919050565b600060208201905081810360008301526149f781614385565b9050919050565b60006020820190508181036000830152614a17816143a8565b9050919050565b60006020820190508181036000830152614a37816143cb565b9050919050565b60006020820190508181036000830152614a5781614411565b9050919050565b60006020820190508181036000830152614a7781614434565b9050919050565b60006020820190508181036000830152614a9781614457565b9050919050565b60006020820190508181036000830152614ab78161447a565b9050919050565b60006020820190508181036000830152614ad78161449d565b9050919050565b60006020820190508181036000830152614af7816144c0565b9050919050565b60006020820190508181036000830152614b17816144e3565b9050919050565b60006020820190508181036000830152614b3781614506565b9050919050565b60006020820190508181036000830152614b5781614529565b9050919050565b60006020820190508181036000830152614b778161454c565b9050919050565b60006020820190508181036000830152614b978161456f565b9050919050565b60006020820190508181036000830152614bb7816145d8565b9050919050565b60006020820190508181036000830152614bd7816145fb565b9050919050565b60006020820190508181036000830152614bf78161461e565b9050919050565b60006020820190508181036000830152614c1781614641565b9050919050565b60006020820190508181036000830152614c3781614664565b9050919050565b60006020820190508181036000830152614c5781614687565b9050919050565b60006020820190508181036000830152614c77816146cd565b9050919050565b6000602082019050614c9360008301846146ff565b92915050565b6000604082019050614cae60008301856146ff565b614cbb60208301846146ff565b9392505050565b6000602082019050614cd7600083018461470e565b92915050565b6000614ce7614cf8565b9050614cf38282615031565b919050565b6000604051905090565b600067ffffffffffffffff821115614d1d57614d1c615165565b5b602082029050602081019050919050565b600067ffffffffffffffff821115614d4957614d48615165565b5b602082029050602081019050919050565b600067ffffffffffffffff821115614d7557614d74615165565b5b614d7e826151cf565b9050602081019050919050565b600067ffffffffffffffff821115614da657614da5615165565b5b614daf826151cf565b9050602081019050919050565b6000819050602082019050919050565b600081519050919050565b600081519050919050565b600081519050919050565b6000602082019050919050565b600082825260208201905092915050565b600082825260208201905092915050565b600081905092915050565b600082825260208201905092915050565b600081905092915050565b6000614e4e82614f79565b9150614e5983614f79565b9250827fffffffffffffffffffffffffffffffffffffffffffffffffffffffffffffffff03821115614e8e57614e8d6150d8565b5b828201905092915050565b6000614ea482614f79565b9150614eaf83614f79565b9250817fffffffffffffffffffffffffffffffffffffffffffffffffffffffffffffffff0483118215151615614ee857614ee76150d8565b5b828202905092915050565b6000614efe82614f59565b9050919050565b60008115159050919050565b6000819050919050565b60007fffffffff0000000000000000000000000000000000000000000000000000000082169050919050565b6000614f5282614ef3565b9050919050565b600073ffffffffffffffffffffffffffffffffffffffff82169050919050565b6000819050919050565b600063ffffffff82169050919050565b82818337600083830152505050565b60005b83811015614fc0578082015181840152602081019050614fa5565b83811115614fcf576000848401525b50505050565b6000614fe082614f79565b91506000821415614ff457614ff36150d8565b5b600182039050919050565b6000600282049050600182168061501757607f821691505b6020821081141561502b5761502a615107565b5b50919050565b61503a826151cf565b810181811067ffffffffffffffff8211171561505957615058615165565b5b80604052505050565b600061506d82614f79565b91507fffffffffffffffffffffffffffffffffffffffffffffffffffffffffffffffff8214156150a05761509f6150d8565b5b600182019050919050565b60006150b682614f83565b915063ffffffff8214156150cd576150cc6150d8565b5b600182019050919050565b7f4e487b7100000000000000000000000000000000000000000000000000000000600052601160045260246000fd5b7f4e487b7100000000000000000000000000000000000000000000000000000000600052602260045260246000fd5b7f4e487b7100000000000000000000000000000000000000000000000000000000600052603260045260246000fd5b7f4e487b7100000000000000000000000000000000000000000000000000000000600052604160045260246000fd5b600060033d11156151b35760046000803e6151b06000516151e0565b90505b90565b600080fd5b600080fd5b600080fd5b600080fd5b600080fd5b6000601f19601f8301169050919050565b60008160e01c9050919050565b7f455243313135353a207472616e7366657220746f206e6f6e204552433131353560008201527f526563656976657220696d706c656d656e746572000000000000000000000000602082015250565b7f697066733a2f2f66300000000000000000000000000000000000000000000000600082015250565b7f537472696e67733a20686578206c656e67746820696e73756666696369656e74600082015250565b7f455243313135353a204552433131353552656365697665722072656a6563746560008201527f6420746f6b656e73000000000000000000000000000000000000000000000000602082015250565b7f5468697320746f6b656e2049442068617320616c7265616479206265656e206d60008201527f696e746564000000000000000000000000000000000000000000000000000000602082015250565b7f455243313135353a2062616c616e636520717565727920666f7220746865207a60008201527f65726f2061646472657373000000000000000000000000000000000000000000602082015250565b7f455243313135353a206275726e20616d6f756e7420657863656564732062616c60008201527f616e636500000000000000000000000000000000000000000000000000000000602082015250565b7f455243313135353a2063616c6c6572206973206e6f74206f776e6572206e6f7260008201527f20617070726f7665640000000000000000000000000000000000000000000000602082015250565b7f4661696c656420746f2073656e64204574686572000000000000000000000000600082015250565b7f2f696e6465782e6a736f6e000000000000000000000000000000000000000000600082015250565b7f496e76616c6964206f7261636c65207265717565737400000000000000000000600082015250565b7f5552492063616e6e6f7420626520757064617465642e00000000000000000000600082015250565b7f455243313135353a207472616e7366657220746f20746865207a65726f20616460008201527f6472657373000000000000000000000000000000000000000000000000000000602082015250565b7f455243313135353a207472616e736665722063616c6c6572206973206e6f742060008201527f6f776e6572206e6f7220617070726f7665640000000000000000000000000000602082015250565b7f496e697469616c697a61626c653a20636f6e747261637420697320616c72656160008201527f647920696e697469616c697a6564000000000000000000000000000000000000602082015250565b7f455243313135353a206275726e2066726f6d20746865207a65726f206164647260008201527f6573730000000000000000000000000000000000000000000000000000000000602082015250565b7f455243313135353a20696e73756666696369656e742062616c616e636520666f60008201527f72207472616e7366657200000000000000000000000000000000000000000000602082015250565b7f496e76616c69642073656c6c6572000000000000000000000000000000000000600082015250565b7f496e76616c696420434944207072696365000000000000000000000000000000600082015250565b7f4e6f7420656e6f75676820455448000000000000000000000000000000000000600082015250565b7f4e46542063616e6e6f74206265206275726e6564000000000000000000000000600082015250565b50565b7f416363657373436f6e74726f6c3a206163636f756e7420000000000000000000600082015250565b7f4e46542063616e6e6f7420626520637265617465640000000000000000000000600082015250565b7f455243313135353a2073657474696e6720617070726f76616c2073746174757360008201527f20666f722073656c660000000000000000000000000000000000000000000000602082015250565b7f56657273696f6e2063616e6e6f7420626520757064617465642e000000000000600082015250565b7f455243313135353a206163636f756e747320616e6420696473206c656e67746860008201527f206d69736d617463680000000000000000000000000000000000000000000000602082015250565b7f455243313135353a2069647320616e6420616d6f756e7473206c656e6774682060008201527f6d69736d61746368000000000000000000000000000000000000000000000000602082015250565b7f455243313135353a206d696e7420746f20746865207a65726f2061646472657360008201527f7300000000000000000000000000000000000000000000000000000000000000602082015250565b7f206973206d697373696e6720726f6c6520000000000000000000000000000000600082015250565b7f416363657373436f6e74726f6c3a2063616e206f6e6c792072656e6f756e636560008201527f20726f6c657320666f722073656c660000000000000000000000000000000000602082015250565b600060443d101561592e576159b1565b615936614cf8565b60043d036004823e80513d602482011167ffffffffffffffff8211171561595e5750506159b1565b808201805167ffffffffffffffff81111561597c57505050506159b1565b80602083010160043d0385018111156159995750505050506159b1565b6159a882602001850186615031565b82955050505050505b90565b6159bd81614ef3565b81146159c857600080fd5b50565b6159d481614f05565b81146159df57600080fd5b50565b6159eb81614f11565b81146159f657600080fd5b50565b615a0281614f1b565b8114615a0d57600080fd5b50565b615a1981614f47565b8114615a2457600080fd5b50565b615a3081614f79565b8114615a3b57600080fd5b5056fea2646970667358221220ab3ffe727b27bb3041e00eba172704e707f7ec1ea84493b3889f2a36bbde7e9664736f6c63430008060033",
  "linkReferences": {},
  "deployedLinkReferences": {}
}