{
  "_format": "hh-sol-artifact-1",
  "contractName": "WNFT",
  "sourceName": "contracts/1155-WNFT.sol",
  "abi": [
    {
      "inputs": [],
      "name": "InvalidPurchaseOperation",
      "type": "error"
    },
    {
      "anonymous": false,
      "inputs": [
        {
          "indexed": true,
          "internalType": "address",
          "name": "account",
          "type": "address"
        },
        {
          "indexed": true,
          "internalType": "address",
          "name": "operator",
          "type": "address"
        },
        {
          "indexed": false,
          "internalType": "bool",
          "name": "approved",
          "type": "bool"
        }
      ],
      "name": "ApprovalForAll",
      "type": "event"
    },
    {
      "anonymous": false,
      "inputs": [
        {
          "indexed": true,
          "internalType": "address",
          "name": "operator",
          "type": "address"
        },
        {
          "indexed": false,
          "internalType": "uint256",
          "name": "cid",
          "type": "uint256"
        },
        {
          "indexed": false,
          "internalType": "uint256",
          "name": "approved",
          "type": "uint256"
        }
      ],
      "name": "ApprovalForCID",
      "type": "event"
    },
    {
      "anonymous": false,
      "inputs": [
        {
          "indexed": true,
          "internalType": "bytes32",
          "name": "role",
          "type": "bytes32"
        },
        {
          "indexed": true,
          "internalType": "bytes32",
          "name": "previousAdminRole",
          "type": "bytes32"
        },
        {
          "indexed": true,
          "internalType": "bytes32",
          "name": "newAdminRole",
          "type": "bytes32"
        }
      ],
      "name": "RoleAdminChanged",
      "type": "event"
    },
    {
      "anonymous": false,
      "inputs": [
        {
          "indexed": true,
          "internalType": "bytes32",
          "name": "role",
          "type": "bytes32"
        },
        {
          "indexed": true,
          "internalType": "address",
          "name": "account",
          "type": "address"
        },
        {
          "indexed": true,
          "internalType": "address",
          "name": "sender",
          "type": "address"
        }
      ],
      "name": "RoleGranted",
      "type": "event"
    },
    {
      "anonymous": false,
      "inputs": [
        {
          "indexed": true,
          "internalType": "bytes32",
          "name": "role",
          "type": "bytes32"
        },
        {
          "indexed": true,
          "internalType": "address",
          "name": "account",
          "type": "address"
        },
        {
          "indexed": true,
          "internalType": "address",
          "name": "sender",
          "type": "address"
        }
      ],
      "name": "RoleRevoked",
      "type": "event"
    },
    {
      "anonymous": false,
      "inputs": [
        {
          "indexed": true,
          "internalType": "address",
          "name": "operator",
          "type": "address"
        },
        {
          "indexed": true,
          "internalType": "address",
          "name": "from",
          "type": "address"
        },
        {
          "indexed": true,
          "internalType": "address",
          "name": "to",
          "type": "address"
        },
        {
          "indexed": false,
          "internalType": "uint256[]",
          "name": "ids",
          "type": "uint256[]"
        },
        {
          "indexed": false,
          "internalType": "uint256[]",
          "name": "values",
          "type": "uint256[]"
        }
      ],
      "name": "TransferBatch",
      "type": "event"
    },
    {
      "anonymous": false,
      "inputs": [
        {
          "indexed": true,
          "internalType": "address",
          "name": "operator",
          "type": "address"
        },
        {
          "indexed": true,
          "internalType": "address",
          "name": "from",
          "type": "address"
        },
        {
          "indexed": true,
          "internalType": "address",
          "name": "to",
          "type": "address"
        },
        {
          "indexed": false,
          "internalType": "uint256",
          "name": "id",
          "type": "uint256"
        },
        {
          "indexed": false,
          "internalType": "uint256",
          "name": "value",
          "type": "uint256"
        }
      ],
      "name": "TransferSingle",
      "type": "event"
    },
    {
      "anonymous": false,
      "inputs": [
        {
          "indexed": false,
          "internalType": "string",
          "name": "value",
          "type": "string"
        },
        {
          "indexed": true,
          "internalType": "uint256",
          "name": "id",
          "type": "uint256"
        }
      ],
      "name": "URI",
      "type": "event"
    },
    {
      "inputs": [],
      "name": "DEFAULT_ADMIN_ROLE",
      "outputs": [
        {
          "internalType": "bytes32",
          "name": "",
          "type": "bytes32"
        }
      ],
      "stateMutability": "view",
      "type": "function"
    },
    {
      "inputs": [],
      "name": "NFT_MINTER_ROLE",
      "outputs": [
        {
          "internalType": "bytes32",
          "name": "",
          "type": "bytes32"
        }
      ],
      "stateMutability": "view",
      "type": "function"
    },
    {
      "inputs": [
        {
          "internalType": "address",
          "name": "account",
          "type": "address"
        },
        {
          "internalType": "uint256",
          "name": "id",
          "type": "uint256"
        }
      ],
      "name": "balanceOf",
      "outputs": [
        {
          "internalType": "uint256",
          "name": "",
          "type": "uint256"
        }
      ],
      "stateMutability": "view",
      "type": "function"
    },
    {
      "inputs": [
        {
          "internalType": "address[]",
          "name": "accounts",
          "type": "address[]"
        },
        {
          "internalType": "uint256[]",
          "name": "ids",
          "type": "uint256[]"
        }
      ],
      "name": "balanceOfBatch",
      "outputs": [
        {
          "internalType": "uint256[]",
          "name": "",
          "type": "uint256[]"
        }
      ],
      "stateMutability": "view",
      "type": "function"
    },
    {
      "inputs": [
        {
          "internalType": "address",
          "name": "account",
          "type": "address"
        },
        {
          "internalType": "uint256",
          "name": "cid",
          "type": "uint256"
        }
      ],
      "name": "burn",
      "outputs": [],
      "stateMutability": "nonpayable",
      "type": "function"
    },
    {
      "inputs": [
        {
          "internalType": "address",
          "name": "account",
          "type": "address"
        },
        {
          "internalType": "uint256[]",
          "name": "ids",
          "type": "uint256[]"
        },
        {
          "internalType": "uint256[]",
          "name": "amounts",
          "type": "uint256[]"
        }
      ],
      "name": "burnBatch",
      "outputs": [],
      "stateMutability": "nonpayable",
      "type": "function"
    },
    {
      "inputs": [
        {
          "internalType": "bytes32",
          "name": "role",
          "type": "bytes32"
        }
      ],
      "name": "getRoleAdmin",
      "outputs": [
        {
          "internalType": "bytes32",
          "name": "",
          "type": "bytes32"
        }
      ],
      "stateMutability": "view",
      "type": "function"
    },
    {
      "inputs": [
        {
          "internalType": "bytes32",
          "name": "role",
          "type": "bytes32"
        },
        {
          "internalType": "address",
          "name": "account",
          "type": "address"
        }
      ],
      "name": "grantRole",
      "outputs": [],
      "stateMutability": "nonpayable",
      "type": "function"
    },
    {
      "inputs": [
        {
          "internalType": "bytes32",
          "name": "role",
          "type": "bytes32"
        },
        {
          "internalType": "address",
          "name": "account",
          "type": "address"
        }
      ],
      "name": "hasRole",
      "outputs": [
        {
          "internalType": "bool",
          "name": "",
          "type": "bool"
        }
      ],
      "stateMutability": "view",
      "type": "function"
    },
    {
      "inputs": [
        {
          "internalType": "uint256",
          "name": "cid",
          "type": "uint256"
        }
      ],
      "name": "holderOf",
      "outputs": [
        {
          "internalType": "address",
          "name": "",
          "type": "address"
        }
      ],
      "stateMutability": "view",
      "type": "function"
    },
    {
      "inputs": [],
      "name": "initialize",
      "outputs": [],
      "stateMutability": "nonpayable",
      "type": "function"
    },
    {
      "inputs": [
        {
          "internalType": "address",
          "name": "operator",
          "type": "address"
        },
        {
          "internalType": "uint256",
          "name": "cid",
          "type": "uint256"
        }
      ],
      "name": "isApprovedFor",
      "outputs": [
        {
          "internalType": "bool",
          "name": "",
          "type": "bool"
        }
      ],
      "stateMutability": "view",
      "type": "function"
    },
    {
      "inputs": [
        {
          "internalType": "address",
          "name": "account",
          "type": "address"
        },
        {
          "internalType": "address",
          "name": "operator",
          "type": "address"
        }
      ],
      "name": "isApprovedForAll",
      "outputs": [
        {
          "internalType": "bool",
          "name": "",
          "type": "bool"
        }
      ],
      "stateMutability": "view",
      "type": "function"
    },
    {
      "inputs": [
        {
          "internalType": "uint256",
          "name": "cid",
          "type": "uint256"
        },
        {
          "internalType": "address",
          "name": "owner",
          "type": "address"
        }
      ],
      "name": "lazyMintPurchase",
      "outputs": [],
      "stateMutability": "payable",
      "type": "function"
    },
    {
      "inputs": [
        {
          "internalType": "address",
          "name": "account",
          "type": "address"
        },
        {
          "internalType": "uint256",
          "name": "cid",
          "type": "uint256"
        }
      ],
      "name": "mint",
      "outputs": [],
      "stateMutability": "nonpayable",
      "type": "function"
    },
    {
      "inputs": [
        {
          "internalType": "address",
          "name": "to",
          "type": "address"
        },
        {
          "internalType": "uint256[]",
          "name": "cids",
          "type": "uint256[]"
        }
      ],
      "name": "mintBatch",
      "outputs": [],
      "stateMutability": "nonpayable",
      "type": "function"
    },
    {
      "inputs": [
        {
          "internalType": "bytes32",
          "name": "role",
          "type": "bytes32"
        },
        {
          "internalType": "address",
          "name": "account",
          "type": "address"
        }
      ],
      "name": "renounceRole",
      "outputs": [],
      "stateMutability": "nonpayable",
      "type": "function"
    },
    {
      "inputs": [
        {
          "internalType": "bytes32",
          "name": "role",
          "type": "bytes32"
        },
        {
          "internalType": "address",
          "name": "account",
          "type": "address"
        }
      ],
      "name": "revokeRole",
      "outputs": [],
      "stateMutability": "nonpayable",
      "type": "function"
    },
    {
      "inputs": [
        {
          "internalType": "address",
          "name": "from",
          "type": "address"
        },
        {
          "internalType": "address",
          "name": "to",
          "type": "address"
        },
        {
          "internalType": "uint256[]",
          "name": "ids",
          "type": "uint256[]"
        },
        {
          "internalType": "uint256[]",
          "name": "amounts",
          "type": "uint256[]"
        },
        {
          "internalType": "bytes",
          "name": "data",
          "type": "bytes"
        }
      ],
      "name": "safeBatchTransferFrom",
      "outputs": [],
      "stateMutability": "nonpayable",
      "type": "function"
    },
    {
      "inputs": [
        {
          "internalType": "uint256",
          "name": "cid",
          "type": "uint256"
        }
      ],
      "name": "safePurchase",
      "outputs": [],
      "stateMutability": "payable",
      "type": "function"
    },
    {
      "inputs": [
        {
          "internalType": "address",
          "name": "from",
          "type": "address"
        },
        {
          "internalType": "address",
          "name": "to",
          "type": "address"
        },
        {
          "internalType": "uint256",
          "name": "id",
          "type": "uint256"
        },
        {
          "internalType": "uint256",
          "name": "amount",
          "type": "uint256"
        },
        {
          "internalType": "bytes",
          "name": "data",
          "type": "bytes"
        }
      ],
      "name": "safeTransferFrom",
      "outputs": [],
      "stateMutability": "nonpayable",
      "type": "function"
    },
    {
      "inputs": [
        {
          "internalType": "address",
          "name": "operator",
          "type": "address"
        },
        {
          "internalType": "uint256",
          "name": "cid",
          "type": "uint256"
        },
        {
          "internalType": "uint256",
          "name": "approved",
          "type": "uint256"
        }
      ],
      "name": "setApprovalFor",
      "outputs": [],
      "stateMutability": "nonpayable",
      "type": "function"
    },
    {
      "inputs": [
        {
          "internalType": "address",
          "name": "operator",
          "type": "address"
        },
        {
          "internalType": "bool",
          "name": "approved",
          "type": "bool"
        }
      ],
      "name": "setApprovalForAll",
      "outputs": [],
      "stateMutability": "nonpayable",
      "type": "function"
    },
    {
      "inputs": [
        {
          "internalType": "string",
          "name": "newuri",
          "type": "string"
        }
      ],
      "name": "setURI",
      "outputs": [],
      "stateMutability": "nonpayable",
      "type": "function"
    },
    {
      "inputs": [
        {
          "internalType": "bytes4",
          "name": "interfaceId",
          "type": "bytes4"
        }
      ],
      "name": "supportsInterface",
      "outputs": [
        {
          "internalType": "bool",
          "name": "",
          "type": "bool"
        }
      ],
      "stateMutability": "view",
      "type": "function"
    },
    {
      "inputs": [
        {
          "internalType": "address",
          "name": "from",
          "type": "address"
        },
        {
          "internalType": "address",
          "name": "to",
          "type": "address"
        },
        {
          "internalType": "uint256",
          "name": "cid",
          "type": "uint256"
        }
      ],
      "name": "transfer",
      "outputs": [],
      "stateMutability": "nonpayable",
      "type": "function"
    },
    {
      "inputs": [],
      "name": "upgrade",
      "outputs": [],
      "stateMutability": "nonpayable",
      "type": "function"
    },
    {
      "inputs": [
        {
          "internalType": "uint256",
          "name": "_tokenId",
          "type": "uint256"
        }
      ],
      "name": "uri",
      "outputs": [
        {
          "internalType": "string",
          "name": "",
          "type": "string"
        }
      ],
      "stateMutability": "view",
      "type": "function"
    },
    {
      "inputs": [],
      "name": "version",
      "outputs": [
        {
          "internalType": "uint32",
          "name": "",
          "type": "uint32"
        }
      ],
      "stateMutability": "view",
      "type": "function"
    }
  ],
  "bytecode": "0x608060405234801561001057600080fd5b50613384806100206000396000f3fe6080604052600436106101c15760003560e01c8063738f5469116100f7578063ba3dad8411610095578063d55ec69711610064578063d55ec69714610519578063dbacc2371461052e578063e985e9c51461057c578063f242432a146105c557600080fd5b8063ba3dad8414610497578063beabacc8146104b7578063c0833ee4146104d7578063d547741f146104f957600080fd5b806391d14854116100d157806391d14854146104225780639dc29fac14610442578063a217fddf14610462578063a22cb4651461047757600080fd5b8063738f5469146103da57806375ceb341146103ed5780638129fc1c1461040d57600080fd5b806336568abe116101645780634e1273f41161013e5780634e1273f41461034857806354fd4d50146103755780636b20c454146103a75780636c68a223146103c757600080fd5b806336568abe146102e8578063390ff1341461030857806340c10f191461032857600080fd5b80630e89341c116101a05780630e89341c1461024b578063248a9ca3146102785780632eb2c2d6146102a85780632f2ff15d146102c857600080fd5b8062fdd58e146101c657806301ffc9a7146101f957806302fe530514610229575b600080fd5b3480156101d257600080fd5b506101e66101e13660046129c8565b6105e5565b6040519081526020015b60405180910390f35b34801561020557600080fd5b50610219610214366004612b27565b61067e565b60405190151581526020016101f0565b34801561023557600080fd5b50610249610244366004612b61565b61068f565b005b34801561025757600080fd5b5061026b610266366004612aeb565b6106eb565b6040516101f09190612db7565b34801561028457600080fd5b506101e6610293366004612aeb565b60009081526097602052604090206001015490565b3480156102b457600080fd5b506102496102c3366004612783565b610721565b3480156102d457600080fd5b506102496102e3366004612b04565b6107b8565b3480156102f457600080fd5b50610249610303366004612b04565b6107e3565b34801561031457600080fd5b506102196103233660046129c8565b610861565b34801561033457600080fd5b506102496103433660046129c8565b61088a565b34801561035457600080fd5b50610368610363366004612a25565b61095f565b6040516101f09190612d76565b34801561038157600080fd5b5060cb546103929063ffffffff1681565b60405163ffffffff90911681526020016101f0565b3480156103b357600080fd5b506102496103c2366004612919565b610a88565b6102496103d5366004612b04565b610ae1565b6102496103e8366004612aeb565b610d03565b3480156103f957600080fd5b506102496104083660046128cc565b610f7a565b34801561041957600080fd5b506102496111b1565b34801561042e57600080fd5b5061021961043d366004612b04565b6112ca565b34801561044e57600080fd5b5061024961045d3660046129c8565b6112f5565b34801561046e57600080fd5b506101e6600081565b34801561048357600080fd5b5061024961049236600461298c565b61136e565b3480156104a357600080fd5b506102496104b23660046129f2565b611379565b3480156104c357600080fd5b506102496104d236600461282c565b6114a0565b3480156104e357600080fd5b506101e660008051602061332f83398151915281565b34801561050557600080fd5b50610249610514366004612b04565b6114fb565b34801561052557600080fd5b50610249611521565b34801561053a57600080fd5b50610564610549366004612aeb565b600090815260ca60205260409020546001600160a01b031690565b6040516001600160a01b0390911681526020016101f0565b34801561058857600080fd5b50610219610597366004612750565b6001600160a01b03918216600090815260666020908152604080832093909416825291909152205460ff1690565b3480156105d157600080fd5b506102496105e0366004612868565b6115af565b60006001600160a01b0383166106565760405162461bcd60e51b815260206004820152602b60248201527f455243313135353a2062616c616e636520717565727920666f7220746865207a60448201526a65726f206164647265737360a81b60648201526084015b60405180910390fd5b5060009081526065602090815260408083206001600160a01b03949094168352929052205490565b600061068982611636565b92915050565b61069a6000336112ca565b6106df5760405162461bcd60e51b81526020600482015260166024820152752aa9249031b0b73737ba103132903ab83230ba32b21760511b604482015260640161064d565b6106e88161165b565b50565b6060806106f78361166e565b90508060405160200161070a9190612c18565b604051602081830303815290604052915050919050565b6001600160a01b03851633148061073d575061073d8533610597565b6107a45760405162461bcd60e51b815260206004820152603260248201527f455243313135353a207472616e736665722063616c6c6572206973206e6f74206044820152711bdddb995c881b9bdc88185c1c1c9bdd995960721b606482015260840161064d565b6107b1858585858561177e565b5050505050565b6000828152609760205260409020600101546107d4813361191d565b6107de8383611981565b505050565b6001600160a01b03811633146108535760405162461bcd60e51b815260206004820152602f60248201527f416363657373436f6e74726f6c3a2063616e206f6e6c792072656e6f756e636560448201526e103937b632b9903337b91039b2b63360891b606482015260840161064d565b61085d8282611a07565b5050565b600090815260c9602090815260408083206001600160a01b039490941683529290522054151590565b600081815260ca60205260409020546001600160a01b0316156108bf5760405162461bcd60e51b815260040161064d90612e12565b6108d760008051602061332f833981519152336112ca565b61091b5760405162461bcd60e51b81526020600482015260156024820152741391950818d85b9b9bdd0818994818dc99585d1959605a1b604482015260640161064d565b600081815260ca6020908152604080832080546001600160a01b0319166001600160a01b0387161790558051918201905290815261085d9083908390600190611a6e565b606081518351146109c45760405162461bcd60e51b815260206004820152602960248201527f455243313135353a206163636f756e747320616e6420696473206c656e677468604482015268040dad2e6dac2e8c6d60bb1b606482015260840161064d565b600083516001600160401b038111156109df576109df61323d565b604051908082528060200260200182016040528015610a08578160200160208202803683370190505b50905060005b8451811015610a8057610a53858281518110610a2c57610a2c613227565b6020026020010151858381518110610a4657610a46613227565b60200260200101516105e5565b828281518110610a6557610a65613227565b6020908102919091010152610a79816131d2565b9050610a0e565b509392505050565b610a936000336112ca565b610ad65760405162461bcd60e51b81526020600482015260146024820152731391950818d85b9b9bdd08189948189d5c9b995960621b604482015260640161064d565b6107de838383611b2e565b600082815260ca60205260409020546001600160a01b031615610b3b5760405162461bcd60e51b815260206004820152601260248201527110d25108185b1c9958591e481b5a5b9d195960721b604482015260640161064d565b610b453383610861565b610b915760405162461bcd60e51b815260206004820181905260248201527f43616c6c6572206973206e6f74206f776e6572206e6f7220617070726f766564604482015260640161064d565b600082815260c9602090815260408083203384529091529020543414610bf95760405162461bcd60e51b815260206004820152601f60248201527f496e76616c696420616d6f756e7420666f7220617070726f7665642062696400604482015260640161064d565b60405181906000906001600160a01b0383169034908381818185875af1925050503d8060008114610c46576040519150601f19603f3d011682016040523d82523d6000602084013e610c4b565b606091505b5050905080610c6c5760405162461bcd60e51b815260040161064d90612f6d565b610c973385600160ff166040518060400160405280600381526020016203078360ec1b815250611a6e565b600084815260c9602090815260408083203380855290835281842084905581518881526001938101939093529291839160008051602061330f833981519152910160405180910390a4505050600090815260ca6020526040902080546001600160a01b03191633179055565b600081815260ca60205260409020546001600160a01b0316610d555760405162461bcd60e51b815260206004820152600b60248201526a125b9d985b1a590818da5960aa1b604482015260640161064d565b600081815260ca60205260409020546001600160a01b0316331415610dac5760405162461bcd60e51b815260206004820152600d60248201526c24b73b30b634b210313abcb2b960991b604482015260640161064d565b610db63382610861565b610e025760405162461bcd60e51b815260206004820181905260248201527f43616c6c6572206973206e6f74206f776e6572206e6f7220617070726f766564604482015260640161064d565b600081815260c9602090815260408083203384529091529020543414610e6a5760405162461bcd60e51b815260206004820152601f60248201527f496e76616c696420616d6f756e7420666f7220617070726f7665642062696400604482015260640161064d565b600081815260ca60205260408082205490516001600160a01b039091169190829034908381818185875af1925050503d8060008114610ec5576040519150601f19603f3d011682016040523d82523d6000602084013e610eca565b606091505b5050905080610eeb5760405162461bcd60e51b815260040161064d90612f6d565b610f3d60ca600085815260200190815260200160002060009054906101000a90046001600160a01b03163385600160ff166040518060400160405280600381526020016203078360ec1b815250611cad565b5050600081815260c9602090815260408083203380855290835281842084905593835260ca909152902080546001600160a01b0319169091179055565b610f9260008051602061332f833981519152336112ca565b610fd65760405162461bcd60e51b81526020600482015260156024820152741391950818d85b9b9bdd0818994818dc99585d1959605a1b604482015260640161064d565b600081516001600160401b03811115610ff157610ff161323d565b60405190808252806020026020018201604052801561101a578160200160208202803683370190505b509050600082516001600160401b038111156110385761103861323d565b604051908082528060200260200182016040528015611061578160200160208202803683370190505b50905060005b835181101561118f5760006001600160a01b031660ca600086848151811061109157611091613227565b6020908102919091018101518252810191909152604001600020546001600160a01b0316146110d25760405162461bcd60e51b815260040161064d90612e12565b8381815181106110e4576110e4613227565b60200260200101518382815181106110fe576110fe613227565b6020026020010181815250508460ca600085848151811061112157611121613227565b6020026020010151815260200190815260200160002060006101000a8154816001600160a01b0302191690836001600160a01b03160217905550600160ff1682828151811061117257611172613227565b602090810291909101015280611187816131d2565b915050611067565b506111ab84838360405180602001604052806000815250611dbc565b50505050565b600054610100900460ff166111cc5760005460ff16156111d0565b303b155b6112335760405162461bcd60e51b815260206004820152602e60248201527f496e697469616c697a61626c653a20636f6e747261637420697320616c72656160448201526d191e481a5b9a5d1a585b1a5e995960921b606482015260840161064d565b600054610100900460ff16158015611255576000805461ffff19166101011790555b6112936040518060400160405280601881526020017f697066733a2f2f66307b69647d2f696e6465782e6a736f6e0000000000000000815250611f08565b61129e600033611f48565b6112b660008051602061332f83398151915233611f48565b80156106e8576000805461ff001916905550565b60009182526097602090815260408084206001600160a01b0393909316845291905290205460ff1690565b6113006000336112ca565b6113435760405162461bcd60e51b81526020600482015260146024820152731391950818d85b9b9bdd08189948189d5c9b995960621b604482015260640161064d565b61134f82826001611f52565b600090815260ca6020526040902080546001600160a01b031916905550565b61085d338383612046565b336001600160a01b03841614156113a25760405162461bcd60e51b815260040161064d90612ffc565b600082815260ca60205260409020546001600160a01b0316336001600160a01b031614806113e55750600082815260ca60205260409020546001600160a01b0316155b61143d5760405162461bcd60e51b815260206004820152602360248201527f4f6e6c79206f776e65722063616e2073657420617070726f76616c20666f722060448201526210d25160ea1b606482015260840161064d565b600082815260c9602090815260408083206001600160a01b0387168085529083529281902084905580518581529182018490527f0a5d49223cdca66ecee577e644907f9d77e9f5c6743247ebddd0c002ba8083b2910160405180910390a2505050565b6114cc838383600160ff166040518060400160405280600381526020016203078360ec1b8152506115af565b600090815260ca6020526040902080546001600160a01b0319166001600160a01b039290921691909117905550565b600082815260976020526040902060010154611517813361191d565b6107de8383611a07565b61152c6000336112ca565b6115785760405162461bcd60e51b815260206004820152601a60248201527f56657273696f6e2063616e6e6f7420626520757064617465642e000000000000604482015260640161064d565b60cb805463ffffffff1690600061158e836131ed565b91906101000a81548163ffffffff021916908363ffffffff16021790555050565b6001600160a01b0385163314806115cb57506115cb8533610597565b6116295760405162461bcd60e51b815260206004820152602960248201527f455243313135353a2063616c6c6572206973206e6f74206f776e6572206e6f7260448201526808185c1c1c9bdd995960ba1b606482015260840161064d565b6107b18585858585611cad565b60006001600160e01b03198216637965db0b60e01b14806106895750610689826120e5565b805161085d9060679060208401906125a7565b6060816116925750506040805180820190915260018152600360fc1b602082015290565b8160005b81156116b557806116a6816131d2565b915050600482901c9150611696565b600f6000826001600160401b038111156116d1576116d161323d565b6040519080825280601f01601f1916602001820160405280156116fb576020820181803683370190505b509050825b861561177457868316600981116117245761171c8160306130f1565b60f81b611733565b61172f8160376130f1565b60f81b5b8361173d84613154565b9350838151811061175057611750613227565b60200101906001600160f81b031916908160001a905350600488901c975050611700565b5095945050505050565b815183511461179f5760405162461bcd60e51b815260040161064d90613045565b6001600160a01b0384166117c55760405162461bcd60e51b815260040161064d90612e9b565b3360005b84518110156118af5760008582815181106117e6576117e6613227565b60200260200101519050600085838151811061180457611804613227565b60209081029190910181015160008481526065835260408082206001600160a01b038e1683529093529190912054909150818110156118555760405162461bcd60e51b815260040161064d90612f23565b60008381526065602090815260408083206001600160a01b038e8116855292528083208585039055908b168252812080548492906118949084906130f1565b92505081905550505050806118a8906131d2565b90506117c9565b50846001600160a01b0316866001600160a01b0316826001600160a01b03167f4a39dc06d4c0dbc64b70af90fd698a233a518aa5d07e595d983b8c0526c8f7fb87876040516118ff929190612d89565b60405180910390a4611915818787878787612135565b505050505050565b61192782826112ca565b61085d5761193f816001600160a01b031660146122a0565b61194a8360206122a0565b60405160200161195b929190612c5e565b60408051601f198184030181529082905262461bcd60e51b825261064d91600401612db7565b61198b82826112ca565b61085d5760008281526097602090815260408083206001600160a01b03851684529091529020805460ff191660011790556119c33390565b6001600160a01b0316816001600160a01b0316837f2f8788117e7eff1d82e926ec794901d17c78024a50270940304540a733656f0d60405160405180910390a45050565b611a1182826112ca565b1561085d5760008281526097602090815260408083206001600160a01b0385168085529252808320805460ff1916905551339285917ff6391f5c32d9c69d2a47ea670b442974b53935d1edc7fd64eb21e047a839171b9190a45050565b6001600160a01b038416611a945760405162461bcd60e51b815260040161064d9061308d565b33611aae81600087611aa588612442565b6107b188612442565b60008481526065602090815260408083206001600160a01b038916845290915281208054859290611ae09084906130f1565b909155505060408051858152602081018590526001600160a01b03808816926000929185169160008051602061330f833981519152910160405180910390a46107b18160008787878761248d565b6001600160a01b038316611b545760405162461bcd60e51b815260040161064d90612ee0565b8051825114611b755760405162461bcd60e51b815260040161064d90613045565b604080516020810190915260009081905233905b8351811015611c4e576000848281518110611ba657611ba6613227565b602002602001015190506000848381518110611bc457611bc4613227565b60209081029190910181015160008481526065835260408082206001600160a01b038c168352909352919091205490915081811015611c155760405162461bcd60e51b815260040161064d90612e57565b60009283526065602090815260408085206001600160a01b038b1686529091529092209103905580611c46816131d2565b915050611b89565b5060006001600160a01b0316846001600160a01b0316826001600160a01b03167f4a39dc06d4c0dbc64b70af90fd698a233a518aa5d07e595d983b8c0526c8f7fb8686604051611c9f929190612d89565b60405180910390a450505050565b6001600160a01b038416611cd35760405162461bcd60e51b815260040161064d90612e9b565b33611ce3818787611aa588612442565b60008481526065602090815260408083206001600160a01b038a16845290915290205483811015611d265760405162461bcd60e51b815260040161064d90612f23565b60008581526065602090815260408083206001600160a01b038b8116855292528083208785039055908816825281208054869290611d659084906130f1565b909155505060408051868152602081018690526001600160a01b03808916928a8216929186169160008051602061330f833981519152910160405180910390a4611db382888888888861248d565b50505050505050565b6001600160a01b038416611de25760405162461bcd60e51b815260040161064d9061308d565b8151835114611e035760405162461bcd60e51b815260040161064d90613045565b3360005b8451811015611ea057838181518110611e2257611e22613227565b602002602001015160656000878481518110611e4057611e40613227565b602002602001015181526020019081526020016000206000886001600160a01b03166001600160a01b031681526020019081526020016000206000828254611e8891906130f1565b90915550819050611e98816131d2565b915050611e07565b50846001600160a01b031660006001600160a01b0316826001600160a01b03167f4a39dc06d4c0dbc64b70af90fd698a233a518aa5d07e595d983b8c0526c8f7fb8787604051611ef1929190612d89565b60405180910390a46107b181600087878787612135565b600054610100900460ff16611f2f5760405162461bcd60e51b815260040161064d90612fb1565b611f37612557565b611f3f612557565b6106e881612580565b61085d8282611981565b6001600160a01b038316611f785760405162461bcd60e51b815260040161064d90612ee0565b33611fa881856000611f8987612442565b611f9287612442565b5050604080516020810190915260009052505050565b60008381526065602090815260408083206001600160a01b038816845290915290205482811015611feb5760405162461bcd60e51b815260040161064d90612e57565b60008481526065602090815260408083206001600160a01b038981168086529184528285208887039055825189815293840188905290929086169160008051602061330f833981519152910160405180910390a45050505050565b816001600160a01b0316836001600160a01b031614156120785760405162461bcd60e51b815260040161064d90612ffc565b6001600160a01b03838116600081815260666020908152604080832094871680845294825291829020805460ff191686151590811790915591519182527f17307eab39ab6107e8899845ad3d59bd9653f200f220920489ca2b5937696c31910160405180910390a3505050565b60006001600160e01b03198216636cdb3d1360e11b148061211657506001600160e01b031982166303a24d0760e21b145b8061068957506301ffc9a760e01b6001600160e01b0319831614610689565b6001600160a01b0384163b156119155760405163bc197c8160e01b81526001600160a01b0385169063bc197c81906121799089908990889088908890600401612cd3565b602060405180830381600087803b15801561219357600080fd5b505af19250505080156121c3575060408051601f3d908101601f191682019092526121c091810190612b44565b60015b612270576121cf613253565b806308c379a0141561220957506121e461326f565b806121ef575061220b565b8060405162461bcd60e51b815260040161064d9190612db7565b505b60405162461bcd60e51b815260206004820152603460248201527f455243313135353a207472616e7366657220746f206e6f6e20455243313135356044820152732932b1b2b4bb32b91034b6b83632b6b2b73a32b960611b606482015260840161064d565b6001600160e01b0319811663bc197c8160e01b14611db35760405162461bcd60e51b815260040161064d90612dca565b606060006122af836002613109565b6122ba9060026130f1565b6001600160401b038111156122d1576122d161323d565b6040519080825280601f01601f1916602001820160405280156122fb576020820181803683370190505b509050600360fc1b8160008151811061231657612316613227565b60200101906001600160f81b031916908160001a905350600f60fb1b8160018151811061234557612345613227565b60200101906001600160f81b031916908160001a9053506000612369846002613109565b6123749060016130f1565b90505b60018111156123ec576f181899199a1a9b1b9c1cb0b131b232b360811b85600f16601081106123a8576123a8613227565b1a60f81b8282815181106123be576123be613227565b60200101906001600160f81b031916908160001a90535060049490941c936123e581613154565b9050612377565b50831561243b5760405162461bcd60e51b815260206004820181905260248201527f537472696e67733a20686578206c656e67746820696e73756666696369656e74604482015260640161064d565b9392505050565b6040805160018082528183019092526060916000919060208083019080368337019050509050828160008151811061247c5761247c613227565b602090810291909101015292915050565b6001600160a01b0384163b156119155760405163f23a6e6160e01b81526001600160a01b0385169063f23a6e61906124d19089908990889088908890600401612d31565b602060405180830381600087803b1580156124eb57600080fd5b505af192505050801561251b575060408051601f3d908101601f1916820190925261251891810190612b44565b60015b612527576121cf613253565b6001600160e01b0319811663f23a6e6160e01b14611db35760405162461bcd60e51b815260040161064d90612dca565b600054610100900460ff1661257e5760405162461bcd60e51b815260040161064d90612fb1565b565b600054610100900460ff166106df5760405162461bcd60e51b815260040161064d90612fb1565b8280546125b39061316b565b90600052602060002090601f0160209004810192826125d5576000855561261b565b82601f106125ee57805160ff191683800117855561261b565b8280016001018555821561261b579182015b8281111561261b578251825591602001919060010190612600565b5061262792915061262b565b5090565b5b80821115612627576000815560010161262c565b60006001600160401b038311156126595761265961323d565b604051612670601f8501601f1916602001826131a6565b80915083815284848401111561268557600080fd5b83836020830137600060208583010152509392505050565b80356001600160a01b03811681146126b457600080fd5b919050565b600082601f8301126126ca57600080fd5b813560206126d7826130ce565b6040516126e482826131a6565b8381528281019150858301600585901b8701840188101561270457600080fd5b60005b8581101561272357813584529284019290840190600101612707565b5090979650505050505050565b600082601f83011261274157600080fd5b61243b83833560208501612640565b6000806040838503121561276357600080fd5b61276c8361269d565b915061277a6020840161269d565b90509250929050565b600080600080600060a0868803121561279b57600080fd5b6127a48661269d565b94506127b26020870161269d565b935060408601356001600160401b03808211156127ce57600080fd5b6127da89838a016126b9565b945060608801359150808211156127f057600080fd5b6127fc89838a016126b9565b9350608088013591508082111561281257600080fd5b5061281f88828901612730565b9150509295509295909350565b60008060006060848603121561284157600080fd5b61284a8461269d565b92506128586020850161269d565b9150604084013590509250925092565b600080600080600060a0868803121561288057600080fd5b6128898661269d565b94506128976020870161269d565b9350604086013592506060860135915060808601356001600160401b038111156128c057600080fd5b61281f88828901612730565b600080604083850312156128df57600080fd5b6128e88361269d565b915060208301356001600160401b0381111561290357600080fd5b61290f858286016126b9565b9150509250929050565b60008060006060848603121561292e57600080fd5b6129378461269d565b925060208401356001600160401b038082111561295357600080fd5b61295f878388016126b9565b9350604086013591508082111561297557600080fd5b50612982868287016126b9565b9150509250925092565b6000806040838503121561299f57600080fd5b6129a88361269d565b9150602083013580151581146129bd57600080fd5b809150509250929050565b600080604083850312156129db57600080fd5b6129e48361269d565b946020939093013593505050565b600080600060608486031215612a0757600080fd5b612a108461269d565b95602085013595506040909401359392505050565b60008060408385031215612a3857600080fd5b82356001600160401b0380821115612a4f57600080fd5b818501915085601f830112612a6357600080fd5b81356020612a70826130ce565b604051612a7d82826131a6565b8381528281019150858301600585901b870184018b1015612a9d57600080fd5b600096505b84871015612ac757612ab38161269d565b835260019690960195918301918301612aa2565b5096505086013592505080821115612ade57600080fd5b5061290f858286016126b9565b600060208284031215612afd57600080fd5b5035919050565b60008060408385031215612b1757600080fd5b8235915061277a6020840161269d565b600060208284031215612b3957600080fd5b813561243b816132f8565b600060208284031215612b5657600080fd5b815161243b816132f8565b600060208284031215612b7357600080fd5b81356001600160401b03811115612b8957600080fd5b8201601f81018413612b9a57600080fd5b612ba984823560208401612640565b949350505050565b600081518084526020808501945080840160005b83811015612be157815187529582019590820190600101612bc5565b509495945050505050565b60008151808452612c04816020860160208601613128565b601f01601f19169290920160200192915050565b680697066733a2f2f66360bc1b815260008251612c3c816009850160208701613128565b6a17b4b73232bc173539b7b760a91b6009939091019283015250601401919050565b7f416363657373436f6e74726f6c3a206163636f756e7420000000000000000000815260008351612c96816017850160208801613128565b7001034b99036b4b9b9b4b733903937b6329607d1b6017918401918201528351612cc7816028840160208801613128565b01602801949350505050565b6001600160a01b0386811682528516602082015260a060408201819052600090612cff90830186612bb1565b8281036060840152612d118186612bb1565b90508281036080840152612d258185612bec565b98975050505050505050565b6001600160a01b03868116825285166020820152604081018490526060810183905260a060808201819052600090612d6b90830184612bec565b979650505050505050565b60208152600061243b6020830184612bb1565b604081526000612d9c6040830185612bb1565b8281036020840152612dae8185612bb1565b95945050505050565b60208152600061243b6020830184612bec565b60208082526028908201527f455243313135353a204552433131353552656365697665722072656a656374656040820152676420746f6b656e7360c01b606082015260800190565b60208082526025908201527f5468697320746f6b656e2049442068617320616c7265616479206265656e206d6040820152641a5b9d195960da1b606082015260800190565b60208082526024908201527f455243313135353a206275726e20616d6f756e7420657863656564732062616c604082015263616e636560e01b606082015260800190565b60208082526025908201527f455243313135353a207472616e7366657220746f20746865207a65726f206164604082015264647265737360d81b606082015260800190565b60208082526023908201527f455243313135353a206275726e2066726f6d20746865207a65726f206164647260408201526265737360e81b606082015260800190565b6020808252602a908201527f455243313135353a20696e73756666696369656e742062616c616e636520666f60408201526939103a3930b739b332b960b11b606082015260800190565b60208082526024908201527f4661696c656420746f207472616e73666572207061796d656e7420746f207365604082015263363632b960e11b606082015260800190565b6020808252602b908201527f496e697469616c697a61626c653a20636f6e7472616374206973206e6f74206960408201526a6e697469616c697a696e6760a81b606082015260800190565b60208082526029908201527f455243313135353a2073657474696e6720617070726f76616c20737461747573604082015268103337b91039b2b63360b91b606082015260800190565b60208082526028908201527f455243313135353a2069647320616e6420616d6f756e7473206c656e677468206040820152670dad2e6dac2e8c6d60c31b606082015260800190565b60208082526021908201527f455243313135353a206d696e7420746f20746865207a65726f206164647265736040820152607360f81b606082015260800190565b60006001600160401b038211156130e7576130e761323d565b5060051b60200190565b6000821982111561310457613104613211565b500190565b600081600019048311821515161561312357613123613211565b500290565b60005b8381101561314357818101518382015260200161312b565b838111156111ab5750506000910152565b60008161316357613163613211565b506000190190565b600181811c9082168061317f57607f821691505b602082108114156131a057634e487b7160e01b600052602260045260246000fd5b50919050565b601f8201601f191681016001600160401b03811182821017156131cb576131cb61323d565b6040525050565b60006000198214156131e6576131e6613211565b5060010190565b600063ffffffff8083168181141561320757613207613211565b6001019392505050565b634e487b7160e01b600052601160045260246000fd5b634e487b7160e01b600052603260045260246000fd5b634e487b7160e01b600052604160045260246000fd5b600060033d111561326c5760046000803e5060005160e01c5b90565b600060443d101561327d5790565b6040516003193d81016004833e81513d6001600160401b0381602484011181841117156132ac57505050505090565b82850191508151818111156132c45750505050505090565b843d87010160208285010111156132de5750505050505090565b6132ed602082860101876131a6565b509095945050505050565b6001600160e01b0319811681146106e857600080fdfec3d58168c5ae7397731d063d5bbf3d657854427343f4c083240f7aacaa2d0f623a5b873628a2c49bf313473942acc8932f6f84c76b74bf3db0e4d8b51277a623a26469706673582212205709e674941e32951476f97dafc3138ef5b975a919b33ec452f731de4b4ae17064736f6c63430008060033",
  "linkReferences": {},
  "deployedLinkReferences": {}
}