{
  "_format": "hh-sol-artifact-1",
  "contractName": "WNFT",
  "sourceName": "contracts/1155-WNFT.sol",
  "abi": [
    {
      "inputs": [],
      "name": "InvalidPurchaseOperation",
      "type": "error"
    },
    {
      "anonymous": false,
      "inputs": [
        {
          "indexed": true,
          "internalType": "address",
          "name": "account",
          "type": "address"
        },
        {
          "indexed": true,
          "internalType": "address",
          "name": "operator",
          "type": "address"
        },
        {
          "indexed": false,
          "internalType": "bool",
          "name": "approved",
          "type": "bool"
        }
      ],
      "name": "ApprovalForAll",
      "type": "event"
    },
    {
      "anonymous": false,
      "inputs": [
        {
          "indexed": true,
          "internalType": "address",
          "name": "operator",
          "type": "address"
        },
        {
          "indexed": false,
          "internalType": "uint256",
          "name": "cid",
          "type": "uint256"
        },
        {
          "indexed": false,
          "internalType": "uint256",
          "name": "approved",
          "type": "uint256"
        }
      ],
      "name": "ApprovalForCID",
      "type": "event"
    },
    {
      "anonymous": false,
      "inputs": [
        {
          "indexed": true,
          "internalType": "bytes32",
          "name": "role",
          "type": "bytes32"
        },
        {
          "indexed": true,
          "internalType": "bytes32",
          "name": "previousAdminRole",
          "type": "bytes32"
        },
        {
          "indexed": true,
          "internalType": "bytes32",
          "name": "newAdminRole",
          "type": "bytes32"
        }
      ],
      "name": "RoleAdminChanged",
      "type": "event"
    },
    {
      "anonymous": false,
      "inputs": [
        {
          "indexed": true,
          "internalType": "bytes32",
          "name": "role",
          "type": "bytes32"
        },
        {
          "indexed": true,
          "internalType": "address",
          "name": "account",
          "type": "address"
        },
        {
          "indexed": true,
          "internalType": "address",
          "name": "sender",
          "type": "address"
        }
      ],
      "name": "RoleGranted",
      "type": "event"
    },
    {
      "anonymous": false,
      "inputs": [
        {
          "indexed": true,
          "internalType": "bytes32",
          "name": "role",
          "type": "bytes32"
        },
        {
          "indexed": true,
          "internalType": "address",
          "name": "account",
          "type": "address"
        },
        {
          "indexed": true,
          "internalType": "address",
          "name": "sender",
          "type": "address"
        }
      ],
      "name": "RoleRevoked",
      "type": "event"
    },
    {
      "anonymous": false,
      "inputs": [
        {
          "indexed": true,
          "internalType": "address",
          "name": "operator",
          "type": "address"
        },
        {
          "indexed": true,
          "internalType": "address",
          "name": "from",
          "type": "address"
        },
        {
          "indexed": true,
          "internalType": "address",
          "name": "to",
          "type": "address"
        },
        {
          "indexed": false,
          "internalType": "uint256[]",
          "name": "ids",
          "type": "uint256[]"
        },
        {
          "indexed": false,
          "internalType": "uint256[]",
          "name": "values",
          "type": "uint256[]"
        }
      ],
      "name": "TransferBatch",
      "type": "event"
    },
    {
      "anonymous": false,
      "inputs": [
        {
          "indexed": true,
          "internalType": "address",
          "name": "operator",
          "type": "address"
        },
        {
          "indexed": true,
          "internalType": "address",
          "name": "from",
          "type": "address"
        },
        {
          "indexed": true,
          "internalType": "address",
          "name": "to",
          "type": "address"
        },
        {
          "indexed": false,
          "internalType": "uint256",
          "name": "id",
          "type": "uint256"
        },
        {
          "indexed": false,
          "internalType": "uint256",
          "name": "value",
          "type": "uint256"
        }
      ],
      "name": "TransferSingle",
      "type": "event"
    },
    {
      "anonymous": false,
      "inputs": [
        {
          "indexed": false,
          "internalType": "string",
          "name": "value",
          "type": "string"
        },
        {
          "indexed": true,
          "internalType": "uint256",
          "name": "id",
          "type": "uint256"
        }
      ],
      "name": "URI",
      "type": "event"
    },
    {
      "inputs": [],
      "name": "DEFAULT_ADMIN_ROLE",
      "outputs": [
        {
          "internalType": "bytes32",
          "name": "",
          "type": "bytes32"
        }
      ],
      "stateMutability": "view",
      "type": "function"
    },
    {
      "inputs": [],
      "name": "NFT_MINTER_ROLE",
      "outputs": [
        {
          "internalType": "bytes32",
          "name": "",
          "type": "bytes32"
        }
      ],
      "stateMutability": "view",
      "type": "function"
    },
    {
      "inputs": [
        {
          "internalType": "address",
          "name": "account",
          "type": "address"
        },
        {
          "internalType": "uint256",
          "name": "id",
          "type": "uint256"
        }
      ],
      "name": "balanceOf",
      "outputs": [
        {
          "internalType": "uint256",
          "name": "",
          "type": "uint256"
        }
      ],
      "stateMutability": "view",
      "type": "function"
    },
    {
      "inputs": [
        {
          "internalType": "address[]",
          "name": "accounts",
          "type": "address[]"
        },
        {
          "internalType": "uint256[]",
          "name": "ids",
          "type": "uint256[]"
        }
      ],
      "name": "balanceOfBatch",
      "outputs": [
        {
          "internalType": "uint256[]",
          "name": "",
          "type": "uint256[]"
        }
      ],
      "stateMutability": "view",
      "type": "function"
    },
    {
      "inputs": [
        {
          "internalType": "address",
          "name": "account",
          "type": "address"
        },
        {
          "internalType": "uint256",
          "name": "cid",
          "type": "uint256"
        }
      ],
      "name": "burn",
      "outputs": [],
      "stateMutability": "nonpayable",
      "type": "function"
    },
    {
      "inputs": [
        {
          "internalType": "address",
          "name": "account",
          "type": "address"
        },
        {
          "internalType": "uint256[]",
          "name": "ids",
          "type": "uint256[]"
        },
        {
          "internalType": "uint256[]",
          "name": "amounts",
          "type": "uint256[]"
        }
      ],
      "name": "burnBatch",
      "outputs": [],
      "stateMutability": "nonpayable",
      "type": "function"
    },
    {
      "inputs": [
        {
          "internalType": "bytes32",
          "name": "role",
          "type": "bytes32"
        }
      ],
      "name": "getRoleAdmin",
      "outputs": [
        {
          "internalType": "bytes32",
          "name": "",
          "type": "bytes32"
        }
      ],
      "stateMutability": "view",
      "type": "function"
    },
    {
      "inputs": [
        {
          "internalType": "bytes32",
          "name": "role",
          "type": "bytes32"
        },
        {
          "internalType": "address",
          "name": "account",
          "type": "address"
        }
      ],
      "name": "grantRole",
      "outputs": [],
      "stateMutability": "nonpayable",
      "type": "function"
    },
    {
      "inputs": [
        {
          "internalType": "bytes32",
          "name": "role",
          "type": "bytes32"
        },
        {
          "internalType": "address",
          "name": "account",
          "type": "address"
        }
      ],
      "name": "hasRole",
      "outputs": [
        {
          "internalType": "bool",
          "name": "",
          "type": "bool"
        }
      ],
      "stateMutability": "view",
      "type": "function"
    },
    {
      "inputs": [
        {
          "internalType": "uint256",
          "name": "cid",
          "type": "uint256"
        }
      ],
      "name": "holderOf",
      "outputs": [
        {
          "internalType": "address",
          "name": "",
          "type": "address"
        }
      ],
      "stateMutability": "view",
      "type": "function"
    },
    {
      "inputs": [],
      "name": "initialize",
      "outputs": [],
      "stateMutability": "nonpayable",
      "type": "function"
    },
    {
      "inputs": [
        {
          "internalType": "address",
          "name": "operator",
          "type": "address"
        },
        {
          "internalType": "uint256",
          "name": "cid",
          "type": "uint256"
        }
      ],
      "name": "isApprovedFor",
      "outputs": [
        {
          "internalType": "bool",
          "name": "",
          "type": "bool"
        }
      ],
      "stateMutability": "view",
      "type": "function"
    },
    {
      "inputs": [
        {
          "internalType": "address",
          "name": "account",
          "type": "address"
        },
        {
          "internalType": "address",
          "name": "operator",
          "type": "address"
        }
      ],
      "name": "isApprovedForAll",
      "outputs": [
        {
          "internalType": "bool",
          "name": "",
          "type": "bool"
        }
      ],
      "stateMutability": "view",
      "type": "function"
    },
    {
      "inputs": [
        {
          "internalType": "address",
          "name": "account",
          "type": "address"
        },
        {
          "internalType": "uint256",
          "name": "cid",
          "type": "uint256"
        }
      ],
      "name": "mint",
      "outputs": [],
      "stateMutability": "nonpayable",
      "type": "function"
    },
    {
      "inputs": [
        {
          "internalType": "address",
          "name": "to",
          "type": "address"
        },
        {
          "internalType": "uint256[]",
          "name": "cids",
          "type": "uint256[]"
        }
      ],
      "name": "mintBatch",
      "outputs": [],
      "stateMutability": "nonpayable",
      "type": "function"
    },
    {
      "inputs": [
        {
          "internalType": "bytes32",
          "name": "role",
          "type": "bytes32"
        },
        {
          "internalType": "address",
          "name": "account",
          "type": "address"
        }
      ],
      "name": "renounceRole",
      "outputs": [],
      "stateMutability": "nonpayable",
      "type": "function"
    },
    {
      "inputs": [
        {
          "internalType": "bytes32",
          "name": "role",
          "type": "bytes32"
        },
        {
          "internalType": "address",
          "name": "account",
          "type": "address"
        }
      ],
      "name": "revokeRole",
      "outputs": [],
      "stateMutability": "nonpayable",
      "type": "function"
    },
    {
      "inputs": [
        {
          "internalType": "address",
          "name": "from",
          "type": "address"
        },
        {
          "internalType": "address",
          "name": "to",
          "type": "address"
        },
        {
          "internalType": "uint256[]",
          "name": "ids",
          "type": "uint256[]"
        },
        {
          "internalType": "uint256[]",
          "name": "amounts",
          "type": "uint256[]"
        },
        {
          "internalType": "bytes",
          "name": "data",
          "type": "bytes"
        }
      ],
      "name": "safeBatchTransferFrom",
      "outputs": [],
      "stateMutability": "nonpayable",
      "type": "function"
    },
    {
      "inputs": [
        {
          "internalType": "uint256",
          "name": "cid",
          "type": "uint256"
        }
      ],
      "name": "safePurchase",
      "outputs": [],
      "stateMutability": "payable",
      "type": "function"
    },
    {
      "inputs": [
        {
          "internalType": "address",
          "name": "from",
          "type": "address"
        },
        {
          "internalType": "address",
          "name": "to",
          "type": "address"
        },
        {
          "internalType": "uint256",
          "name": "id",
          "type": "uint256"
        },
        {
          "internalType": "uint256",
          "name": "amount",
          "type": "uint256"
        },
        {
          "internalType": "bytes",
          "name": "data",
          "type": "bytes"
        }
      ],
      "name": "safeTransferFrom",
      "outputs": [],
      "stateMutability": "nonpayable",
      "type": "function"
    },
    {
      "inputs": [
        {
          "internalType": "address",
          "name": "operator",
          "type": "address"
        },
        {
          "internalType": "uint256",
          "name": "cid",
          "type": "uint256"
        },
        {
          "internalType": "uint256",
          "name": "approved",
          "type": "uint256"
        }
      ],
      "name": "setApprovalFor",
      "outputs": [],
      "stateMutability": "nonpayable",
      "type": "function"
    },
    {
      "inputs": [
        {
          "internalType": "address",
          "name": "operator",
          "type": "address"
        },
        {
          "internalType": "bool",
          "name": "approved",
          "type": "bool"
        }
      ],
      "name": "setApprovalForAll",
      "outputs": [],
      "stateMutability": "nonpayable",
      "type": "function"
    },
    {
      "inputs": [
        {
          "internalType": "string",
          "name": "newuri",
          "type": "string"
        }
      ],
      "name": "setURI",
      "outputs": [],
      "stateMutability": "nonpayable",
      "type": "function"
    },
    {
      "inputs": [
        {
          "internalType": "bytes4",
          "name": "interfaceId",
          "type": "bytes4"
        }
      ],
      "name": "supportsInterface",
      "outputs": [
        {
          "internalType": "bool",
          "name": "",
          "type": "bool"
        }
      ],
      "stateMutability": "view",
      "type": "function"
    },
    {
      "inputs": [
        {
          "internalType": "address",
          "name": "from",
          "type": "address"
        },
        {
          "internalType": "address",
          "name": "to",
          "type": "address"
        },
        {
          "internalType": "uint256",
          "name": "cid",
          "type": "uint256"
        }
      ],
      "name": "transfer",
      "outputs": [],
      "stateMutability": "nonpayable",
      "type": "function"
    },
    {
      "inputs": [],
      "name": "upgrade",
      "outputs": [],
      "stateMutability": "nonpayable",
      "type": "function"
    },
    {
      "inputs": [
        {
          "internalType": "uint256",
          "name": "_tokenId",
          "type": "uint256"
        }
      ],
      "name": "uri",
      "outputs": [
        {
          "internalType": "string",
          "name": "",
          "type": "string"
        }
      ],
      "stateMutability": "view",
      "type": "function"
    },
    {
      "inputs": [],
      "name": "version",
      "outputs": [
        {
          "internalType": "uint32",
          "name": "",
          "type": "uint32"
        }
      ],
      "stateMutability": "view",
      "type": "function"
    }
  ],
  "bytecode": "0x608060405234801561001057600080fd5b50615cd480620000216000396000f3fe6080604052600436106101b65760003560e01c806375ceb341116100ec578063beabacc81161008a578063d55ec69711610064578063d55ec69714610606578063dbacc2371461061d578063e985e9c51461065a578063f242432a14610697576101b6565b8063beabacc814610589578063c0833ee4146105b2578063d547741f146105dd576101b6565b80639dc29fac116100c65780639dc29fac146104e3578063a217fddf1461050c578063a22cb46514610537578063ba3dad8414610560576101b6565b806375ceb341146104665780638129fc1c1461048f57806391d14854146104a6576101b6565b806336568abe116101595780634e1273f4116101335780634e1273f4146103b957806354fd4d50146103f65780636b20c45414610421578063738f54691461044a576101b6565b806336568abe1461032a578063390ff1341461035357806340c10f1914610390576101b6565b80630e89341c116101955780630e89341c1461025e578063248a9ca31461029b5780632eb2c2d6146102d85780632f2ff15d14610301576101b6565b8062fdd58e146101bb57806301ffc9a7146101f857806302fe530514610235575b600080fd5b3480156101c757600080fd5b506101e260048036038101906101dd919061410d565b6106c0565b6040516101ef9190614e92565b60405180910390f35b34801561020457600080fd5b5061021f600480360381019061021a9190614285565b61078a565b60405161022c9190614ada565b60405180910390f35b34801561024157600080fd5b5061025c600480360381019061025791906142df565b61079c565b005b34801561026a57600080fd5b5061028560048036038101906102809190614328565b6107f4565b6040516102929190614b10565b60405180910390f35b3480156102a757600080fd5b506102c260048036038101906102bd9190614218565b61082a565b6040516102cf9190614af5565b60405180910390f35b3480156102e457600080fd5b506102ff60048036038101906102fa9190613e2d565b61084a565b005b34801561030d57600080fd5b5061032860048036038101906103239190614245565b6108eb565b005b34801561033657600080fd5b50610351600480360381019061034c9190614245565b610914565b005b34801561035f57600080fd5b5061037a6004803603810190610375919061410d565b610997565b6040516103879190614ada565b60405180910390f35b34801561039c57600080fd5b506103b760048036038101906103b2919061410d565b6109f5565b005b3480156103c557600080fd5b506103e060048036038101906103db91906141a0565b610b75565b6040516103ed9190614a81565b60405180910390f35b34801561040257600080fd5b5061040b610c8e565b6040516104189190614ed6565b60405180910390f35b34801561042d57600080fd5b5061044860048036038101906104439190614042565b610ca4565b005b610464600480360381019061045f9190614328565b610d00565b005b34801561047257600080fd5b5061048d60048036038101906104889190613fe6565b611128565b005b34801561049b57600080fd5b506104a46113f4565b005b3480156104b257600080fd5b506104cd60048036038101906104c89190614245565b611542565b6040516104da9190614ada565b60405180910390f35b3480156104ef57600080fd5b5061050a6004803603810190610505919061410d565b6115ad565b005b34801561051857600080fd5b5061052161165f565b60405161052e9190614af5565b60405180910390f35b34801561054357600080fd5b5061055e600480360381019061055991906140cd565b611666565b005b34801561056c57600080fd5b506105876004803603810190610582919061414d565b6117e7565b005b34801561059557600080fd5b506105b060048036038101906105ab9190613efc565b6119af565b005b3480156105be57600080fd5b506105c7611a4c565b6040516105d49190614af5565b60405180910390f35b3480156105e957600080fd5b5061060460048036038101906105ff9190614245565b611a70565b005b34801561061257600080fd5b5061061b611a99565b005b34801561062957600080fd5b50610644600480360381019061063f9190614328565b611b28565b60405161065191906149a4565b60405180910390f35b34801561066657600080fd5b50610681600480360381019061067c9190613ded565b611b65565b60405161068e9190614ada565b60405180910390f35b3480156106a357600080fd5b506106be60048036038101906106b99190613f4f565b611bf9565b005b60008073ffffffffffffffffffffffffffffffffffffffff168373ffffffffffffffffffffffffffffffffffffffff161415610731576040517f08c379a000000000000000000000000000000000000000000000000000000000815260040161072890614bb2565b60405180910390fd5b6065600083815260200190815260200160002060008473ffffffffffffffffffffffffffffffffffffffff1673ffffffffffffffffffffffffffffffffffffffff16815260200190815260200160002054905092915050565b600061079582611c9a565b9050919050565b6107a96000801b33611542565b6107e8576040517f08c379a00000000000000000000000000000000000000000000000000000000081526004016107df90614c52565b60405180910390fd5b6107f181611d14565b50565b60608061080083611d2e565b9050806040516020016108139190614928565b604051602081830303815290604052915050919050565b600060976000838152602001908152602001600020600101549050919050565b610852611ea3565b73ffffffffffffffffffffffffffffffffffffffff168573ffffffffffffffffffffffffffffffffffffffff161480610898575061089785610892611ea3565b611b65565b5b6108d7576040517f08c379a00000000000000000000000000000000000000000000000000000000081526004016108ce90614c92565b60405180910390fd5b6108e48585858585611eab565b5050505050565b6108f48261082a565b61090581610900611ea3565b6121c2565b61090f838361225f565b505050565b61091c611ea3565b73ffffffffffffffffffffffffffffffffffffffff168173ffffffffffffffffffffffffffffffffffffffff1614610989576040517f08c379a000000000000000000000000000000000000000000000000000000000815260040161098090614e72565b60405180910390fd5b6109938282612340565b5050565b60008060c9600084815260200190815260200160002060008573ffffffffffffffffffffffffffffffffffffffff1673ffffffffffffffffffffffffffffffffffffffff168152602001908152602001600020541415905092915050565b600073ffffffffffffffffffffffffffffffffffffffff1660ca600083815260200190815260200160002060009054906101000a900473ffffffffffffffffffffffffffffffffffffffff1673ffffffffffffffffffffffffffffffffffffffff1614610a97576040517f08c379a0000000000000000000000000000000000000000000000000000000008152600401610a8e90614b92565b60405180910390fd5b610ac17f3a5b873628a2c49bf313473942acc8932f6f84c76b74bf3db0e4d8b51277a62333611542565b610b00576040517f08c379a0000000000000000000000000000000000000000000000000000000008152600401610af790614db2565b60405180910390fd5b8160ca600083815260200190815260200160002060006101000a81548173ffffffffffffffffffffffffffffffffffffffff021916908373ffffffffffffffffffffffffffffffffffffffff160217905550610b718282600160ff1660405180602001604052806000815250612422565b5050565b60608151835114610bbb576040517f08c379a0000000000000000000000000000000000000000000000000000000008152600401610bb290614e12565b60405180910390fd5b6000835167ffffffffffffffff811115610bd857610bd7615367565b5b604051908082528060200260200182016040528015610c065781602001602082028036833780820191505090505b50905060005b8451811015610c8357610c53858281518110610c2b57610c2a615338565b5b6020026020010151858381518110610c4657610c45615338565b5b60200260200101516106c0565b828281518110610c6657610c65615338565b5b60200260200101818152505080610c7c90615264565b9050610c0c565b508091505092915050565b60cb60009054906101000a900463ffffffff1681565b610cb16000801b33611542565b610cf0576040517f08c379a0000000000000000000000000000000000000000000000000000000008152600401610ce790614d12565b60405180910390fd5b610cfb8383836125b9565b505050565b600073ffffffffffffffffffffffffffffffffffffffff1660ca600083815260200190815260200160002060009054906101000a900473ffffffffffffffffffffffffffffffffffffffff1673ffffffffffffffffffffffffffffffffffffffff161415610da3576040517f08c379a0000000000000000000000000000000000000000000000000000000008152600401610d9a90614c32565b60405180910390fd5b3373ffffffffffffffffffffffffffffffffffffffff1660ca600083815260200190815260200160002060009054906101000a900473ffffffffffffffffffffffffffffffffffffffff1673ffffffffffffffffffffffffffffffffffffffff161415610e45576040517f08c379a0000000000000000000000000000000000000000000000000000000008152600401610e3c90614bd2565b60405180910390fd5b610e4f3382610997565b610e8e576040517f08c379a0000000000000000000000000000000000000000000000000000000008152600401610e8590614d92565b60405180910390fd5b60c9600082815260200190815260200160002060003373ffffffffffffffffffffffffffffffffffffffff1673ffffffffffffffffffffffffffffffffffffffff168152602001908152602001600020543414610f20576040517f08c379a0000000000000000000000000000000000000000000000000000000008152600401610f1790614d32565b60405180910390fd5b600060ca600083815260200190815260200160002060009054906101000a900473ffffffffffffffffffffffffffffffffffffffff16905060008173ffffffffffffffffffffffffffffffffffffffff1634604051610f7e90614955565b60006040518083038185875af1925050503d8060008114610fbb576040519150601f19603f3d011682016040523d82523d6000602084013e610fc0565b606091505b5050905080611004576040517f08c379a0000000000000000000000000000000000000000000000000000000008152600401610ffb90614d72565b60405180910390fd5b61107d60ca600085815260200190815260200160002060009054906101000a900473ffffffffffffffffffffffffffffffffffffffff163385600160ff166040518060400160405280600381526020017f307830000000000000000000000000000000000000000000000000000000000081525061286c565b60c9600084815260200190815260200160002060003373ffffffffffffffffffffffffffffffffffffffff1673ffffffffffffffffffffffffffffffffffffffff168152602001908152602001600020600090553360ca600085815260200190815260200160002060006101000a81548173ffffffffffffffffffffffffffffffffffffffff021916908373ffffffffffffffffffffffffffffffffffffffff160217905550505050565b6111527f3a5b873628a2c49bf313473942acc8932f6f84c76b74bf3db0e4d8b51277a62333611542565b611191576040517f08c379a000000000000000000000000000000000000000000000000000000000815260040161118890614db2565b60405180910390fd5b6000815167ffffffffffffffff8111156111ae576111ad615367565b5b6040519080825280602002602001820160405280156111dc5781602001602082028036833780820191505090505b5090506000825167ffffffffffffffff8111156111fc576111fb615367565b5b60405190808252806020026020018201604052801561122a5781602001602082028036833780820191505090505b50905060005b83518110156113d257600073ffffffffffffffffffffffffffffffffffffffff1660ca600086848151811061126857611267615338565b5b6020026020010151815260200190815260200160002060009054906101000a900473ffffffffffffffffffffffffffffffffffffffff1673ffffffffffffffffffffffffffffffffffffffff16146112f5576040517f08c379a00000000000000000000000000000000000000000000000000000000081526004016112ec90614b92565b60405180910390fd5b83818151811061130857611307615338565b5b602002602001015183828151811061132357611322615338565b5b6020026020010181815250508460ca600085848151811061134757611346615338565b5b6020026020010151815260200190815260200160002060006101000a81548173ffffffffffffffffffffffffffffffffffffffff021916908373ffffffffffffffffffffffffffffffffffffffff160217905550600160ff168282815181106113b3576113b2615338565b5b60200260200101818152505080806113ca90615264565b915050611230565b506113ee84838360405180602001604052806000815250612af1565b50505050565b600060019054906101000a900460ff168061141a575060008054906101000a900460ff16155b611459576040517f08c379a000000000000000000000000000000000000000000000000000000000815260040161145090614cb2565b60405180910390fd5b60008060019054906101000a900460ff1615905080156114a9576001600060016101000a81548160ff02191690831515021790555060016000806101000a81548160ff0219169083151502179055505b6114e76040518060400160405280601881526020017f697066733a2f2f66307b69647d2f696e6465782e6a736f6e0000000000000000815250612d10565b6114f46000801b33612e03565b61151e7f3a5b873628a2c49bf313473942acc8932f6f84c76b74bf3db0e4d8b51277a62333612e03565b801561153f5760008060016101000a81548160ff0219169083151502179055505b50565b60006097600084815260200190815260200160002060000160008373ffffffffffffffffffffffffffffffffffffffff1673ffffffffffffffffffffffffffffffffffffffff16815260200190815260200160002060009054906101000a900460ff16905092915050565b6115ba6000801b33611542565b6115f9576040517f08c379a00000000000000000000000000000000000000000000000000000000081526004016115f090614d12565b60405180910390fd5b6116088282600160ff16612e11565b600060ca600083815260200190815260200160002060006101000a81548173ffffffffffffffffffffffffffffffffffffffff021916908373ffffffffffffffffffffffffffffffffffffffff1602179055505050565b6000801b81565b8173ffffffffffffffffffffffffffffffffffffffff16611685611ea3565b73ffffffffffffffffffffffffffffffffffffffff1614156116dc576040517f08c379a00000000000000000000000000000000000000000000000000000000081526004016116d390614dd2565b60405180910390fd5b80606660006116e9611ea3565b73ffffffffffffffffffffffffffffffffffffffff1673ffffffffffffffffffffffffffffffffffffffff16815260200190815260200160002060008473ffffffffffffffffffffffffffffffffffffffff1673ffffffffffffffffffffffffffffffffffffffff16815260200190815260200160002060006101000a81548160ff0219169083151502179055508173ffffffffffffffffffffffffffffffffffffffff16611796611ea3565b73ffffffffffffffffffffffffffffffffffffffff167f17307eab39ab6107e8899845ad3d59bd9653f200f220920489ca2b5937696c31836040516117db9190614ada565b60405180910390a35050565b8273ffffffffffffffffffffffffffffffffffffffff16611806611ea3565b73ffffffffffffffffffffffffffffffffffffffff16141561185d576040517f08c379a000000000000000000000000000000000000000000000000000000000815260040161185490614dd2565b60405180910390fd5b60ca600083815260200190815260200160002060009054906101000a900473ffffffffffffffffffffffffffffffffffffffff1673ffffffffffffffffffffffffffffffffffffffff166118af611ea3565b73ffffffffffffffffffffffffffffffffffffffff1614611905576040517f08c379a00000000000000000000000000000000000000000000000000000000081526004016118fc90614d52565b60405180910390fd5b8060c9600084815260200190815260200160002060008573ffffffffffffffffffffffffffffffffffffffff1673ffffffffffffffffffffffffffffffffffffffff168152602001908152602001600020819055508273ffffffffffffffffffffffffffffffffffffffff167f0a5d49223cdca66ecee577e644907f9d77e9f5c6743247ebddd0c002ba8083b283836040516119a2929190614ead565b60405180910390a2505050565b6119f5838383600160ff166040518060400160405280600381526020017f3078300000000000000000000000000000000000000000000000000000000000815250611bf9565b8160ca600083815260200190815260200160002060006101000a81548173ffffffffffffffffffffffffffffffffffffffff021916908373ffffffffffffffffffffffffffffffffffffffff160217905550505050565b7f3a5b873628a2c49bf313473942acc8932f6f84c76b74bf3db0e4d8b51277a62381565b611a798261082a565b611a8a81611a85611ea3565b6121c2565b611a948383612340565b505050565b611aa66000801b33611542565b611ae5576040517f08c379a0000000000000000000000000000000000000000000000000000000008152600401611adc90614df2565b60405180910390fd5b60cb600081819054906101000a900463ffffffff1680929190611b07906152ad565b91906101000a81548163ffffffff021916908363ffffffff16021790555050565b600060ca600083815260200190815260200160002060009054906101000a900473ffffffffffffffffffffffffffffffffffffffff169050919050565b6000606660008473ffffffffffffffffffffffffffffffffffffffff1673ffffffffffffffffffffffffffffffffffffffff16815260200190815260200160002060008373ffffffffffffffffffffffffffffffffffffffff1673ffffffffffffffffffffffffffffffffffffffff16815260200190815260200160002060009054906101000a900460ff16905092915050565b611c01611ea3565b73ffffffffffffffffffffffffffffffffffffffff168573ffffffffffffffffffffffffffffffffffffffff161480611c475750611c4685611c41611ea3565b611b65565b5b611c86576040517f08c379a0000000000000000000000000000000000000000000000000000000008152600401611c7d90614c12565b60405180910390fd5b611c93858585858561286c565b5050505050565b60007f7965db0b000000000000000000000000000000000000000000000000000000007bffffffffffffffffffffffffffffffffffffffffffffffffffffffff1916827bffffffffffffffffffffffffffffffffffffffffffffffffffffffff19161480611d0d5750611d0c82613030565b5b9050919050565b8060679080519060200190611d2a929190613ab0565b5050565b60606000821415611d76576040518060400160405280600181526020017f30000000000000000000000000000000000000000000000000000000000000008152509050611e9e565b600082905060005b60008214611da0578080611d9190615264565b915050600482901c9150611d7e565b6000600f905060008267ffffffffffffffff811115611dc257611dc1615367565b5b6040519080825280601f01601f191660200182016040528015611df45781602001600182028036833780820191505090505b50905060008390505b60008714611e95576000838816905060098111611e2957806030611e219190615057565b60f81b611e3a565b806037611e369190615057565b60f81b5b8383611e45906151d7565b93508381518110611e5957611e58615338565b5b60200101907effffffffffffffffffffffffffffffffffffffffffffffffffffffffffffff1916908160001a905350600488901c975050611dfd565b81955050505050505b919050565b600033905090565b8151835114611eef576040517f08c379a0000000000000000000000000000000000000000000000000000000008152600401611ee690614e32565b60405180910390fd5b600073ffffffffffffffffffffffffffffffffffffffff168473ffffffffffffffffffffffffffffffffffffffff161415611f5f576040517f08c379a0000000000000000000000000000000000000000000000000000000008152600401611f5690614c72565b60405180910390fd5b6000611f69611ea3565b9050611f79818787878787613112565b60005b845181101561212d576000858281518110611f9a57611f99615338565b5b602002602001015190506000858381518110611fb957611fb8615338565b5b6020026020010151905060006065600084815260200190815260200160002060008b73ffffffffffffffffffffffffffffffffffffffff1673ffffffffffffffffffffffffffffffffffffffff1681526020019081526020016000205490508181101561205b576040517f08c379a000000000000000000000000000000000000000000000000000000000815260040161205290614cf2565b60405180910390fd5b8181036065600085815260200190815260200160002060008c73ffffffffffffffffffffffffffffffffffffffff1673ffffffffffffffffffffffffffffffffffffffff16815260200190815260200160002081905550816065600085815260200190815260200160002060008b73ffffffffffffffffffffffffffffffffffffffff1673ffffffffffffffffffffffffffffffffffffffff16815260200190815260200160002060008282546121129190615057565b925050819055505050508061212690615264565b9050611f7c565b508473ffffffffffffffffffffffffffffffffffffffff168673ffffffffffffffffffffffffffffffffffffffff168273ffffffffffffffffffffffffffffffffffffffff167f4a39dc06d4c0dbc64b70af90fd698a233a518aa5d07e595d983b8c0526c8f7fb87876040516121a4929190614aa3565b60405180910390a46121ba81878787878761311a565b505050505050565b6121cc8282611542565b61225b576121f18173ffffffffffffffffffffffffffffffffffffffff166014613301565b6121ff8360001c6020613301565b60405160200161221092919061496a565b6040516020818303038152906040526040517f08c379a00000000000000000000000000000000000000000000000000000000081526004016122529190614b10565b60405180910390fd5b5050565b6122698282611542565b61233c5760016097600084815260200190815260200160002060000160008373ffffffffffffffffffffffffffffffffffffffff1673ffffffffffffffffffffffffffffffffffffffff16815260200190815260200160002060006101000a81548160ff0219169083151502179055506122e1611ea3565b73ffffffffffffffffffffffffffffffffffffffff168173ffffffffffffffffffffffffffffffffffffffff16837f2f8788117e7eff1d82e926ec794901d17c78024a50270940304540a733656f0d60405160405180910390a45b5050565b61234a8282611542565b1561241e5760006097600084815260200190815260200160002060000160008373ffffffffffffffffffffffffffffffffffffffff1673ffffffffffffffffffffffffffffffffffffffff16815260200190815260200160002060006101000a81548160ff0219169083151502179055506123c3611ea3565b73ffffffffffffffffffffffffffffffffffffffff168173ffffffffffffffffffffffffffffffffffffffff16837ff6391f5c32d9c69d2a47ea670b442974b53935d1edc7fd64eb21e047a839171b60405160405180910390a45b5050565b600073ffffffffffffffffffffffffffffffffffffffff168473ffffffffffffffffffffffffffffffffffffffff161415612492576040517f08c379a000000000000000000000000000000000000000000000000000000000815260040161248990614e52565b60405180910390fd5b600061249c611ea3565b90506124bd816000876124ae8861353d565b6124b78861353d565b87613112565b826065600086815260200190815260200160002060008773ffffffffffffffffffffffffffffffffffffffff1673ffffffffffffffffffffffffffffffffffffffff168152602001908152602001600020600082825461251d9190615057565b925050819055508473ffffffffffffffffffffffffffffffffffffffff16600073ffffffffffffffffffffffffffffffffffffffff168273ffffffffffffffffffffffffffffffffffffffff167fc3d58168c5ae7397731d063d5bbf3d657854427343f4c083240f7aacaa2d0f62878760405161259b929190614ead565b60405180910390a46125b2816000878787876135b7565b5050505050565b600073ffffffffffffffffffffffffffffffffffffffff168373ffffffffffffffffffffffffffffffffffffffff161415612629576040517f08c379a000000000000000000000000000000000000000000000000000000000815260040161262090614cd2565b60405180910390fd5b805182511461266d576040517f08c379a000000000000000000000000000000000000000000000000000000000815260040161266490614e32565b60405180910390fd5b6000612677611ea3565b905061269781856000868660405180602001604052806000815250613112565b60005b83518110156127e65760008482815181106126b8576126b7615338565b5b6020026020010151905060008483815181106126d7576126d6615338565b5b6020026020010151905060006065600084815260200190815260200160002060008973ffffffffffffffffffffffffffffffffffffffff1673ffffffffffffffffffffffffffffffffffffffff16815260200190815260200160002054905081811015612779576040517f08c379a000000000000000000000000000000000000000000000000000000000815260040161277090614bf2565b60405180910390fd5b8181036065600085815260200190815260200160002060008a73ffffffffffffffffffffffffffffffffffffffff1673ffffffffffffffffffffffffffffffffffffffff1681526020019081526020016000208190555050505080806127de90615264565b91505061269a565b50600073ffffffffffffffffffffffffffffffffffffffff168473ffffffffffffffffffffffffffffffffffffffff168273ffffffffffffffffffffffffffffffffffffffff167f4a39dc06d4c0dbc64b70af90fd698a233a518aa5d07e595d983b8c0526c8f7fb868660405161285e929190614aa3565b60405180910390a450505050565b600073ffffffffffffffffffffffffffffffffffffffff168473ffffffffffffffffffffffffffffffffffffffff1614156128dc576040517f08c379a00000000000000000000000000000000000000000000000000000000081526004016128d390614c72565b60405180910390fd5b60006128e6611ea3565b90506129068187876128f78861353d565b6129008861353d565b87613112565b60006065600086815260200190815260200160002060008873ffffffffffffffffffffffffffffffffffffffff1673ffffffffffffffffffffffffffffffffffffffff1681526020019081526020016000205490508381101561299e576040517f08c379a000000000000000000000000000000000000000000000000000000000815260040161299590614cf2565b60405180910390fd5b8381036065600087815260200190815260200160002060008973ffffffffffffffffffffffffffffffffffffffff1673ffffffffffffffffffffffffffffffffffffffff16815260200190815260200160002081905550836065600087815260200190815260200160002060008873ffffffffffffffffffffffffffffffffffffffff1673ffffffffffffffffffffffffffffffffffffffff1681526020019081526020016000206000828254612a559190615057565b925050819055508573ffffffffffffffffffffffffffffffffffffffff168773ffffffffffffffffffffffffffffffffffffffff168373ffffffffffffffffffffffffffffffffffffffff167fc3d58168c5ae7397731d063d5bbf3d657854427343f4c083240f7aacaa2d0f628888604051612ad2929190614ead565b60405180910390a4612ae88288888888886135b7565b50505050505050565b600073ffffffffffffffffffffffffffffffffffffffff168473ffffffffffffffffffffffffffffffffffffffff161415612b61576040517f08c379a0000000000000000000000000000000000000000000000000000000008152600401612b5890614e52565b60405180910390fd5b8151835114612ba5576040517f08c379a0000000000000000000000000000000000000000000000000000000008152600401612b9c90614e32565b60405180910390fd5b6000612baf611ea3565b9050612bc081600087878787613112565b60005b8451811015612c7a57838181518110612bdf57612bde615338565b5b602002602001015160656000878481518110612bfe57612bfd615338565b5b6020026020010151815260200190815260200160002060008873ffffffffffffffffffffffffffffffffffffffff1673ffffffffffffffffffffffffffffffffffffffff1681526020019081526020016000206000828254612c609190615057565b925050819055508080612c7290615264565b915050612bc3565b508473ffffffffffffffffffffffffffffffffffffffff16600073ffffffffffffffffffffffffffffffffffffffff168273ffffffffffffffffffffffffffffffffffffffff167f4a39dc06d4c0dbc64b70af90fd698a233a518aa5d07e595d983b8c0526c8f7fb8787604051612cf2929190614aa3565b60405180910390a4612d098160008787878761311a565b5050505050565b600060019054906101000a900460ff1680612d36575060008054906101000a900460ff16155b612d75576040517f08c379a0000000000000000000000000000000000000000000000000000000008152600401612d6c90614cb2565b60405180910390fd5b60008060019054906101000a900460ff161590508015612dc5576001600060016101000a81548160ff02191690831515021790555060016000806101000a81548160ff0219169083151502179055505b612dcd61379e565b612dd5613877565b612dde82613950565b8015612dff5760008060016101000a81548160ff0219169083151502179055505b5050565b612e0d828261225f565b5050565b600073ffffffffffffffffffffffffffffffffffffffff168373ffffffffffffffffffffffffffffffffffffffff161415612e81576040517f08c379a0000000000000000000000000000000000000000000000000000000008152600401612e7890614cd2565b60405180910390fd5b6000612e8b611ea3565b9050612ebb81856000612e9d8761353d565b612ea68761353d565b60405180602001604052806000815250613112565b60006065600085815260200190815260200160002060008673ffffffffffffffffffffffffffffffffffffffff1673ffffffffffffffffffffffffffffffffffffffff16815260200190815260200160002054905082811015612f53576040517f08c379a0000000000000000000000000000000000000000000000000000000008152600401612f4a90614bf2565b60405180910390fd5b8281036065600086815260200190815260200160002060008773ffffffffffffffffffffffffffffffffffffffff1673ffffffffffffffffffffffffffffffffffffffff16815260200190815260200160002081905550600073ffffffffffffffffffffffffffffffffffffffff168573ffffffffffffffffffffffffffffffffffffffff168373ffffffffffffffffffffffffffffffffffffffff167fc3d58168c5ae7397731d063d5bbf3d657854427343f4c083240f7aacaa2d0f628787604051613021929190614ead565b60405180910390a45050505050565b60007fd9b67a26000000000000000000000000000000000000000000000000000000007bffffffffffffffffffffffffffffffffffffffffffffffffffffffff1916827bffffffffffffffffffffffffffffffffffffffffffffffffffffffff191614806130fb57507f0e89341c000000000000000000000000000000000000000000000000000000007bffffffffffffffffffffffffffffffffffffffffffffffffffffffff1916827bffffffffffffffffffffffffffffffffffffffffffffffffffffffff1916145b8061310b575061310a82613a33565b5b9050919050565b505050505050565b6131398473ffffffffffffffffffffffffffffffffffffffff16613a9d565b156132f9578373ffffffffffffffffffffffffffffffffffffffff1663bc197c8187878686866040518663ffffffff1660e01b815260040161317f9594939291906149bf565b602060405180830381600087803b15801561319957600080fd5b505af19250505080156131ca57506040513d601f19601f820116820180604052508101906131c791906142b2565b60015b613270576131d6615396565b806308c379a0141561323357506131eb615b95565b806131f65750613235565b806040517f08c379a000000000000000000000000000000000000000000000000000000000815260040161322a9190614b10565b60405180910390fd5b505b6040517f08c379a000000000000000000000000000000000000000000000000000000000815260040161326790614b32565b60405180910390fd5b63bc197c8160e01b7bffffffffffffffffffffffffffffffffffffffffffffffffffffffff1916817bffffffffffffffffffffffffffffffffffffffffffffffffffffffff1916146132f7576040517f08c379a00000000000000000000000000000000000000000000000000000000081526004016132ee90614b72565b60405180910390fd5b505b505050505050565b60606000600283600261331491906150ad565b61331e9190615057565b67ffffffffffffffff81111561333757613336615367565b5b6040519080825280601f01601f1916602001820160405280156133695781602001600182028036833780820191505090505b5090507f3000000000000000000000000000000000000000000000000000000000000000816000815181106133a1576133a0615338565b5b60200101907effffffffffffffffffffffffffffffffffffffffffffffffffffffffffffff1916908160001a9053507f78000000000000000000000000000000000000000000000000000000000000008160018151811061340557613404615338565b5b60200101907effffffffffffffffffffffffffffffffffffffffffffffffffffffffffffff1916908160001a9053506000600184600261344591906150ad565b61344f9190615057565b90505b60018111156134ef577f3031323334353637383961626364656600000000000000000000000000000000600f86166010811061349157613490615338565b5b1a60f81b8282815181106134a8576134a7615338565b5b60200101907effffffffffffffffffffffffffffffffffffffffffffffffffffffffffffff1916908160001a905350600485901c9450806134e8906151d7565b9050613452565b5060008414613533576040517f08c379a000000000000000000000000000000000000000000000000000000000815260040161352a90614b52565b60405180910390fd5b8091505092915050565b60606000600167ffffffffffffffff81111561355c5761355b615367565b5b60405190808252806020026020018201604052801561358a5781602001602082028036833780820191505090505b50905082816000815181106135a2576135a1615338565b5b60200260200101818152505080915050919050565b6135d68473ffffffffffffffffffffffffffffffffffffffff16613a9d565b15613796578373ffffffffffffffffffffffffffffffffffffffff1663f23a6e6187878686866040518663ffffffff1660e01b815260040161361c959493929190614a27565b602060405180830381600087803b15801561363657600080fd5b505af192505050801561366757506040513d601f19601f8201168201806040525081019061366491906142b2565b60015b61370d57613673615396565b806308c379a014156136d05750613688615b95565b8061369357506136d2565b806040517f08c379a00000000000000000000000000000000000000000000000000000000081526004016136c79190614b10565b60405180910390fd5b505b6040517f08c379a000000000000000000000000000000000000000000000000000000000815260040161370490614b32565b60405180910390fd5b63f23a6e6160e01b7bffffffffffffffffffffffffffffffffffffffffffffffffffffffff1916817bffffffffffffffffffffffffffffffffffffffffffffffffffffffff191614613794576040517f08c379a000000000000000000000000000000000000000000000000000000000815260040161378b90614b72565b60405180910390fd5b505b505050505050565b600060019054906101000a900460ff16806137c4575060008054906101000a900460ff16155b613803576040517f08c379a00000000000000000000000000000000000000000000000000000000081526004016137fa90614cb2565b60405180910390fd5b60008060019054906101000a900460ff161590508015613853576001600060016101000a81548160ff02191690831515021790555060016000806101000a81548160ff0219169083151502179055505b80156138745760008060016101000a81548160ff0219169083151502179055505b50565b600060019054906101000a900460ff168061389d575060008054906101000a900460ff16155b6138dc576040517f08c379a00000000000000000000000000000000000000000000000000000000081526004016138d390614cb2565b60405180910390fd5b60008060019054906101000a900460ff16159050801561392c576001600060016101000a81548160ff02191690831515021790555060016000806101000a81548160ff0219169083151502179055505b801561394d5760008060016101000a81548160ff0219169083151502179055505b50565b600060019054906101000a900460ff1680613976575060008054906101000a900460ff16155b6139b5576040517f08c379a00000000000000000000000000000000000000000000000000000000081526004016139ac90614cb2565b60405180910390fd5b60008060019054906101000a900460ff161590508015613a05576001600060016101000a81548160ff02191690831515021790555060016000806101000a81548160ff0219169083151502179055505b613a0e82611d14565b8015613a2f5760008060016101000a81548160ff0219169083151502179055505b5050565b60007f01ffc9a7000000000000000000000000000000000000000000000000000000007bffffffffffffffffffffffffffffffffffffffffffffffffffffffff1916827bffffffffffffffffffffffffffffffffffffffffffffffffffffffff1916149050919050565b600080823b905060008111915050919050565b828054613abc90615201565b90600052602060002090601f016020900481019282613ade5760008555613b25565b82601f10613af757805160ff1916838001178555613b25565b82800160010185558215613b25579182015b82811115613b24578251825591602001919060010190613b09565b5b509050613b329190613b36565b5090565b5b80821115613b4f576000816000905550600101613b37565b5090565b6000613b66613b6184614f16565b614ef1565b90508083825260208201905082856020860282011115613b8957613b886153bd565b5b60005b85811015613bb95781613b9f8882613cb7565b845260208401935060208301925050600181019050613b8c565b5050509392505050565b6000613bd6613bd184614f42565b614ef1565b90508083825260208201905082856020860282011115613bf957613bf86153bd565b5b60005b85811015613c295781613c0f8882613dd8565b845260208401935060208301925050600181019050613bfc565b5050509392505050565b6000613c46613c4184614f6e565b614ef1565b905082815260208101848484011115613c6257613c616153c2565b5b613c6d848285615195565b509392505050565b6000613c88613c8384614f9f565b614ef1565b905082815260208101848484011115613ca457613ca36153c2565b5b613caf848285615195565b509392505050565b600081359050613cc681615c2b565b92915050565b600082601f830112613ce157613ce06153b8565b5b8135613cf1848260208601613b53565b91505092915050565b600082601f830112613d0f57613d0e6153b8565b5b8135613d1f848260208601613bc3565b91505092915050565b600081359050613d3781615c42565b92915050565b600081359050613d4c81615c59565b92915050565b600081359050613d6181615c70565b92915050565b600081519050613d7681615c70565b92915050565b600082601f830112613d9157613d906153b8565b5b8135613da1848260208601613c33565b91505092915050565b600082601f830112613dbf57613dbe6153b8565b5b8135613dcf848260208601613c75565b91505092915050565b600081359050613de781615c87565b92915050565b60008060408385031215613e0457613e036153cc565b5b6000613e1285828601613cb7565b9250506020613e2385828601613cb7565b9150509250929050565b600080600080600060a08688031215613e4957613e486153cc565b5b6000613e5788828901613cb7565b9550506020613e6888828901613cb7565b945050604086013567ffffffffffffffff811115613e8957613e886153c7565b5b613e9588828901613cfa565b935050606086013567ffffffffffffffff811115613eb657613eb56153c7565b5b613ec288828901613cfa565b925050608086013567ffffffffffffffff811115613ee357613ee26153c7565b5b613eef88828901613d7c565b9150509295509295909350565b600080600060608486031215613f1557613f146153cc565b5b6000613f2386828701613cb7565b9350506020613f3486828701613cb7565b9250506040613f4586828701613dd8565b9150509250925092565b600080600080600060a08688031215613f6b57613f6a6153cc565b5b6000613f7988828901613cb7565b9550506020613f8a88828901613cb7565b9450506040613f9b88828901613dd8565b9350506060613fac88828901613dd8565b925050608086013567ffffffffffffffff811115613fcd57613fcc6153c7565b5b613fd988828901613d7c565b9150509295509295909350565b60008060408385031215613ffd57613ffc6153cc565b5b600061400b85828601613cb7565b925050602083013567ffffffffffffffff81111561402c5761402b6153c7565b5b61403885828601613cfa565b9150509250929050565b60008060006060848603121561405b5761405a6153cc565b5b600061406986828701613cb7565b935050602084013567ffffffffffffffff81111561408a576140896153c7565b5b61409686828701613cfa565b925050604084013567ffffffffffffffff8111156140b7576140b66153c7565b5b6140c386828701613cfa565b9150509250925092565b600080604083850312156140e4576140e36153cc565b5b60006140f285828601613cb7565b925050602061410385828601613d28565b9150509250929050565b60008060408385031215614124576141236153cc565b5b600061413285828601613cb7565b925050602061414385828601613dd8565b9150509250929050565b600080600060608486031215614166576141656153cc565b5b600061417486828701613cb7565b935050602061418586828701613dd8565b925050604061419686828701613dd8565b9150509250925092565b600080604083850312156141b7576141b66153cc565b5b600083013567ffffffffffffffff8111156141d5576141d46153c7565b5b6141e185828601613ccc565b925050602083013567ffffffffffffffff811115614202576142016153c7565b5b61420e85828601613cfa565b9150509250929050565b60006020828403121561422e5761422d6153cc565b5b600061423c84828501613d3d565b91505092915050565b6000806040838503121561425c5761425b6153cc565b5b600061426a85828601613d3d565b925050602061427b85828601613cb7565b9150509250929050565b60006020828403121561429b5761429a6153cc565b5b60006142a984828501613d52565b91505092915050565b6000602082840312156142c8576142c76153cc565b5b60006142d684828501613d67565b91505092915050565b6000602082840312156142f5576142f46153cc565b5b600082013567ffffffffffffffff811115614313576143126153c7565b5b61431f84828501613daa565b91505092915050565b60006020828403121561433e5761433d6153cc565b5b600061434c84828501613dd8565b91505092915050565b600061436183836148fb565b60208301905092915050565b61437681615107565b82525050565b600061438782614fe0565b614391818561500e565b935061439c83614fd0565b8060005b838110156143cd5781516143b48882614355565b97506143bf83615001565b9250506001810190506143a0565b5085935050505092915050565b6143e381615119565b82525050565b6143f281615125565b82525050565b600061440382614feb565b61440d818561501f565b935061441d8185602086016151a4565b614426816153d1565b840191505092915050565b600061443c82614ff6565b614446818561503b565b93506144568185602086016151a4565b61445f816153d1565b840191505092915050565b600061447582614ff6565b61447f818561504c565b935061448f8185602086016151a4565b80840191505092915050565b60006144a860348361503b565b91506144b3826153ef565b604082019050919050565b60006144cb60098361504c565b91506144d68261543e565b600982019050919050565b60006144ee60208361503b565b91506144f982615467565b602082019050919050565b600061451160288361503b565b915061451c82615490565b604082019050919050565b600061453460258361503b565b915061453f826154df565b604082019050919050565b6000614557602b8361503b565b91506145628261552e565b604082019050919050565b600061457a600d8361503b565b91506145858261557d565b602082019050919050565b600061459d60248361503b565b91506145a8826155a6565b604082019050919050565b60006145c060298361503b565b91506145cb826155f5565b604082019050919050565b60006145e3600b8361503b565b91506145ee82615644565b602082019050919050565b6000614606600b8361504c565b91506146118261566d565b600b82019050919050565b600061462960168361503b565b915061463482615696565b602082019050919050565b600061464c60258361503b565b9150614657826156bf565b604082019050919050565b600061466f60328361503b565b915061467a8261570e565b604082019050919050565b6000614692602e8361503b565b915061469d8261575d565b604082019050919050565b60006146b560238361503b565b91506146c0826157ac565b604082019050919050565b60006146d8602a8361503b565b91506146e3826157fb565b604082019050919050565b60006146fb60148361503b565b91506147068261584a565b602082019050919050565b600061471e601f8361503b565b915061472982615873565b602082019050919050565b600061474160238361503b565b915061474c8261589c565b604082019050919050565b600061476460248361503b565b915061476f826158eb565b604082019050919050565b600061478760208361503b565b91506147928261593a565b602082019050919050565b60006147aa600083615030565b91506147b582615963565b600082019050919050565b60006147cd60178361504c565b91506147d882615966565b601782019050919050565b60006147f060158361503b565b91506147fb8261598f565b602082019050919050565b600061481360298361503b565b915061481e826159b8565b604082019050919050565b6000614836601a8361503b565b915061484182615a07565b602082019050919050565b600061485960298361503b565b915061486482615a30565b604082019050919050565b600061487c60288361503b565b915061488782615a7f565b604082019050919050565b600061489f60218361503b565b91506148aa82615ace565b604082019050919050565b60006148c260118361504c565b91506148cd82615b1d565b601182019050919050565b60006148e5602f8361503b565b91506148f082615b46565b604082019050919050565b6149048161517b565b82525050565b6149138161517b565b82525050565b61492281615185565b82525050565b6000614933826144be565b915061493f828461446a565b915061494a826145f9565b915081905092915050565b60006149608261479d565b9150819050919050565b6000614975826147c0565b9150614981828561446a565b915061498c826148b5565b9150614998828461446a565b91508190509392505050565b60006020820190506149b9600083018461436d565b92915050565b600060a0820190506149d4600083018861436d565b6149e1602083018761436d565b81810360408301526149f3818661437c565b90508181036060830152614a07818561437c565b90508181036080830152614a1b81846143f8565b90509695505050505050565b600060a082019050614a3c600083018861436d565b614a49602083018761436d565b614a56604083018661490a565b614a63606083018561490a565b8181036080830152614a7581846143f8565b90509695505050505050565b60006020820190508181036000830152614a9b818461437c565b905092915050565b60006040820190508181036000830152614abd818561437c565b90508181036020830152614ad1818461437c565b90509392505050565b6000602082019050614aef60008301846143da565b92915050565b6000602082019050614b0a60008301846143e9565b92915050565b60006020820190508181036000830152614b2a8184614431565b905092915050565b60006020820190508181036000830152614b4b8161449b565b9050919050565b60006020820190508181036000830152614b6b816144e1565b9050919050565b60006020820190508181036000830152614b8b81614504565b9050919050565b60006020820190508181036000830152614bab81614527565b9050919050565b60006020820190508181036000830152614bcb8161454a565b9050919050565b60006020820190508181036000830152614beb8161456d565b9050919050565b60006020820190508181036000830152614c0b81614590565b9050919050565b60006020820190508181036000830152614c2b816145b3565b9050919050565b60006020820190508181036000830152614c4b816145d6565b9050919050565b60006020820190508181036000830152614c6b8161461c565b9050919050565b60006020820190508181036000830152614c8b8161463f565b9050919050565b60006020820190508181036000830152614cab81614662565b9050919050565b60006020820190508181036000830152614ccb81614685565b9050919050565b60006020820190508181036000830152614ceb816146a8565b9050919050565b60006020820190508181036000830152614d0b816146cb565b9050919050565b60006020820190508181036000830152614d2b816146ee565b9050919050565b60006020820190508181036000830152614d4b81614711565b9050919050565b60006020820190508181036000830152614d6b81614734565b9050919050565b60006020820190508181036000830152614d8b81614757565b9050919050565b60006020820190508181036000830152614dab8161477a565b9050919050565b60006020820190508181036000830152614dcb816147e3565b9050919050565b60006020820190508181036000830152614deb81614806565b9050919050565b60006020820190508181036000830152614e0b81614829565b9050919050565b60006020820190508181036000830152614e2b8161484c565b9050919050565b60006020820190508181036000830152614e4b8161486f565b9050919050565b60006020820190508181036000830152614e6b81614892565b9050919050565b60006020820190508181036000830152614e8b816148d8565b9050919050565b6000602082019050614ea7600083018461490a565b92915050565b6000604082019050614ec2600083018561490a565b614ecf602083018461490a565b9392505050565b6000602082019050614eeb6000830184614919565b92915050565b6000614efb614f0c565b9050614f078282615233565b919050565b6000604051905090565b600067ffffffffffffffff821115614f3157614f30615367565b5b602082029050602081019050919050565b600067ffffffffffffffff821115614f5d57614f5c615367565b5b602082029050602081019050919050565b600067ffffffffffffffff821115614f8957614f88615367565b5b614f92826153d1565b9050602081019050919050565b600067ffffffffffffffff821115614fba57614fb9615367565b5b614fc3826153d1565b9050602081019050919050565b6000819050602082019050919050565b600081519050919050565b600081519050919050565b600081519050919050565b6000602082019050919050565b600082825260208201905092915050565b600082825260208201905092915050565b600081905092915050565b600082825260208201905092915050565b600081905092915050565b60006150628261517b565b915061506d8361517b565b9250827fffffffffffffffffffffffffffffffffffffffffffffffffffffffffffffffff038211156150a2576150a16152da565b5b828201905092915050565b60006150b88261517b565b91506150c38361517b565b9250817fffffffffffffffffffffffffffffffffffffffffffffffffffffffffffffffff04831182151516156150fc576150fb6152da565b5b828202905092915050565b60006151128261515b565b9050919050565b60008115159050919050565b6000819050919050565b60007fffffffff0000000000000000000000000000000000000000000000000000000082169050919050565b600073ffffffffffffffffffffffffffffffffffffffff82169050919050565b6000819050919050565b600063ffffffff82169050919050565b82818337600083830152505050565b60005b838110156151c25780820151818401526020810190506151a7565b838111156151d1576000848401525b50505050565b60006151e28261517b565b915060008214156151f6576151f56152da565b5b600182039050919050565b6000600282049050600182168061521957607f821691505b6020821081141561522d5761522c615309565b5b50919050565b61523c826153d1565b810181811067ffffffffffffffff8211171561525b5761525a615367565b5b80604052505050565b600061526f8261517b565b91507fffffffffffffffffffffffffffffffffffffffffffffffffffffffffffffffff8214156152a2576152a16152da565b5b600182019050919050565b60006152b882615185565b915063ffffffff8214156152cf576152ce6152da565b5b600182019050919050565b7f4e487b7100000000000000000000000000000000000000000000000000000000600052601160045260246000fd5b7f4e487b7100000000000000000000000000000000000000000000000000000000600052602260045260246000fd5b7f4e487b7100000000000000000000000000000000000000000000000000000000600052603260045260246000fd5b7f4e487b7100000000000000000000000000000000000000000000000000000000600052604160045260246000fd5b600060033d11156153b55760046000803e6153b26000516153e2565b90505b90565b600080fd5b600080fd5b600080fd5b600080fd5b600080fd5b6000601f19601f8301169050919050565b60008160e01c9050919050565b7f455243313135353a207472616e7366657220746f206e6f6e204552433131353560008201527f526563656976657220696d706c656d656e746572000000000000000000000000602082015250565b7f697066733a2f2f66300000000000000000000000000000000000000000000000600082015250565b7f537472696e67733a20686578206c656e67746820696e73756666696369656e74600082015250565b7f455243313135353a204552433131353552656365697665722072656a6563746560008201527f6420746f6b656e73000000000000000000000000000000000000000000000000602082015250565b7f5468697320746f6b656e2049442068617320616c7265616479206265656e206d60008201527f696e746564000000000000000000000000000000000000000000000000000000602082015250565b7f455243313135353a2062616c616e636520717565727920666f7220746865207a60008201527f65726f2061646472657373000000000000000000000000000000000000000000602082015250565b7f496e76616c696420627579657200000000000000000000000000000000000000600082015250565b7f455243313135353a206275726e20616d6f756e7420657863656564732062616c60008201527f616e636500000000000000000000000000000000000000000000000000000000602082015250565b7f455243313135353a2063616c6c6572206973206e6f74206f776e6572206e6f7260008201527f20617070726f7665640000000000000000000000000000000000000000000000602082015250565b7f496e76616c696420636964000000000000000000000000000000000000000000600082015250565b7f2f696e6465782e6a736f6e000000000000000000000000000000000000000000600082015250565b7f5552492063616e6e6f7420626520757064617465642e00000000000000000000600082015250565b7f455243313135353a207472616e7366657220746f20746865207a65726f20616460008201527f6472657373000000000000000000000000000000000000000000000000000000602082015250565b7f455243313135353a207472616e736665722063616c6c6572206973206e6f742060008201527f6f776e6572206e6f7220617070726f7665640000000000000000000000000000602082015250565b7f496e697469616c697a61626c653a20636f6e747261637420697320616c72656160008201527f647920696e697469616c697a6564000000000000000000000000000000000000602082015250565b7f455243313135353a206275726e2066726f6d20746865207a65726f206164647260008201527f6573730000000000000000000000000000000000000000000000000000000000602082015250565b7f455243313135353a20696e73756666696369656e742062616c616e636520666f60008201527f72207472616e7366657200000000000000000000000000000000000000000000602082015250565b7f4e46542063616e6e6f74206265206275726e6564000000000000000000000000600082015250565b7f496e76616c696420616d6f756e7420666f7220617070726f7665642062696400600082015250565b7f4f6e6c79206f776e65722063616e2073657420617070726f76616c20666f722060008201527f4349440000000000000000000000000000000000000000000000000000000000602082015250565b7f4661696c656420746f207472616e73666572207061796d656e7420746f20736560008201527f6c6c657200000000000000000000000000000000000000000000000000000000602082015250565b7f43616c6c6572206973206e6f74206f776e6572206e6f7220617070726f766564600082015250565b50565b7f416363657373436f6e74726f6c3a206163636f756e7420000000000000000000600082015250565b7f4e46542063616e6e6f7420626520637265617465640000000000000000000000600082015250565b7f455243313135353a2073657474696e6720617070726f76616c2073746174757360008201527f20666f722073656c660000000000000000000000000000000000000000000000602082015250565b7f56657273696f6e2063616e6e6f7420626520757064617465642e000000000000600082015250565b7f455243313135353a206163636f756e747320616e6420696473206c656e67746860008201527f206d69736d617463680000000000000000000000000000000000000000000000602082015250565b7f455243313135353a2069647320616e6420616d6f756e7473206c656e6774682060008201527f6d69736d61746368000000000000000000000000000000000000000000000000602082015250565b7f455243313135353a206d696e7420746f20746865207a65726f2061646472657360008201527f7300000000000000000000000000000000000000000000000000000000000000602082015250565b7f206973206d697373696e6720726f6c6520000000000000000000000000000000600082015250565b7f416363657373436f6e74726f6c3a2063616e206f6e6c792072656e6f756e636560008201527f20726f6c657320666f722073656c660000000000000000000000000000000000602082015250565b600060443d1015615ba557615c28565b615bad614f0c565b60043d036004823e80513d602482011167ffffffffffffffff82111715615bd5575050615c28565b808201805167ffffffffffffffff811115615bf35750505050615c28565b80602083010160043d038501811115615c10575050505050615c28565b615c1f82602001850186615233565b82955050505050505b90565b615c3481615107565b8114615c3f57600080fd5b50565b615c4b81615119565b8114615c5657600080fd5b50565b615c6281615125565b8114615c6d57600080fd5b50565b615c798161512f565b8114615c8457600080fd5b50565b615c908161517b565b8114615c9b57600080fd5b5056fea2646970667358221220894945bc6324729aab31758efe8f922372ec3486d8c26b6ff7f6a72f8a76240964736f6c63430008060033",
  "linkReferences": {},
  "deployedLinkReferences": {}
}