{
  "_format": "hh-sol-artifact-1",
  "contractName": "WNFT",
  "sourceName": "contracts/1155-WNFT.sol",
  "abi": [
    {
      "inputs": [],
      "name": "InvalidPurchaseOperation",
      "type": "error"
    },
    {
      "anonymous": false,
      "inputs": [
        {
          "indexed": true,
          "internalType": "address",
          "name": "account",
          "type": "address"
        },
        {
          "indexed": true,
          "internalType": "address",
          "name": "operator",
          "type": "address"
        },
        {
          "indexed": false,
          "internalType": "bool",
          "name": "approved",
          "type": "bool"
        }
      ],
      "name": "ApprovalForAll",
      "type": "event"
    },
    {
      "anonymous": false,
      "inputs": [
        {
          "indexed": true,
          "internalType": "address",
          "name": "operator",
          "type": "address"
        },
        {
          "indexed": false,
          "internalType": "uint256",
          "name": "cid",
          "type": "uint256"
        },
        {
          "indexed": false,
          "internalType": "bool",
          "name": "approved",
          "type": "bool"
        }
      ],
      "name": "ApprovalForCID",
      "type": "event"
    },
    {
      "anonymous": false,
      "inputs": [
        {
          "indexed": true,
          "internalType": "bytes32",
          "name": "role",
          "type": "bytes32"
        },
        {
          "indexed": true,
          "internalType": "bytes32",
          "name": "previousAdminRole",
          "type": "bytes32"
        },
        {
          "indexed": true,
          "internalType": "bytes32",
          "name": "newAdminRole",
          "type": "bytes32"
        }
      ],
      "name": "RoleAdminChanged",
      "type": "event"
    },
    {
      "anonymous": false,
      "inputs": [
        {
          "indexed": true,
          "internalType": "bytes32",
          "name": "role",
          "type": "bytes32"
        },
        {
          "indexed": true,
          "internalType": "address",
          "name": "account",
          "type": "address"
        },
        {
          "indexed": true,
          "internalType": "address",
          "name": "sender",
          "type": "address"
        }
      ],
      "name": "RoleGranted",
      "type": "event"
    },
    {
      "anonymous": false,
      "inputs": [
        {
          "indexed": true,
          "internalType": "bytes32",
          "name": "role",
          "type": "bytes32"
        },
        {
          "indexed": true,
          "internalType": "address",
          "name": "account",
          "type": "address"
        },
        {
          "indexed": true,
          "internalType": "address",
          "name": "sender",
          "type": "address"
        }
      ],
      "name": "RoleRevoked",
      "type": "event"
    },
    {
      "anonymous": false,
      "inputs": [
        {
          "indexed": true,
          "internalType": "address",
          "name": "operator",
          "type": "address"
        },
        {
          "indexed": true,
          "internalType": "address",
          "name": "from",
          "type": "address"
        },
        {
          "indexed": true,
          "internalType": "address",
          "name": "to",
          "type": "address"
        },
        {
          "indexed": false,
          "internalType": "uint256[]",
          "name": "ids",
          "type": "uint256[]"
        },
        {
          "indexed": false,
          "internalType": "uint256[]",
          "name": "values",
          "type": "uint256[]"
        }
      ],
      "name": "TransferBatch",
      "type": "event"
    },
    {
      "anonymous": false,
      "inputs": [
        {
          "indexed": true,
          "internalType": "address",
          "name": "operator",
          "type": "address"
        },
        {
          "indexed": true,
          "internalType": "address",
          "name": "from",
          "type": "address"
        },
        {
          "indexed": true,
          "internalType": "address",
          "name": "to",
          "type": "address"
        },
        {
          "indexed": false,
          "internalType": "uint256",
          "name": "id",
          "type": "uint256"
        },
        {
          "indexed": false,
          "internalType": "uint256",
          "name": "value",
          "type": "uint256"
        }
      ],
      "name": "TransferSingle",
      "type": "event"
    },
    {
      "anonymous": false,
      "inputs": [
        {
          "indexed": false,
          "internalType": "string",
          "name": "value",
          "type": "string"
        },
        {
          "indexed": true,
          "internalType": "uint256",
          "name": "id",
          "type": "uint256"
        }
      ],
      "name": "URI",
      "type": "event"
    },
    {
      "inputs": [],
      "name": "DEFAULT_ADMIN_ROLE",
      "outputs": [
        {
          "internalType": "bytes32",
          "name": "",
          "type": "bytes32"
        }
      ],
      "stateMutability": "view",
      "type": "function"
    },
    {
      "inputs": [],
      "name": "NFT_MINTER_ROLE",
      "outputs": [
        {
          "internalType": "bytes32",
          "name": "",
          "type": "bytes32"
        }
      ],
      "stateMutability": "view",
      "type": "function"
    },
    {
      "inputs": [
        {
          "internalType": "address",
          "name": "account",
          "type": "address"
        },
        {
          "internalType": "uint256",
          "name": "id",
          "type": "uint256"
        }
      ],
      "name": "balanceOf",
      "outputs": [
        {
          "internalType": "uint256",
          "name": "",
          "type": "uint256"
        }
      ],
      "stateMutability": "view",
      "type": "function"
    },
    {
      "inputs": [
        {
          "internalType": "address[]",
          "name": "accounts",
          "type": "address[]"
        },
        {
          "internalType": "uint256[]",
          "name": "ids",
          "type": "uint256[]"
        }
      ],
      "name": "balanceOfBatch",
      "outputs": [
        {
          "internalType": "uint256[]",
          "name": "",
          "type": "uint256[]"
        }
      ],
      "stateMutability": "view",
      "type": "function"
    },
    {
      "inputs": [
        {
          "internalType": "address",
          "name": "account",
          "type": "address"
        },
        {
          "internalType": "uint256",
          "name": "cid",
          "type": "uint256"
        }
      ],
      "name": "burn",
      "outputs": [],
      "stateMutability": "nonpayable",
      "type": "function"
    },
    {
      "inputs": [
        {
          "internalType": "address",
          "name": "account",
          "type": "address"
        },
        {
          "internalType": "uint256[]",
          "name": "ids",
          "type": "uint256[]"
        },
        {
          "internalType": "uint256[]",
          "name": "amounts",
          "type": "uint256[]"
        }
      ],
      "name": "burnBatch",
      "outputs": [],
      "stateMutability": "nonpayable",
      "type": "function"
    },
    {
      "inputs": [
        {
          "internalType": "bytes32",
          "name": "role",
          "type": "bytes32"
        }
      ],
      "name": "getRoleAdmin",
      "outputs": [
        {
          "internalType": "bytes32",
          "name": "",
          "type": "bytes32"
        }
      ],
      "stateMutability": "view",
      "type": "function"
    },
    {
      "inputs": [
        {
          "internalType": "bytes32",
          "name": "role",
          "type": "bytes32"
        },
        {
          "internalType": "address",
          "name": "account",
          "type": "address"
        }
      ],
      "name": "grantRole",
      "outputs": [],
      "stateMutability": "nonpayable",
      "type": "function"
    },
    {
      "inputs": [
        {
          "internalType": "bytes32",
          "name": "role",
          "type": "bytes32"
        },
        {
          "internalType": "address",
          "name": "account",
          "type": "address"
        }
      ],
      "name": "hasRole",
      "outputs": [
        {
          "internalType": "bool",
          "name": "",
          "type": "bool"
        }
      ],
      "stateMutability": "view",
      "type": "function"
    },
    {
      "inputs": [
        {
          "internalType": "uint256",
          "name": "cid",
          "type": "uint256"
        }
      ],
      "name": "holderOf",
      "outputs": [
        {
          "internalType": "address",
          "name": "",
          "type": "address"
        }
      ],
      "stateMutability": "view",
      "type": "function"
    },
    {
      "inputs": [],
      "name": "initialize",
      "outputs": [],
      "stateMutability": "nonpayable",
      "type": "function"
    },
    {
      "inputs": [
        {
          "internalType": "address",
          "name": "operator",
          "type": "address"
        },
        {
          "internalType": "uint256",
          "name": "cid",
          "type": "uint256"
        }
      ],
      "name": "isApprovedFor",
      "outputs": [
        {
          "internalType": "bool",
          "name": "",
          "type": "bool"
        }
      ],
      "stateMutability": "view",
      "type": "function"
    },
    {
      "inputs": [
        {
          "internalType": "address",
          "name": "account",
          "type": "address"
        },
        {
          "internalType": "address",
          "name": "operator",
          "type": "address"
        }
      ],
      "name": "isApprovedForAll",
      "outputs": [
        {
          "internalType": "bool",
          "name": "",
          "type": "bool"
        }
      ],
      "stateMutability": "view",
      "type": "function"
    },
    {
      "inputs": [
        {
          "internalType": "address",
          "name": "account",
          "type": "address"
        },
        {
          "internalType": "uint256",
          "name": "cid",
          "type": "uint256"
        }
      ],
      "name": "mint",
      "outputs": [],
      "stateMutability": "nonpayable",
      "type": "function"
    },
    {
      "inputs": [
        {
          "internalType": "address",
          "name": "to",
          "type": "address"
        },
        {
          "internalType": "uint256[]",
          "name": "cids",
          "type": "uint256[]"
        }
      ],
      "name": "mintBatch",
      "outputs": [],
      "stateMutability": "nonpayable",
      "type": "function"
    },
    {
      "inputs": [
        {
          "internalType": "bytes32",
          "name": "role",
          "type": "bytes32"
        },
        {
          "internalType": "address",
          "name": "account",
          "type": "address"
        }
      ],
      "name": "renounceRole",
      "outputs": [],
      "stateMutability": "nonpayable",
      "type": "function"
    },
    {
      "inputs": [
        {
          "internalType": "bytes32",
          "name": "role",
          "type": "bytes32"
        },
        {
          "internalType": "address",
          "name": "account",
          "type": "address"
        }
      ],
      "name": "revokeRole",
      "outputs": [],
      "stateMutability": "nonpayable",
      "type": "function"
    },
    {
      "inputs": [
        {
          "internalType": "address",
          "name": "from",
          "type": "address"
        },
        {
          "internalType": "address",
          "name": "to",
          "type": "address"
        },
        {
          "internalType": "uint256[]",
          "name": "ids",
          "type": "uint256[]"
        },
        {
          "internalType": "uint256[]",
          "name": "amounts",
          "type": "uint256[]"
        },
        {
          "internalType": "bytes",
          "name": "data",
          "type": "bytes"
        }
      ],
      "name": "safeBatchTransferFrom",
      "outputs": [],
      "stateMutability": "nonpayable",
      "type": "function"
    },
    {
      "inputs": [
        {
          "internalType": "address",
          "name": "from",
          "type": "address"
        },
        {
          "internalType": "address",
          "name": "to",
          "type": "address"
        },
        {
          "internalType": "uint256",
          "name": "id",
          "type": "uint256"
        },
        {
          "internalType": "uint256",
          "name": "amount",
          "type": "uint256"
        },
        {
          "internalType": "bytes",
          "name": "data",
          "type": "bytes"
        }
      ],
      "name": "safeTransferFrom",
      "outputs": [],
      "stateMutability": "nonpayable",
      "type": "function"
    },
    {
      "inputs": [
        {
          "internalType": "address",
          "name": "buyer",
          "type": "address"
        },
        {
          "internalType": "uint256",
          "name": "cid",
          "type": "uint256"
        }
      ],
      "name": "safeTransferTo",
      "outputs": [],
      "stateMutability": "nonpayable",
      "type": "function"
    },
    {
      "inputs": [
        {
          "internalType": "address",
          "name": "operator",
          "type": "address"
        },
        {
          "internalType": "uint256",
          "name": "cid",
          "type": "uint256"
        },
        {
          "internalType": "bool",
          "name": "approved",
          "type": "bool"
        }
      ],
      "name": "setApprovalFor",
      "outputs": [],
      "stateMutability": "nonpayable",
      "type": "function"
    },
    {
      "inputs": [
        {
          "internalType": "address",
          "name": "operator",
          "type": "address"
        },
        {
          "internalType": "bool",
          "name": "approved",
          "type": "bool"
        }
      ],
      "name": "setApprovalForAll",
      "outputs": [],
      "stateMutability": "nonpayable",
      "type": "function"
    },
    {
      "inputs": [
        {
          "internalType": "string",
          "name": "newuri",
          "type": "string"
        }
      ],
      "name": "setURI",
      "outputs": [],
      "stateMutability": "nonpayable",
      "type": "function"
    },
    {
      "inputs": [
        {
          "internalType": "bytes4",
          "name": "interfaceId",
          "type": "bytes4"
        }
      ],
      "name": "supportsInterface",
      "outputs": [
        {
          "internalType": "bool",
          "name": "",
          "type": "bool"
        }
      ],
      "stateMutability": "view",
      "type": "function"
    },
    {
      "inputs": [
        {
          "internalType": "address",
          "name": "from",
          "type": "address"
        },
        {
          "internalType": "address",
          "name": "to",
          "type": "address"
        },
        {
          "internalType": "uint256",
          "name": "cid",
          "type": "uint256"
        }
      ],
      "name": "transfer",
      "outputs": [],
      "stateMutability": "nonpayable",
      "type": "function"
    },
    {
      "inputs": [],
      "name": "upgrade",
      "outputs": [],
      "stateMutability": "nonpayable",
      "type": "function"
    },
    {
      "inputs": [
        {
          "internalType": "uint256",
          "name": "_tokenId",
          "type": "uint256"
        }
      ],
      "name": "uri",
      "outputs": [
        {
          "internalType": "string",
          "name": "",
          "type": "string"
        }
      ],
      "stateMutability": "view",
      "type": "function"
    },
    {
      "inputs": [],
      "name": "version",
      "outputs": [
        {
          "internalType": "uint32",
          "name": "",
          "type": "uint32"
        }
      ],
      "stateMutability": "view",
      "type": "function"
    }
  ],
  "bytecode": "0x608060405234801561001057600080fd5b506157a680620000216000396000f3fe608060405234801561001057600080fd5b50600436106101c35760003560e01c80638129fc1c116100f9578063d547741f11610097578063e985e9c511610071578063e985e9c5146104ea578063f242432a1461051a578063f72c868914610536578063fa752a4714610552576101c3565b8063d547741f14610494578063d55ec697146104b0578063dbacc237146104ba576101c3565b8063a217fddf116100d3578063a217fddf14610420578063a22cb4651461043e578063beabacc81461045a578063c0833ee414610476576101c3565b80638129fc1c146103ca57806391d14854146103d45780639dc29fac14610404576101c3565b806336568abe116101665780634e1273f4116101405780634e1273f41461034457806354fd4d50146103745780636b20c4541461039257806375ceb341146103ae576101c3565b806336568abe146102dc578063390ff134146102f857806340c10f1914610328576101c3565b80630e89341c116101a25780630e89341c14610244578063248a9ca3146102745780632eb2c2d6146102a45780632f2ff15d146102c0576101c3565b8062fdd58e146101c857806301ffc9a7146101f857806302fe530514610228575b600080fd5b6101e260048036038101906101dd9190613dd2565b61056e565b6040516101ef9190614a13565b60405180910390f35b610212600480360381019061020d9190613f4a565b610638565b60405161021f91906146db565b60405180910390f35b610242600480360381019061023d9190613fa4565b6106b2565b005b61025e60048036038101906102599190613fed565b61070a565b60405161026b9190614711565b60405180910390f35b61028e60048036038101906102899190613edd565b610740565b60405161029b91906146f6565b60405180910390f35b6102be60048036038101906102b99190613af2565b610760565b005b6102da60048036038101906102d59190613f0a565b610801565b005b6102f660048036038101906102f19190613f0a565b61082a565b005b610312600480360381019061030d9190613dd2565b6108ad565b60405161031f91906146db565b60405180910390f35b610342600480360381019061033d9190613dd2565b610915565b005b61035e60048036038101906103599190613e65565b610a95565b60405161036b9190614682565b60405180910390f35b61037c610bae565b6040516103899190614a80565b60405180910390f35b6103ac60048036038101906103a79190613d07565b610bc4565b005b6103c860048036038101906103c39190613cab565b610c20565b005b6103d2610eec565b005b6103ee60048036038101906103e99190613f0a565b61103a565b6040516103fb91906146db565b60405180910390f35b61041e60048036038101906104199190613dd2565b6110a5565b005b610428611157565b60405161043591906146f6565b60405180910390f35b61045860048036038101906104539190613d92565b61115e565b005b610474600480360381019061046f9190613bc1565b6112df565b005b61047e61137c565b60405161048b91906146f6565b60405180910390f35b6104ae60048036038101906104a99190613f0a565b6113a0565b005b6104b86113c9565b005b6104d460048036038101906104cf9190613fed565b611458565b6040516104e191906145a5565b60405180910390f35b61050460048036038101906104ff9190613ab2565b611495565b60405161051191906146db565b60405180910390f35b610534600480360381019061052f9190613c14565b611529565b005b610550600480360381019061054b9190613e12565b6115ca565b005b61056c60048036038101906105679190613dd2565b6117a5565b005b60008073ffffffffffffffffffffffffffffffffffffffff168373ffffffffffffffffffffffffffffffffffffffff1614156105df576040517f08c379a00000000000000000000000000000000000000000000000000000000081526004016105d6906147b3565b60405180910390fd5b6065600083815260200190815260200160002060008473ffffffffffffffffffffffffffffffffffffffff1673ffffffffffffffffffffffffffffffffffffffff16815260200190815260200160002054905092915050565b60007f21d9e870000000000000000000000000000000000000000000000000000000007bffffffffffffffffffffffffffffffffffffffffffffffffffffffff1916827bffffffffffffffffffffffffffffffffffffffffffffffffffffffff191614806106ab57506106aa8261195f565b5b9050919050565b6106bf6000801b3361103a565b6106fe576040517f08c379a00000000000000000000000000000000000000000000000000000000081526004016106f590614833565b60405180910390fd5b610707816119d9565b50565b606080610716836119f3565b905080604051602001610729919061453e565b604051602081830303815290604052915050919050565b600060976000838152602001908152602001600020600101549050919050565b610768611b68565b73ffffffffffffffffffffffffffffffffffffffff168573ffffffffffffffffffffffffffffffffffffffff1614806107ae57506107ad856107a8611b68565b611495565b5b6107ed576040517f08c379a00000000000000000000000000000000000000000000000000000000081526004016107e490614873565b60405180910390fd5b6107fa8585858585611b70565b5050505050565b61080a82610740565b61081b81610816611b68565b611e87565b6108258383611f24565b505050565b610832611b68565b73ffffffffffffffffffffffffffffffffffffffff168173ffffffffffffffffffffffffffffffffffffffff161461089f576040517f08c379a0000000000000000000000000000000000000000000000000000000008152600401610896906149f3565b60405180910390fd5b6108a98282612005565b5050565b600060c9600083815260200190815260200160002060008473ffffffffffffffffffffffffffffffffffffffff1673ffffffffffffffffffffffffffffffffffffffff16815260200190815260200160002060009054906101000a900460ff16905092915050565b600073ffffffffffffffffffffffffffffffffffffffff1660ca600083815260200190815260200160002060009054906101000a900473ffffffffffffffffffffffffffffffffffffffff1673ffffffffffffffffffffffffffffffffffffffff16146109b7576040517f08c379a00000000000000000000000000000000000000000000000000000000081526004016109ae90614793565b60405180910390fd5b6109e17f3a5b873628a2c49bf313473942acc8932f6f84c76b74bf3db0e4d8b51277a6233361103a565b610a20576040517f08c379a0000000000000000000000000000000000000000000000000000000008152600401610a1790614933565b60405180910390fd5b8160ca600083815260200190815260200160002060006101000a81548173ffffffffffffffffffffffffffffffffffffffff021916908373ffffffffffffffffffffffffffffffffffffffff160217905550610a918282600160ff16604051806020016040528060008152506120e7565b5050565b60608151835114610adb576040517f08c379a0000000000000000000000000000000000000000000000000000000008152600401610ad290614993565b60405180910390fd5b6000835167ffffffffffffffff811115610af857610af7614f06565b5b604051908082528060200260200182016040528015610b265781602001602082028036833780820191505090505b50905060005b8451811015610ba357610b73858281518110610b4b57610b4a614ed7565b5b6020026020010151858381518110610b6657610b65614ed7565b5b602002602001015161056e565b828281518110610b8657610b85614ed7565b5b60200260200101818152505080610b9c90614e03565b9050610b2c565b508091505092915050565b60cb60009054906101000a900463ffffffff1681565b610bd16000801b3361103a565b610c10576040517f08c379a0000000000000000000000000000000000000000000000000000000008152600401610c07906148f3565b60405180910390fd5b610c1b83838361227e565b505050565b610c4a7f3a5b873628a2c49bf313473942acc8932f6f84c76b74bf3db0e4d8b51277a6233361103a565b610c89576040517f08c379a0000000000000000000000000000000000000000000000000000000008152600401610c8090614933565b60405180910390fd5b6000815167ffffffffffffffff811115610ca657610ca5614f06565b5b604051908082528060200260200182016040528015610cd45781602001602082028036833780820191505090505b5090506000825167ffffffffffffffff811115610cf457610cf3614f06565b5b604051908082528060200260200182016040528015610d225781602001602082028036833780820191505090505b50905060005b8351811015610eca57838181518110610d4457610d43614ed7565b5b6020026020010151838281518110610d5f57610d5e614ed7565b5b602002602001018181525050600073ffffffffffffffffffffffffffffffffffffffff1660ca6000858481518110610d9a57610d99614ed7565b5b6020026020010151815260200190815260200160002060009054906101000a900473ffffffffffffffffffffffffffffffffffffffff1673ffffffffffffffffffffffffffffffffffffffff1614610e27576040517f08c379a0000000000000000000000000000000000000000000000000000000008152600401610e1e90614793565b60405180910390fd5b8460ca6000858481518110610e3f57610e3e614ed7565b5b6020026020010151815260200190815260200160002060006101000a81548173ffffffffffffffffffffffffffffffffffffffff021916908373ffffffffffffffffffffffffffffffffffffffff160217905550600160ff16828281518110610eab57610eaa614ed7565b5b6020026020010181815250508080610ec290614e03565b915050610d28565b50610ee684838360405180602001604052806000815250612531565b50505050565b600060019054906101000a900460ff1680610f12575060008054906101000a900460ff16155b610f51576040517f08c379a0000000000000000000000000000000000000000000000000000000008152600401610f4890614893565b60405180910390fd5b60008060019054906101000a900460ff161590508015610fa1576001600060016101000a81548160ff02191690831515021790555060016000806101000a81548160ff0219169083151502179055505b610fdf6040518060400160405280601881526020017f697066733a2f2f66307b69647d2f696e6465782e6a736f6e0000000000000000815250612750565b610fec6000801b33612843565b6110167f3a5b873628a2c49bf313473942acc8932f6f84c76b74bf3db0e4d8b51277a62333612843565b80156110375760008060016101000a81548160ff0219169083151502179055505b50565b60006097600084815260200190815260200160002060000160008373ffffffffffffffffffffffffffffffffffffffff1673ffffffffffffffffffffffffffffffffffffffff16815260200190815260200160002060009054906101000a900460ff16905092915050565b6110b26000801b3361103a565b6110f1576040517f08c379a00000000000000000000000000000000000000000000000000000000081526004016110e8906148f3565b60405180910390fd5b6111008282600160ff16612851565b600060ca600083815260200190815260200160002060006101000a81548173ffffffffffffffffffffffffffffffffffffffff021916908373ffffffffffffffffffffffffffffffffffffffff1602179055505050565b6000801b81565b8173ffffffffffffffffffffffffffffffffffffffff1661117d611b68565b73ffffffffffffffffffffffffffffffffffffffff1614156111d4576040517f08c379a00000000000000000000000000000000000000000000000000000000081526004016111cb90614953565b60405180910390fd5b80606660006111e1611b68565b73ffffffffffffffffffffffffffffffffffffffff1673ffffffffffffffffffffffffffffffffffffffff16815260200190815260200160002060008473ffffffffffffffffffffffffffffffffffffffff1673ffffffffffffffffffffffffffffffffffffffff16815260200190815260200160002060006101000a81548160ff0219169083151502179055508173ffffffffffffffffffffffffffffffffffffffff1661128e611b68565b73ffffffffffffffffffffffffffffffffffffffff167f17307eab39ab6107e8899845ad3d59bd9653f200f220920489ca2b5937696c31836040516112d391906146db565b60405180910390a35050565b611325838383600160ff166040518060400160405280600381526020017f3078300000000000000000000000000000000000000000000000000000000000815250611529565b8160ca600083815260200190815260200160002060006101000a81548173ffffffffffffffffffffffffffffffffffffffff021916908373ffffffffffffffffffffffffffffffffffffffff160217905550505050565b7f3a5b873628a2c49bf313473942acc8932f6f84c76b74bf3db0e4d8b51277a62381565b6113a982610740565b6113ba816113b5611b68565b611e87565b6113c48383612005565b505050565b6113d66000801b3361103a565b611415576040517f08c379a000000000000000000000000000000000000000000000000000000000815260040161140c90614973565b60405180910390fd5b60cb600081819054906101000a900463ffffffff168092919061143790614e4c565b91906101000a81548163ffffffff021916908363ffffffff16021790555050565b600060ca600083815260200190815260200160002060009054906101000a900473ffffffffffffffffffffffffffffffffffffffff169050919050565b6000606660008473ffffffffffffffffffffffffffffffffffffffff1673ffffffffffffffffffffffffffffffffffffffff16815260200190815260200160002060008373ffffffffffffffffffffffffffffffffffffffff1673ffffffffffffffffffffffffffffffffffffffff16815260200190815260200160002060009054906101000a900460ff16905092915050565b611531611b68565b73ffffffffffffffffffffffffffffffffffffffff168573ffffffffffffffffffffffffffffffffffffffff161480611577575061157685611571611b68565b611495565b5b6115b6576040517f08c379a00000000000000000000000000000000000000000000000000000000081526004016115ad90614813565b60405180910390fd5b6115c38585858585612a70565b5050505050565b8273ffffffffffffffffffffffffffffffffffffffff166115e9611b68565b73ffffffffffffffffffffffffffffffffffffffff161415611640576040517f08c379a000000000000000000000000000000000000000000000000000000000815260040161163790614953565b60405180910390fd5b60ca600083815260200190815260200160002060009054906101000a900473ffffffffffffffffffffffffffffffffffffffff1673ffffffffffffffffffffffffffffffffffffffff16611692611b68565b73ffffffffffffffffffffffffffffffffffffffff16146116e8576040517f08c379a00000000000000000000000000000000000000000000000000000000081526004016116df90614913565b60405180910390fd5b8060c9600084815260200190815260200160002060008573ffffffffffffffffffffffffffffffffffffffff1673ffffffffffffffffffffffffffffffffffffffff16815260200190815260200160002060006101000a81548160ff0219169083151502179055508273ffffffffffffffffffffffffffffffffffffffff167f21b736e508fdab3bfc711cc5fd4b9730c4dfa26bf2323a2baf180981e189da248383604051611798929190614a2e565b60405180910390a2505050565b8173ffffffffffffffffffffffffffffffffffffffff1660ca600083815260200190815260200160002060009054906101000a900473ffffffffffffffffffffffffffffffffffffffff1673ffffffffffffffffffffffffffffffffffffffff161415611847576040517f08c379a000000000000000000000000000000000000000000000000000000000815260040161183e906147d3565b60405180910390fd5b61185182826108ad565b611890576040517f08c379a000000000000000000000000000000000000000000000000000000000815260040161188790614813565b60405180910390fd5b61190960ca600083815260200190815260200160002060009054906101000a900473ffffffffffffffffffffffffffffffffffffffff168383600160ff166040518060400160405280600381526020017f3078300000000000000000000000000000000000000000000000000000000000815250612a70565b8160ca600083815260200190815260200160002060006101000a81548173ffffffffffffffffffffffffffffffffffffffff021916908373ffffffffffffffffffffffffffffffffffffffff1602179055505050565b60007f7965db0b000000000000000000000000000000000000000000000000000000007bffffffffffffffffffffffffffffffffffffffffffffffffffffffff1916827bffffffffffffffffffffffffffffffffffffffffffffffffffffffff191614806119d257506119d182612cf5565b5b9050919050565b80606790805190602001906119ef929190613775565b5050565b60606000821415611a3b576040518060400160405280600181526020017f30000000000000000000000000000000000000000000000000000000000000008152509050611b63565b600082905060005b60008214611a65578080611a5690614e03565b915050600482901c9150611a43565b6000600f905060008267ffffffffffffffff811115611a8757611a86614f06565b5b6040519080825280601f01601f191660200182016040528015611ab95781602001600182028036833780820191505090505b50905060008390505b60008714611b5a576000838816905060098111611aee57806030611ae69190614bf6565b60f81b611aff565b806037611afb9190614bf6565b60f81b5b8383611b0a90614d76565b93508381518110611b1e57611b1d614ed7565b5b60200101907effffffffffffffffffffffffffffffffffffffffffffffffffffffffffffff1916908160001a905350600488901c975050611ac2565b81955050505050505b919050565b600033905090565b8151835114611bb4576040517f08c379a0000000000000000000000000000000000000000000000000000000008152600401611bab906149b3565b60405180910390fd5b600073ffffffffffffffffffffffffffffffffffffffff168473ffffffffffffffffffffffffffffffffffffffff161415611c24576040517f08c379a0000000000000000000000000000000000000000000000000000000008152600401611c1b90614853565b60405180910390fd5b6000611c2e611b68565b9050611c3e818787878787612dd7565b60005b8451811015611df2576000858281518110611c5f57611c5e614ed7565b5b602002602001015190506000858381518110611c7e57611c7d614ed7565b5b6020026020010151905060006065600084815260200190815260200160002060008b73ffffffffffffffffffffffffffffffffffffffff1673ffffffffffffffffffffffffffffffffffffffff16815260200190815260200160002054905081811015611d20576040517f08c379a0000000000000000000000000000000000000000000000000000000008152600401611d17906148d3565b60405180910390fd5b8181036065600085815260200190815260200160002060008c73ffffffffffffffffffffffffffffffffffffffff1673ffffffffffffffffffffffffffffffffffffffff16815260200190815260200160002081905550816065600085815260200190815260200160002060008b73ffffffffffffffffffffffffffffffffffffffff1673ffffffffffffffffffffffffffffffffffffffff1681526020019081526020016000206000828254611dd79190614bf6565b9250508190555050505080611deb90614e03565b9050611c41565b508473ffffffffffffffffffffffffffffffffffffffff168673ffffffffffffffffffffffffffffffffffffffff168273ffffffffffffffffffffffffffffffffffffffff167f4a39dc06d4c0dbc64b70af90fd698a233a518aa5d07e595d983b8c0526c8f7fb8787604051611e699291906146a4565b60405180910390a4611e7f818787878787612ddf565b505050505050565b611e91828261103a565b611f2057611eb68173ffffffffffffffffffffffffffffffffffffffff166014612fc6565b611ec48360001c6020612fc6565b604051602001611ed592919061456b565b6040516020818303038152906040526040517f08c379a0000000000000000000000000000000000000000000000000000000008152600401611f179190614711565b60405180910390fd5b5050565b611f2e828261103a565b6120015760016097600084815260200190815260200160002060000160008373ffffffffffffffffffffffffffffffffffffffff1673ffffffffffffffffffffffffffffffffffffffff16815260200190815260200160002060006101000a81548160ff021916908315150217905550611fa6611b68565b73ffffffffffffffffffffffffffffffffffffffff168173ffffffffffffffffffffffffffffffffffffffff16837f2f8788117e7eff1d82e926ec794901d17c78024a50270940304540a733656f0d60405160405180910390a45b5050565b61200f828261103a565b156120e35760006097600084815260200190815260200160002060000160008373ffffffffffffffffffffffffffffffffffffffff1673ffffffffffffffffffffffffffffffffffffffff16815260200190815260200160002060006101000a81548160ff021916908315150217905550612088611b68565b73ffffffffffffffffffffffffffffffffffffffff168173ffffffffffffffffffffffffffffffffffffffff16837ff6391f5c32d9c69d2a47ea670b442974b53935d1edc7fd64eb21e047a839171b60405160405180910390a45b5050565b600073ffffffffffffffffffffffffffffffffffffffff168473ffffffffffffffffffffffffffffffffffffffff161415612157576040517f08c379a000000000000000000000000000000000000000000000000000000000815260040161214e906149d3565b60405180910390fd5b6000612161611b68565b90506121828160008761217388613202565b61217c88613202565b87612dd7565b826065600086815260200190815260200160002060008773ffffffffffffffffffffffffffffffffffffffff1673ffffffffffffffffffffffffffffffffffffffff16815260200190815260200160002060008282546121e29190614bf6565b925050819055508473ffffffffffffffffffffffffffffffffffffffff16600073ffffffffffffffffffffffffffffffffffffffff168273ffffffffffffffffffffffffffffffffffffffff167fc3d58168c5ae7397731d063d5bbf3d657854427343f4c083240f7aacaa2d0f628787604051612260929190614a57565b60405180910390a46122778160008787878761327c565b5050505050565b600073ffffffffffffffffffffffffffffffffffffffff168373ffffffffffffffffffffffffffffffffffffffff1614156122ee576040517f08c379a00000000000000000000000000000000000000000000000000000000081526004016122e5906148b3565b60405180910390fd5b8051825114612332576040517f08c379a0000000000000000000000000000000000000000000000000000000008152600401612329906149b3565b60405180910390fd5b600061233c611b68565b905061235c81856000868660405180602001604052806000815250612dd7565b60005b83518110156124ab57600084828151811061237d5761237c614ed7565b5b60200260200101519050600084838151811061239c5761239b614ed7565b5b6020026020010151905060006065600084815260200190815260200160002060008973ffffffffffffffffffffffffffffffffffffffff1673ffffffffffffffffffffffffffffffffffffffff1681526020019081526020016000205490508181101561243e576040517f08c379a0000000000000000000000000000000000000000000000000000000008152600401612435906147f3565b60405180910390fd5b8181036065600085815260200190815260200160002060008a73ffffffffffffffffffffffffffffffffffffffff1673ffffffffffffffffffffffffffffffffffffffff1681526020019081526020016000208190555050505080806124a390614e03565b91505061235f565b50600073ffffffffffffffffffffffffffffffffffffffff168473ffffffffffffffffffffffffffffffffffffffff168273ffffffffffffffffffffffffffffffffffffffff167f4a39dc06d4c0dbc64b70af90fd698a233a518aa5d07e595d983b8c0526c8f7fb86866040516125239291906146a4565b60405180910390a450505050565b600073ffffffffffffffffffffffffffffffffffffffff168473ffffffffffffffffffffffffffffffffffffffff1614156125a1576040517f08c379a0000000000000000000000000000000000000000000000000000000008152600401612598906149d3565b60405180910390fd5b81518351146125e5576040517f08c379a00000000000000000000000000000000000000000000000000000000081526004016125dc906149b3565b60405180910390fd5b60006125ef611b68565b905061260081600087878787612dd7565b60005b84518110156126ba5783818151811061261f5761261e614ed7565b5b60200260200101516065600087848151811061263e5761263d614ed7565b5b6020026020010151815260200190815260200160002060008873ffffffffffffffffffffffffffffffffffffffff1673ffffffffffffffffffffffffffffffffffffffff16815260200190815260200160002060008282546126a09190614bf6565b9250508190555080806126b290614e03565b915050612603565b508473ffffffffffffffffffffffffffffffffffffffff16600073ffffffffffffffffffffffffffffffffffffffff168273ffffffffffffffffffffffffffffffffffffffff167f4a39dc06d4c0dbc64b70af90fd698a233a518aa5d07e595d983b8c0526c8f7fb87876040516127329291906146a4565b60405180910390a461274981600087878787612ddf565b5050505050565b600060019054906101000a900460ff1680612776575060008054906101000a900460ff16155b6127b5576040517f08c379a00000000000000000000000000000000000000000000000000000000081526004016127ac90614893565b60405180910390fd5b60008060019054906101000a900460ff161590508015612805576001600060016101000a81548160ff02191690831515021790555060016000806101000a81548160ff0219169083151502179055505b61280d613463565b61281561353c565b61281e82613615565b801561283f5760008060016101000a81548160ff0219169083151502179055505b5050565b61284d8282611f24565b5050565b600073ffffffffffffffffffffffffffffffffffffffff168373ffffffffffffffffffffffffffffffffffffffff1614156128c1576040517f08c379a00000000000000000000000000000000000000000000000000000000081526004016128b8906148b3565b60405180910390fd5b60006128cb611b68565b90506128fb818560006128dd87613202565b6128e687613202565b60405180602001604052806000815250612dd7565b60006065600085815260200190815260200160002060008673ffffffffffffffffffffffffffffffffffffffff1673ffffffffffffffffffffffffffffffffffffffff16815260200190815260200160002054905082811015612993576040517f08c379a000000000000000000000000000000000000000000000000000000000815260040161298a906147f3565b60405180910390fd5b8281036065600086815260200190815260200160002060008773ffffffffffffffffffffffffffffffffffffffff1673ffffffffffffffffffffffffffffffffffffffff16815260200190815260200160002081905550600073ffffffffffffffffffffffffffffffffffffffff168573ffffffffffffffffffffffffffffffffffffffff168373ffffffffffffffffffffffffffffffffffffffff167fc3d58168c5ae7397731d063d5bbf3d657854427343f4c083240f7aacaa2d0f628787604051612a61929190614a57565b60405180910390a45050505050565b600073ffffffffffffffffffffffffffffffffffffffff168473ffffffffffffffffffffffffffffffffffffffff161415612ae0576040517f08c379a0000000000000000000000000000000000000000000000000000000008152600401612ad790614853565b60405180910390fd5b6000612aea611b68565b9050612b0a818787612afb88613202565b612b0488613202565b87612dd7565b60006065600086815260200190815260200160002060008873ffffffffffffffffffffffffffffffffffffffff1673ffffffffffffffffffffffffffffffffffffffff16815260200190815260200160002054905083811015612ba2576040517f08c379a0000000000000000000000000000000000000000000000000000000008152600401612b99906148d3565b60405180910390fd5b8381036065600087815260200190815260200160002060008973ffffffffffffffffffffffffffffffffffffffff1673ffffffffffffffffffffffffffffffffffffffff16815260200190815260200160002081905550836065600087815260200190815260200160002060008873ffffffffffffffffffffffffffffffffffffffff1673ffffffffffffffffffffffffffffffffffffffff1681526020019081526020016000206000828254612c599190614bf6565b925050819055508573ffffffffffffffffffffffffffffffffffffffff168773ffffffffffffffffffffffffffffffffffffffff168373ffffffffffffffffffffffffffffffffffffffff167fc3d58168c5ae7397731d063d5bbf3d657854427343f4c083240f7aacaa2d0f628888604051612cd6929190614a57565b60405180910390a4612cec82888888888861327c565b50505050505050565b60007fd9b67a26000000000000000000000000000000000000000000000000000000007bffffffffffffffffffffffffffffffffffffffffffffffffffffffff1916827bffffffffffffffffffffffffffffffffffffffffffffffffffffffff19161480612dc057507f0e89341c000000000000000000000000000000000000000000000000000000007bffffffffffffffffffffffffffffffffffffffffffffffffffffffff1916827bffffffffffffffffffffffffffffffffffffffffffffffffffffffff1916145b80612dd05750612dcf826136f8565b5b9050919050565b505050505050565b612dfe8473ffffffffffffffffffffffffffffffffffffffff16613762565b15612fbe578373ffffffffffffffffffffffffffffffffffffffff1663bc197c8187878686866040518663ffffffff1660e01b8152600401612e449594939291906145c0565b602060405180830381600087803b158015612e5e57600080fd5b505af1925050508015612e8f57506040513d601f19601f82011682018060405250810190612e8c9190613f77565b60015b612f3557612e9b614f35565b806308c379a01415612ef85750612eb0615667565b80612ebb5750612efa565b806040517f08c379a0000000000000000000000000000000000000000000000000000000008152600401612eef9190614711565b60405180910390fd5b505b6040517f08c379a0000000000000000000000000000000000000000000000000000000008152600401612f2c90614733565b60405180910390fd5b63bc197c8160e01b7bffffffffffffffffffffffffffffffffffffffffffffffffffffffff1916817bffffffffffffffffffffffffffffffffffffffffffffffffffffffff191614612fbc576040517f08c379a0000000000000000000000000000000000000000000000000000000008152600401612fb390614773565b60405180910390fd5b505b505050505050565b606060006002836002612fd99190614c4c565b612fe39190614bf6565b67ffffffffffffffff811115612ffc57612ffb614f06565b5b6040519080825280601f01601f19166020018201604052801561302e5781602001600182028036833780820191505090505b5090507f30000000000000000000000000000000000000000000000000000000000000008160008151811061306657613065614ed7565b5b60200101907effffffffffffffffffffffffffffffffffffffffffffffffffffffffffffff1916908160001a9053507f7800000000000000000000000000000000000000000000000000000000000000816001815181106130ca576130c9614ed7565b5b60200101907effffffffffffffffffffffffffffffffffffffffffffffffffffffffffffff1916908160001a9053506000600184600261310a9190614c4c565b6131149190614bf6565b90505b60018111156131b4577f3031323334353637383961626364656600000000000000000000000000000000600f86166010811061315657613155614ed7565b5b1a60f81b82828151811061316d5761316c614ed7565b5b60200101907effffffffffffffffffffffffffffffffffffffffffffffffffffffffffffff1916908160001a905350600485901c9450806131ad90614d76565b9050613117565b50600084146131f8576040517f08c379a00000000000000000000000000000000000000000000000000000000081526004016131ef90614753565b60405180910390fd5b8091505092915050565b60606000600167ffffffffffffffff81111561322157613220614f06565b5b60405190808252806020026020018201604052801561324f5781602001602082028036833780820191505090505b509050828160008151811061326757613266614ed7565b5b60200260200101818152505080915050919050565b61329b8473ffffffffffffffffffffffffffffffffffffffff16613762565b1561345b578373ffffffffffffffffffffffffffffffffffffffff1663f23a6e6187878686866040518663ffffffff1660e01b81526004016132e1959493929190614628565b602060405180830381600087803b1580156132fb57600080fd5b505af192505050801561332c57506040513d601f19601f820116820180604052508101906133299190613f77565b60015b6133d257613338614f35565b806308c379a01415613395575061334d615667565b806133585750613397565b806040517f08c379a000000000000000000000000000000000000000000000000000000000815260040161338c9190614711565b60405180910390fd5b505b6040517f08c379a00000000000000000000000000000000000000000000000000000000081526004016133c990614733565b60405180910390fd5b63f23a6e6160e01b7bffffffffffffffffffffffffffffffffffffffffffffffffffffffff1916817bffffffffffffffffffffffffffffffffffffffffffffffffffffffff191614613459576040517f08c379a000000000000000000000000000000000000000000000000000000000815260040161345090614773565b60405180910390fd5b505b505050505050565b600060019054906101000a900460ff1680613489575060008054906101000a900460ff16155b6134c8576040517f08c379a00000000000000000000000000000000000000000000000000000000081526004016134bf90614893565b60405180910390fd5b60008060019054906101000a900460ff161590508015613518576001600060016101000a81548160ff02191690831515021790555060016000806101000a81548160ff0219169083151502179055505b80156135395760008060016101000a81548160ff0219169083151502179055505b50565b600060019054906101000a900460ff1680613562575060008054906101000a900460ff16155b6135a1576040517f08c379a000000000000000000000000000000000000000000000000000000000815260040161359890614893565b60405180910390fd5b60008060019054906101000a900460ff1615905080156135f1576001600060016101000a81548160ff02191690831515021790555060016000806101000a81548160ff0219169083151502179055505b80156136125760008060016101000a81548160ff0219169083151502179055505b50565b600060019054906101000a900460ff168061363b575060008054906101000a900460ff16155b61367a576040517f08c379a000000000000000000000000000000000000000000000000000000000815260040161367190614893565b60405180910390fd5b60008060019054906101000a900460ff1615905080156136ca576001600060016101000a81548160ff02191690831515021790555060016000806101000a81548160ff0219169083151502179055505b6136d3826119d9565b80156136f45760008060016101000a81548160ff0219169083151502179055505b5050565b60007f01ffc9a7000000000000000000000000000000000000000000000000000000007bffffffffffffffffffffffffffffffffffffffffffffffffffffffff1916827bffffffffffffffffffffffffffffffffffffffffffffffffffffffff1916149050919050565b600080823b905060008111915050919050565b82805461378190614da0565b90600052602060002090601f0160209004810192826137a357600085556137ea565b82601f106137bc57805160ff19168380011785556137ea565b828001600101855582156137ea579182015b828111156137e95782518255916020019190600101906137ce565b5b5090506137f791906137fb565b5090565b5b808211156138145760008160009055506001016137fc565b5090565b600061382b61382684614ac0565b614a9b565b9050808382526020820190508285602086028201111561384e5761384d614f5c565b5b60005b8581101561387e5781613864888261397c565b845260208401935060208301925050600181019050613851565b5050509392505050565b600061389b61389684614aec565b614a9b565b905080838252602082019050828560208602820111156138be576138bd614f5c565b5b60005b858110156138ee57816138d48882613a9d565b8452602084019350602083019250506001810190506138c1565b5050509392505050565b600061390b61390684614b18565b614a9b565b90508281526020810184848401111561392757613926614f61565b5b613932848285614d34565b509392505050565b600061394d61394884614b49565b614a9b565b90508281526020810184848401111561396957613968614f61565b5b613974848285614d34565b509392505050565b60008135905061398b816156fd565b92915050565b600082601f8301126139a6576139a5614f57565b5b81356139b6848260208601613818565b91505092915050565b600082601f8301126139d4576139d3614f57565b5b81356139e4848260208601613888565b91505092915050565b6000813590506139fc81615714565b92915050565b600081359050613a118161572b565b92915050565b600081359050613a2681615742565b92915050565b600081519050613a3b81615742565b92915050565b600082601f830112613a5657613a55614f57565b5b8135613a668482602086016138f8565b91505092915050565b600082601f830112613a8457613a83614f57565b5b8135613a9484826020860161393a565b91505092915050565b600081359050613aac81615759565b92915050565b60008060408385031215613ac957613ac8614f6b565b5b6000613ad78582860161397c565b9250506020613ae88582860161397c565b9150509250929050565b600080600080600060a08688031215613b0e57613b0d614f6b565b5b6000613b1c8882890161397c565b9550506020613b2d8882890161397c565b945050604086013567ffffffffffffffff811115613b4e57613b4d614f66565b5b613b5a888289016139bf565b935050606086013567ffffffffffffffff811115613b7b57613b7a614f66565b5b613b87888289016139bf565b925050608086013567ffffffffffffffff811115613ba857613ba7614f66565b5b613bb488828901613a41565b9150509295509295909350565b600080600060608486031215613bda57613bd9614f6b565b5b6000613be88682870161397c565b9350506020613bf98682870161397c565b9250506040613c0a86828701613a9d565b9150509250925092565b600080600080600060a08688031215613c3057613c2f614f6b565b5b6000613c3e8882890161397c565b9550506020613c4f8882890161397c565b9450506040613c6088828901613a9d565b9350506060613c7188828901613a9d565b925050608086013567ffffffffffffffff811115613c9257613c91614f66565b5b613c9e88828901613a41565b9150509295509295909350565b60008060408385031215613cc257613cc1614f6b565b5b6000613cd08582860161397c565b925050602083013567ffffffffffffffff811115613cf157613cf0614f66565b5b613cfd858286016139bf565b9150509250929050565b600080600060608486031215613d2057613d1f614f6b565b5b6000613d2e8682870161397c565b935050602084013567ffffffffffffffff811115613d4f57613d4e614f66565b5b613d5b868287016139bf565b925050604084013567ffffffffffffffff811115613d7c57613d7b614f66565b5b613d88868287016139bf565b9150509250925092565b60008060408385031215613da957613da8614f6b565b5b6000613db78582860161397c565b9250506020613dc8858286016139ed565b9150509250929050565b60008060408385031215613de957613de8614f6b565b5b6000613df78582860161397c565b9250506020613e0885828601613a9d565b9150509250929050565b600080600060608486031215613e2b57613e2a614f6b565b5b6000613e398682870161397c565b9350506020613e4a86828701613a9d565b9250506040613e5b868287016139ed565b9150509250925092565b60008060408385031215613e7c57613e7b614f6b565b5b600083013567ffffffffffffffff811115613e9a57613e99614f66565b5b613ea685828601613991565b925050602083013567ffffffffffffffff811115613ec757613ec6614f66565b5b613ed3858286016139bf565b9150509250929050565b600060208284031215613ef357613ef2614f6b565b5b6000613f0184828501613a02565b91505092915050565b60008060408385031215613f2157613f20614f6b565b5b6000613f2f85828601613a02565b9250506020613f408582860161397c565b9150509250929050565b600060208284031215613f6057613f5f614f6b565b5b6000613f6e84828501613a17565b91505092915050565b600060208284031215613f8d57613f8c614f6b565b5b6000613f9b84828501613a2c565b91505092915050565b600060208284031215613fba57613fb9614f6b565b5b600082013567ffffffffffffffff811115613fd857613fd7614f66565b5b613fe484828501613a6f565b91505092915050565b60006020828403121561400357614002614f6b565b5b600061401184828501613a9d565b91505092915050565b60006140268383614511565b60208301905092915050565b61403b81614ca6565b82525050565b600061404c82614b8a565b6140568185614bb8565b935061406183614b7a565b8060005b83811015614092578151614079888261401a565b975061408483614bab565b925050600181019050614065565b5085935050505092915050565b6140a881614cb8565b82525050565b6140b781614cc4565b82525050565b60006140c882614b95565b6140d28185614bc9565b93506140e2818560208601614d43565b6140eb81614f70565b840191505092915050565b600061410182614ba0565b61410b8185614bda565b935061411b818560208601614d43565b61412481614f70565b840191505092915050565b600061413a82614ba0565b6141448185614beb565b9350614154818560208601614d43565b80840191505092915050565b600061416d603483614bda565b915061417882614f8e565b604082019050919050565b6000614190600983614beb565b915061419b82614fdd565b600982019050919050565b60006141b3602083614bda565b91506141be82615006565b602082019050919050565b60006141d6602883614bda565b91506141e18261502f565b604082019050919050565b60006141f9602583614bda565b91506142048261507e565b604082019050919050565b600061421c602b83614bda565b9150614227826150cd565b604082019050919050565b600061423f600d83614bda565b915061424a8261511c565b602082019050919050565b6000614262602483614bda565b915061426d82615145565b604082019050919050565b6000614285602983614bda565b915061429082615194565b604082019050919050565b60006142a8600b83614beb565b91506142b3826151e3565b600b82019050919050565b60006142cb601683614bda565b91506142d68261520c565b602082019050919050565b60006142ee602583614bda565b91506142f982615235565b604082019050919050565b6000614311603283614bda565b915061431c82615284565b604082019050919050565b6000614334602e83614bda565b915061433f826152d3565b604082019050919050565b6000614357602383614bda565b915061436282615322565b604082019050919050565b600061437a602a83614bda565b915061438582615371565b604082019050919050565b600061439d601483614bda565b91506143a8826153c0565b602082019050919050565b60006143c0602383614bda565b91506143cb826153e9565b604082019050919050565b60006143e3601783614beb565b91506143ee82615438565b601782019050919050565b6000614406601583614bda565b915061441182615461565b602082019050919050565b6000614429602983614bda565b91506144348261548a565b604082019050919050565b600061444c601a83614bda565b9150614457826154d9565b602082019050919050565b600061446f602983614bda565b915061447a82615502565b604082019050919050565b6000614492602883614bda565b915061449d82615551565b604082019050919050565b60006144b5602183614bda565b91506144c0826155a0565b604082019050919050565b60006144d8601183614beb565b91506144e3826155ef565b601182019050919050565b60006144fb602f83614bda565b915061450682615618565b604082019050919050565b61451a81614d1a565b82525050565b61452981614d1a565b82525050565b61453881614d24565b82525050565b600061454982614183565b9150614555828461412f565b91506145608261429b565b915081905092915050565b6000614576826143d6565b9150614582828561412f565b915061458d826144cb565b9150614599828461412f565b91508190509392505050565b60006020820190506145ba6000830184614032565b92915050565b600060a0820190506145d56000830188614032565b6145e26020830187614032565b81810360408301526145f48186614041565b905081810360608301526146088185614041565b9050818103608083015261461c81846140bd565b90509695505050505050565b600060a08201905061463d6000830188614032565b61464a6020830187614032565b6146576040830186614520565b6146646060830185614520565b818103608083015261467681846140bd565b90509695505050505050565b6000602082019050818103600083015261469c8184614041565b905092915050565b600060408201905081810360008301526146be8185614041565b905081810360208301526146d28184614041565b90509392505050565b60006020820190506146f0600083018461409f565b92915050565b600060208201905061470b60008301846140ae565b92915050565b6000602082019050818103600083015261472b81846140f6565b905092915050565b6000602082019050818103600083015261474c81614160565b9050919050565b6000602082019050818103600083015261476c816141a6565b9050919050565b6000602082019050818103600083015261478c816141c9565b9050919050565b600060208201905081810360008301526147ac816141ec565b9050919050565b600060208201905081810360008301526147cc8161420f565b9050919050565b600060208201905081810360008301526147ec81614232565b9050919050565b6000602082019050818103600083015261480c81614255565b9050919050565b6000602082019050818103600083015261482c81614278565b9050919050565b6000602082019050818103600083015261484c816142be565b9050919050565b6000602082019050818103600083015261486c816142e1565b9050919050565b6000602082019050818103600083015261488c81614304565b9050919050565b600060208201905081810360008301526148ac81614327565b9050919050565b600060208201905081810360008301526148cc8161434a565b9050919050565b600060208201905081810360008301526148ec8161436d565b9050919050565b6000602082019050818103600083015261490c81614390565b9050919050565b6000602082019050818103600083015261492c816143b3565b9050919050565b6000602082019050818103600083015261494c816143f9565b9050919050565b6000602082019050818103600083015261496c8161441c565b9050919050565b6000602082019050818103600083015261498c8161443f565b9050919050565b600060208201905081810360008301526149ac81614462565b9050919050565b600060208201905081810360008301526149cc81614485565b9050919050565b600060208201905081810360008301526149ec816144a8565b9050919050565b60006020820190508181036000830152614a0c816144ee565b9050919050565b6000602082019050614a286000830184614520565b92915050565b6000604082019050614a436000830185614520565b614a50602083018461409f565b9392505050565b6000604082019050614a6c6000830185614520565b614a796020830184614520565b9392505050565b6000602082019050614a95600083018461452f565b92915050565b6000614aa5614ab6565b9050614ab18282614dd2565b919050565b6000604051905090565b600067ffffffffffffffff821115614adb57614ada614f06565b5b602082029050602081019050919050565b600067ffffffffffffffff821115614b0757614b06614f06565b5b602082029050602081019050919050565b600067ffffffffffffffff821115614b3357614b32614f06565b5b614b3c82614f70565b9050602081019050919050565b600067ffffffffffffffff821115614b6457614b63614f06565b5b614b6d82614f70565b9050602081019050919050565b6000819050602082019050919050565b600081519050919050565b600081519050919050565b600081519050919050565b6000602082019050919050565b600082825260208201905092915050565b600082825260208201905092915050565b600082825260208201905092915050565b600081905092915050565b6000614c0182614d1a565b9150614c0c83614d1a565b9250827fffffffffffffffffffffffffffffffffffffffffffffffffffffffffffffffff03821115614c4157614c40614e79565b5b828201905092915050565b6000614c5782614d1a565b9150614c6283614d1a565b9250817fffffffffffffffffffffffffffffffffffffffffffffffffffffffffffffffff0483118215151615614c9b57614c9a614e79565b5b828202905092915050565b6000614cb182614cfa565b9050919050565b60008115159050919050565b6000819050919050565b60007fffffffff0000000000000000000000000000000000000000000000000000000082169050919050565b600073ffffffffffffffffffffffffffffffffffffffff82169050919050565b6000819050919050565b600063ffffffff82169050919050565b82818337600083830152505050565b60005b83811015614d61578082015181840152602081019050614d46565b83811115614d70576000848401525b50505050565b6000614d8182614d1a565b91506000821415614d9557614d94614e79565b5b600182039050919050565b60006002820490506001821680614db857607f821691505b60208210811415614dcc57614dcb614ea8565b5b50919050565b614ddb82614f70565b810181811067ffffffffffffffff82111715614dfa57614df9614f06565b5b80604052505050565b6000614e0e82614d1a565b91507fffffffffffffffffffffffffffffffffffffffffffffffffffffffffffffffff821415614e4157614e40614e79565b5b600182019050919050565b6000614e5782614d24565b915063ffffffff821415614e6e57614e6d614e79565b5b600182019050919050565b7f4e487b7100000000000000000000000000000000000000000000000000000000600052601160045260246000fd5b7f4e487b7100000000000000000000000000000000000000000000000000000000600052602260045260246000fd5b7f4e487b7100000000000000000000000000000000000000000000000000000000600052603260045260246000fd5b7f4e487b7100000000000000000000000000000000000000000000000000000000600052604160045260246000fd5b600060033d1115614f545760046000803e614f51600051614f81565b90505b90565b600080fd5b600080fd5b600080fd5b600080fd5b600080fd5b6000601f19601f8301169050919050565b60008160e01c9050919050565b7f455243313135353a207472616e7366657220746f206e6f6e204552433131353560008201527f526563656976657220696d706c656d656e746572000000000000000000000000602082015250565b7f697066733a2f2f66300000000000000000000000000000000000000000000000600082015250565b7f537472696e67733a20686578206c656e67746820696e73756666696369656e74600082015250565b7f455243313135353a204552433131353552656365697665722072656a6563746560008201527f6420746f6b656e73000000000000000000000000000000000000000000000000602082015250565b7f5468697320746f6b656e2049442068617320616c7265616479206265656e206d60008201527f696e746564000000000000000000000000000000000000000000000000000000602082015250565b7f455243313135353a2062616c616e636520717565727920666f7220746865207a60008201527f65726f2061646472657373000000000000000000000000000000000000000000602082015250565b7f496e76616c696420627579657200000000000000000000000000000000000000600082015250565b7f455243313135353a206275726e20616d6f756e7420657863656564732062616c60008201527f616e636500000000000000000000000000000000000000000000000000000000602082015250565b7f455243313135353a2063616c6c6572206973206e6f74206f776e6572206e6f7260008201527f20617070726f7665640000000000000000000000000000000000000000000000602082015250565b7f2f696e6465782e6a736f6e000000000000000000000000000000000000000000600082015250565b7f5552492063616e6e6f7420626520757064617465642e00000000000000000000600082015250565b7f455243313135353a207472616e7366657220746f20746865207a65726f20616460008201527f6472657373000000000000000000000000000000000000000000000000000000602082015250565b7f455243313135353a207472616e736665722063616c6c6572206973206e6f742060008201527f6f776e6572206e6f7220617070726f7665640000000000000000000000000000602082015250565b7f496e697469616c697a61626c653a20636f6e747261637420697320616c72656160008201527f647920696e697469616c697a6564000000000000000000000000000000000000602082015250565b7f455243313135353a206275726e2066726f6d20746865207a65726f206164647260008201527f6573730000000000000000000000000000000000000000000000000000000000602082015250565b7f455243313135353a20696e73756666696369656e742062616c616e636520666f60008201527f72207472616e7366657200000000000000000000000000000000000000000000602082015250565b7f4e46542063616e6e6f74206265206275726e6564000000000000000000000000600082015250565b7f4f6e6c79206f776e65722063616e2073657420617070726f76616c20666f722060008201527f4349440000000000000000000000000000000000000000000000000000000000602082015250565b7f416363657373436f6e74726f6c3a206163636f756e7420000000000000000000600082015250565b7f4e46542063616e6e6f7420626520637265617465640000000000000000000000600082015250565b7f455243313135353a2073657474696e6720617070726f76616c2073746174757360008201527f20666f722073656c660000000000000000000000000000000000000000000000602082015250565b7f56657273696f6e2063616e6e6f7420626520757064617465642e000000000000600082015250565b7f455243313135353a206163636f756e747320616e6420696473206c656e67746860008201527f206d69736d617463680000000000000000000000000000000000000000000000602082015250565b7f455243313135353a2069647320616e6420616d6f756e7473206c656e6774682060008201527f6d69736d61746368000000000000000000000000000000000000000000000000602082015250565b7f455243313135353a206d696e7420746f20746865207a65726f2061646472657360008201527f7300000000000000000000000000000000000000000000000000000000000000602082015250565b7f206973206d697373696e6720726f6c6520000000000000000000000000000000600082015250565b7f416363657373436f6e74726f6c3a2063616e206f6e6c792072656e6f756e636560008201527f20726f6c657320666f722073656c660000000000000000000000000000000000602082015250565b600060443d1015615677576156fa565b61567f614ab6565b60043d036004823e80513d602482011167ffffffffffffffff821117156156a75750506156fa565b808201805167ffffffffffffffff8111156156c557505050506156fa565b80602083010160043d0385018111156156e25750505050506156fa565b6156f182602001850186614dd2565b82955050505050505b90565b61570681614ca6565b811461571157600080fd5b50565b61571d81614cb8565b811461572857600080fd5b50565b61573481614cc4565b811461573f57600080fd5b50565b61574b81614cce565b811461575657600080fd5b50565b61576281614d1a565b811461576d57600080fd5b5056fea2646970667358221220002672c2ad15856364458f4e3abc0c6fa5372ade7204299de343ebf61ac9ec3664736f6c63430008060033",
  "linkReferences": {},
  "deployedLinkReferences": {}
}